:020000040800F2
:1000000000800020094500085145000851450008BE
:100010005145000851450008514500080000000006
:100020000000000000000000000000005145000832
:1000300051450008000000005145000899370008AC
:100040005145000851450008514500085145000838
:100050005145000851450008CD340008DB34000844
:10006000E9340008F7340008053500085145000858
:100070005145000851450008514500085145000808
:1000800051450008514500085145000851450008F8
:100090005145000851450008514500081335000836
:1000A0000000000051450008514500085145000876
:1000B00051450008514500085145000851450008C8
:1000C00051450008514500085145000851450008B8
:1000D00051450008A9410008514500085145000854
:1000E0003D3500089D3F0008514500085145000876
:1000F0005145000800000000000000000000000062
:1001000000000000000000000000000000000000EF
:1001100000000000000000000000000000000000DF
:1001200000000000000000000000000000000000CF
:0C01300000000000000000005FF808F173
:10014000044B05481B1A062B02D9044B03B1184770
:10015000704700BF0F0000200C00002000000000CE
:1001600005490648091A891001EBD171491002D0DE
:10017000034B03B1184770470C0000200C0000200F
:100180000000000010B5064C237843B9FFF7D8FFF4
:10019000044B13B10448AFF300800123237010BD5A
:1001A0000C000020000000005445000808B5084B72
:1001B0001BB108490848AFF300800848036813B929
:1001C000BDE80840CCE7064B002BF9D09847F7E78D
:1001D0000000000010000020544500080C00002022
:1001E0000000000070B50D4E0D4D761BB61006D008
:1001F0000024013455F8043B9847A642F9D1094E32
:10020000094D04F0A7F9761BB61006D0002401347E
:1002100055F8043B9847A642F9D170BDB84500088F
:10022000B8450008BC450008B8450008F0B486078A
:1002300043D0541E002A3ED0CAB2034602E014F155
:10024000FF3438D303F8012B9D07F8D1032C2BD9A9
:10025000CDB245EA05250F2C45EA054516D9A4F18E
:1002600010073F0903F1200606EB071603F1100201
:1002700042E9045542E902551032B242F8D104F085
:100280000F040137032C03EB07130DD91E4622463A
:10029000043A032A46F8045BFAD8221F22F003022C
:1002A0000432134404F003042CB1C9B21C4403F813
:1002B000011B9C42FBD1F0BC704714460346C5E7C6
:1002C000C1F30A522DE9F843A2F2FF36132E0B4672
:1002D0000D4604468846074621DC002E4CDB3A4A90
:1002E00042FA06F901EA090202431DD034A3D3E918
:1002F000002300F0C1F80022002300F0FFFC48B109
:10030000002D04DD4FF4801343FA06F6B0440027B5
:1003100028EA09053C4629462046BDE8F883332EE5
:1003200006DDB6F5806F3AD019462046BDE8F88361
:100330004FF0FF39A2F2134229FA02F919EA000F2D
:10034000F2D01FA3D3E9002300F096F80022002387
:1003500000F0D4FC0028DDD0002D09DD142E25D0BE
:100360000123C6F1340603FA06F6371928BF98446C
:1003700027EA09074546CDE711A3D3E9002300F09A
:100380007BF80022002300F0B9FC0028C2D0002D29
:100390000FDB55EA040707D000270C4DBAE70246E9
:1003A00000F06AF80446C0E73D46B3E705F10108EE
:1003B000DEE700274FF00045ACE700BFAFF3008059
:1003C0009C7500883CE4377EFFFF0F000000F03F83
:1003D000F8B5C1F30A57A7F2FF35132D0A460B46AD
:1003E000044611DC002D2ADB8C461F4929410A42B4
:1003F0002BD04FF4002300262B41634423EA010352
:10040000344619462046F8BD332D05DDB5F5806F1D
:100410001ED011462046F8BD4FF0FF31A7F213471A
:1004200021FA07F73842F4D00122C5F1330502FA68
:1004300005F5461928BF9B1826EA0706E0E70135AF
:1004400001F0004309D00026DAE70028D1D1E0E727
:10045000024600F011F80446DCE743F07F5343F412
:1004600040130026CCE700BFFFFF0F0081F00041E2
:1004700002E000BF83F0004330B54FEA41044FEA89
:10048000430594EA050F08BF90EA020F1FBF54EA24
:10049000000C55EA020C7FEA645C7FEA655C00F0C0
:1004A000E2804FEA5454D4EB5555B8BF6D420CDD91
:1004B0002C4480EA020281EA030382EA000083EA14
:1004C000010180EA020281EA0303362D88BF30BDB4
:1004D00011F0004F4FEA01314FF4801C4CEA11310A
:1004E00002D0404261EB410113F0004F4FEA033369
:1004F0004CEA133302D0524263EB430394EA050FF4
:1005000000F0A780A4F10104D5F1200E0DDB02FA62
:100510000EFC22FA05F2801841F1000103FA0EF2F6
:10052000801843FA05F359410EE0A5F120050EF1BC
:10053000200E012A03FA0EFC28BF4CF0020C43FAED
:1005400005F3C01851EBE37101F0004507D54FF0FA
:10055000000EDCF1000C7EEB00006EEB0101B1F54A
:10056000801F1BD3B1F5001F0CD349085FEA300090
:100570004FEA3C0C04F101044FEA445212F5800F9B
:1005800080F09A80BCF1004F08BF5FEA500C50F138
:10059000000041EB045141EA050130BD5FEA4C0C1B
:1005A000404141EB010111F4801FA4F10104E9D1A4
:1005B00091F0000F04BF01460020B1FA81F308BF9B
:1005C0002033A3F10B03B3F120020CDA0C3208DD67
:1005D00002F1140CC2F10C0201FA0CF021FA02F142
:1005E0000CE002F11402D8BFC2F1200C01FA02F1B2
:1005F00020FA0CFCDCBF41EA0C019040E41AA2BFD7
:1006000001EB0451294330BD6FEA04041F3C1CDA9E
:100610000C340EDC04F11404C4F1200220FA04F0BE
:1006200001FA02F340EA030021FA04F345EA030168
:1006300030BDC4F10C04C4F1200220FA02F001FA2A
:1006400004F340EA0300294630BD21FA04F02946AC
:1006500030BD94F0000F83F4801306BF81F4801145
:100660000134013D4EE77FEA645C18BF7FEA655CB8
:1006700029D094EA050F08BF90EA020F05D054EA8A
:10068000000C04BF1946104630BD91EA030F1EBF8F
:100690000021002030BD5FEA545C05D14000494193
:1006A00028BF41F0004130BD14F580043CBF01F586
:1006B000801130BD01F0004545F0FE4141F470016C
:1006C0004FF0000030BD7FEA645C1ABF1946104647
:1006D0007FEA655C1CBF0B46024650EA013406BF48
:1006E00052EA033591EA030F41F4002130BD00BF07
:1006F00090F0000F04BF0021704730B54FF48064C4
:1007000004F132044FF000054FF0000150E700BF44
:1007100090F0000F04BF0021704730B54FF48064A3
:1007200004F1320410F0004548BF40424FF0000190
:100730003EE700BF42004FEAE2014FEA31014FEAD3
:1007400002701FBF12F07F4393F07F4F81F0605122
:10075000704792F0000F14BF93F07F4F704730B591
:100760004FF4607401F0004521F0004120E700BF24
:1007700050EA010208BF704730B54FF000050AE0AB
:1007800050EA010208BF704730B511F0004502D5AC
:10079000404261EB41014FF4806404F132045FEAAE
:1007A000915C3FF4DCAE4FF003025FEADC0C18BF53
:1007B00003325FEADC0C18BF033202EBDC02C2F149
:1007C000200300FA03FC20FA02F001FA03FE40EADB
:1007D0000E0021FA02F11444C1E600BF70B54FF0DB
:1007E000FF0C4CF4E06C1CEA11541DBF1CEA1355BD
:1007F00094EA0C0F95EA0C0F00F0DEF82C4481EA25
:10080000030621EA4C5123EA4C5350EA013518BF44
:1008100052EA033541F4801143F4801338D0A0FB31
:1008200002CE4FF00005E1FB02E506F00042E0FBDE
:1008300003E54FF00006E1FB03569CF0000F18BFE4
:100840004EF0010EA4F1FF04B6F5007F64F540748C
:1008500004D25FEA4E0E6D4146EB060642EAC6211F
:1008600041EA55514FEAC52040EA5E504FEACE2E8C
:10087000B4F1FD0C88BFBCF5E06F1ED8BEF1004F8F
:1008800008BF5FEA500E50F1000041EB045170BD0B
:1008900006F0004646EA010140EA020081EA03014F
:1008A000B4EB5C04C2BFD4EB0C0541EA045170BD4B
:1008B00041F480114FF0000E013C00F3AB8014F1C5
:1008C000360FDEBF002001F0004170BDC4F100040E
:1008D000203C35DA0C341BDC04F11404C4F120058F
:1008E00000FA05F320FA04F001FA05F240EA0200EA
:1008F00001F0004221F0004110EBD37021FA04F620
:1009000042EB06015EEA430E08BF20EAD37070BDD9
:10091000C4F10C04C4F1200500FA04F320FA05F038
:1009200001FA04F240EA020001F0004110EBD3703A
:1009300041F100015EEA430E08BF20EAD37070BDAA
:10094000C4F1200500FA05F24EEA020E20FA04F383
:1009500001FA05F243EA020321FA04F001F0004132
:1009600021FA04F220EA020000EBD3705EEA430EA3
:1009700008BF20EAD37070BD94F0000F0FD101F0D2
:100980000046400041EB010111F4801F08BF013C0B
:10099000F7D041EA060195F0000F18BF704703F049
:1009A0000046520043EB030313F4801F08BF013DD0
:1009B000F7D043EA0603704794EA0C0F0CEA13558C
:1009C00018BF95EA0C0F0CD050EA410618BF52EA46
:1009D0004306D1D181EA030101F000414FF000004C
:1009E00070BD50EA410606BF1046194652EA43065A
:1009F00019D094EA0C0F02D150EA013613D195EACE
:100A00000C0F05D152EA03361CBF104619460AD115
:100A100081EA030101F0004141F0FE4141F470011F
:100A20004FF0000070BD41F0FE4141F4780170BD0F
:100A300070B54FF0FF0C4CF4E06C1CEA11541DBF74
:100A40001CEA135594EA0C0F95EA0C0F00F0A7F876
:100A5000A4EB050481EA030E52EA03354FEA0131A3
:100A600000F088804FEA03334FF0805545EA1313B6
:100A700043EA12634FEA022245EA111545EA10657E
:100A80004FEA00260EF000419D4208BF964244F115
:100A9000FD0404F5407402D25B084FEA3202B61A34
:100AA00065EB03055B084FEA32024FF480104FF408
:100AB000002CB6EB020E75EB030E22BFB61A75467C
:100AC00040EA0C005B084FEA3202B6EB020E75EB0F
:100AD000030E22BFB61A754640EA5C005B084FEA77
:100AE0003202B6EB020E75EB030E22BFB61A754644
:100AF00040EA9C005B084FEA3202B6EB020E75EB4F
:100B0000030E22BFB61A754640EADC0055EA060E0F
:100B100018D04FEA051545EA16754FEA06164FEA52
:100B2000C30343EA52734FEAC2025FEA1C1CC0D1FE
:100B300011F4801F0BD141EA00014FF000004FF08B
:100B4000004CB6E711F4801F04BF01430020B4F14C
:100B5000FD0C88BFBCF5E06F3FF6AFAEB5EB030C04
:100B600004BFB6EB020C5FEA500C50F1000041EB01
:100B7000045170BD0EF0004E4EEA113114EB5C04CE
:100B8000C2BFD4EB0C0541EA045170BD41F48011A1
:100B90004FF0000E013C90E645EA060E8DE60CEAA9
:100BA000135594EA0C0F08BF95EA0C0F3FF43BAFC6
:100BB00094EA0C0F0AD150EA01347FF434AF95EA7D
:100BC0000C0F7FF425AF104619462CE795EA0C0F61
:100BD00006D152EA03353FF4FDAE1046194622E72E
:100BE00050EA410618BF52EA43067FF4C5AE50EA08
:100BF00041047FF40DAF52EA43057FF4EBAE12E7F8
:100C00004FF0FF3C06E000BF4FF0010C02E000BFD8
:100C10004FF0010C4DF804CD4FEA410C7FEA6C5CBB
:100C20004FEA430C18BF7FEA6C5C1BD001B050EA5E
:100C3000410C0CBF52EA430C91EA030F02BF90EA49
:100C4000020F0020704710F1000F91EA030F58BF08
:100C5000994208BF90422CBFD8176FEAE37040F06A
:100C6000010070474FEA410C7FEA6C5C02D150EA08
:100C7000013C07D14FEA430C7FEA6C5CD6D152EAC3
:100C8000033CD3D05DF8040B704700BF8446104688
:100C900062468C461946634600E000BF01B5FFF787
:100CA000B7FF002848BF10F1000F01BD4DF808ED57
:100CB000FFF7F4FF0CBF012000205DF808FB00BF28
:100CC0004DF808EDFFF7EAFF34BF012000205DF882
:100CD00008FB00BF4DF808EDFFF7E0FF94BF0120CF
:100CE00000205DF808FB00BF4DF808EDFFF7CEFFD0
:100CF00094BF012000205DF808FB00BF4DF808ED0F
:100D0000FFF7C4FF34BF012000205DF808FB00BFDF
:100D10004FEA410212F5001215D211D56FF4787323
:100D2000B3EB625212D94FEAC12343F0004343EAC6
:100D3000505311F0004F23FA02F018BF40427047A1
:100D40004FF00000704750EA013005D111F000402B
:100D500008BF6FF0004070474FF00000704700BFC1
:100D60004A0011D212F5001211D20DD56FF478732A
:100D7000B3EB62520ED44FEAC12343F0004343EA7F
:100D8000505323FA02F070474FF00000704750EACA
:100D9000013002D14FF0FF3070474FF00000704734
:100DA00082B0064BDA6942F00102DA61DB6903F0D6
:100DB00001030193019B02B0704700BF003802405D
:100DC00008B50848084B03604FF4E1334360002343
:100DD0008360C36003610C2242618361C36100F0E0
:100DE0002EFC08BD0C0200200038014030B595B043
:100DF0003422002107A8FFF719FA00240294039473
:100E000004940594069400940194134A136823F4FF
:100E1000C05343F4006313601823079301250C9516
:100E20000D950E944FF420430F93109407A801F0F2
:100E3000DBFC0F230293039404940594069421464B
:100E400002A801F08FFF00954FF40033019368462C
:100E500000F0E8F815B030BD0070004008B500F0B3
:100E6000A5F9FFF7C3FFFFF79BFFFFF7A9FF4FF6B9
:100E7000FF730F220449054800F010FC4FF47A700C
:100E800000F0B6F9F3E700BF6C4500080C02002043
:100E90000E4B1A6842F480721A6099680C4A0A4034
:100EA0009A601A6822F0885222F001121A601A68B9
:100EB00022F480221A609A6822F47D029A6000224D
:100EC000DA604FF00062034B9A60704700380240CE
:100ED0000CC0FF8800ED00E038B5037F012B01D185
:100EE000022038BD044601230377022343770368B9
:100EF000CA225A62036853225A620268936823F432
:100F0000806393600268936823F48043936000F0E9
:100F100069F905462368DA6812F0040F0DD100F074
:100F200061F9401BB0F57A7FF4D92368FF225A6239
:100F3000032060770023237738BDFF225A62012304
:100F400063770020207738BD70474FF4806393FAB1
:100F5000A3F3B3FA83F39B0003F1844303F5602307
:100F600001221A6070474FF4007393FAA3F3B3FAA7
:100F700083F39B0003F1844303F5602301221A608D
:100F8000704770477047002833D010B504460023DF
:100F9000836290F851303BB3022384F851302268C9
:100FA000136823F04003136022686368A1680B4351
:100FB000E1680B4321690B4361690B43A16901F4AB
:100FC00000710B43E1690B43216A0B43A16A0B4398
:100FD00013602268638B03F0040353600020606594
:100FE000012384F8513010BD80F85030FFF7CAFF5C
:100FF000D2E701207047704790B110B50446022334
:1010000080F851300268136823F040031360FFF743
:10101000F2FF0020606584F8510084F8500010BD94
:1010200001207047036813F0010F00F08F8070B546
:1010300082B0474B5B6A13F0805F4AD1444B5A6AD7
:1010400042F080525A625B6A03F080530193019B25
:10105000012504463F4B1B6813F4807F3BD03C4B7B
:101060001B6803F0C043626802F0C0418B4204D0A9
:1010700002F44033B3F5403F41D0354B5B6B13F482
:10108000403314D002F44032934210D0236813F05E
:10109000010F0CD02E4A536B23F440302E49012609
:1010A0000E6000260E60506313F4807F2ED16368BB
:1010B00003F44032B2F5403F39D025494B6B6268AA
:1010C00002F4403213434B63002D39D1002002B0AB
:1010D00070BD0025BDE71F4A136843F48073136099
:1010E00000F080F806461B4B1B6813F4807FB6D1D6
:1010F00000F078F8801B6428F5D90320E7E7144B4B
:101100001B6813F4003FB8D00120E0E700F06AF854
:1011100006460F4B5B6B13F4007FC8D100F062F8FA
:10112000801B41F288339842F3D90320CFE7084966
:101130000A6822F0C04203F0C04313430B60BCE7CF
:101140004B6A23F080534B620020C0E700207047B9
:101150000038024000700040DC064742104B1B681C
:101160000BB90120704710B504464FF47A70B0FBFC
:10117000F3F30C4A1068B0FBF3F000F005FF68B918
:101180000F2C01D9012010BD002221464FF0FF3065
:1011900000F0BAFE044B1C60002010BD012010BD01
:1011A00004000020000000200800002010B50320EB
:1011B00000F098FE0020FFF7D1FF10B10124204677
:1011C00010BD0446FFF7DDFEF9E70000034A13688F
:1011D000034909680B441360704700BF7403002083
:1011E00004000020014B1868704700BF7403002002
:1011F00038B50446FFF7F6FF0546B4F1FF3F02D0CD
:10120000044B1B681C44FFF7EDFF401B8442FAD8D7
:1012100038BD00BF04000020024A536823F00103D8
:1012200053607047002004E0024A536823F0020331
:1012300053607047002004E0024A536823F004031F
:1012400053607047002004E070470000002800F061
:10125000BE80F8B5044690F83D30002B6BD02423B7
:1012600084F83D302268136823F00103136001F015
:101270006DFE6268584B9A4262D8584B98428CBFB8
:1012800000230123002B40F0A480554BA3FB002337
:101290009A0C21684B6823F03F0313434B60256889
:1012A000296A21F03F0166684B4B9E424ED8531C81
:1012B0000B432B622268D16921F44F4121F0FF01D9
:1012C0006368454DAB424BD801385B00B0FBF3F38C
:1012D0000133C3F30B03042B38BF04230B43D36147
:1012E00021680B6823F0C003E269206A02431343BC
:1012F0000B6021688B6823F4034323F0FF0322690A
:10130000E068024313438B602168CB6823F0FF033E
:101310006269A06902431343CB602268136843F0FB
:101320000103136000202064202384F83D302063F3
:1013300084F83E00F8BD80F83C30FFF785FF8EE76B
:10134000284B98428CBF002301239BE74FF49673F0
:1013500003FB02F3244AA2FB03239B090133A7E703
:10136000A668BEB9451E03EB4307B5FBF7F501358B
:10137000C5F30B05B5FA85F56D0935BBC6B901385E
:1013800003EB4303B0FBF3F30133C3F30B0343F469
:101390000043A3E7451E03EB830707EB8707B5FB75
:1013A000F7F50135C5F30B05B5FA85F56D09E4E7E9
:1013B000013803EB830303EB8303B0FBF3F3013347
:1013C000C3F30B0343F4404388E7012386E701207E
:1013D00070470120F8BD00BFA08601007F841E0079
:1013E00083DE1B43FF083D00D34D62100268D368C3
:1013F00023F49073D3600268536923F001035361AF
:10140000202380F83A30704790F83930DBB2212B36
:1014100001D0022070478368B3F5805F17D002685F
:10142000036A591C01621B785360C38C9BB2013B59
:101430009BB2C384DBB90268D36823F08003D36016
:101440000268D36843F04003D36000207047036A0A
:1014500002681B88C3F30803536003691BB9036A5E
:1014600002330362E1E7036A01330362DDE7002030
:101470007047000038B504460268136923F44053EE
:10148000C1680B43136183680269134342691343C4
:10149000C26913430168CA6822F4164222F00C02A2
:1014A0001343CB600268536923F4407381690B4393
:1014B0005361C369B3F5004F23D00268444B9A428D
:1014C00065D001F043FD216800EB800000EB800057
:1014D00063689B00B0FBF3F03E4DA5FB003254095E
:1014E000642202FB140213013233A5FB03235B09C0
:1014F00003F0F00202EB041203F00F0313448B60BD
:1015000038BD0268324B9A4220D001F01FFD21689D
:1015100000EB800000EB800063685B00B0FBF3F041
:101520002C4DA5FB00325409642202FB1402D300A7
:101530003233A5FB03235B095A0002F4F87202EB75
:10154000041203F0070313448B6038BD01F00EFD55
:10155000216800EB800000EB800063685B00B0FB5B
:10156000F3F01C4DA5FB00325409642303FB140364
:10157000DB003233A5FB03235B095A0002F4F87247
:1015800002EB041203F0070313448B6038BD01F033
:10159000EDFC216800EB800000EB800063689B009D
:1015A000B0FBF3F00B4DA5FB00325409642202FBA3
:1015B000140213013233A5FB03235B0903F0F0028D
:1015C00002EB041203F00F0313448B6038BD00BF1D
:1015D000003801401F85EB512DE9F04105460F46CB
:1015E00016469846069C2B681B6837EA03030CBF17
:1015F00001230023B3421ED1B4F1FF3FF3D02CB13D
:10160000FFF7F0FDA0EB08008442ECD22A68D36813
:1016100023F4D073D3602A68536923F00103536124
:10162000202385F8393085F83A30002385F83830A2
:101630000320BDE8F0810020BDE8F081704758B379
:1016400010B5044690F839300BB3242384F83930B0
:101650002268D36823F40053D3602046FFF70AFFC3
:101660002268136923F4904313612268536923F0BD
:101670002A0353612268D36843F40053D3600020E7
:10168000E063202384F8393084F83A3010BD80F8C4
:101690003830FFF7D3FFD8E7012070472DE9F0413C
:1016A00082B01E4690F83930DBB2202B04D00223E2
:1016B000184602B0BDE8F08104460D469046002968
:1016C00055D0002A55D090F83830012B01D1022393
:1016D000EEE7012380F838300023C363212380F82C
:1016E0003930FFF77FFD0746A4F82480A4F8268050
:1016F00010E000963B46002280212046FFF76CFF59
:10170000002838D122682B88C3F30803536023696B
:10171000CBB90235E38C9BB2BBB1E38C9BB2013BEE
:101720009BB2E384A368B3F5805FE2D000963B46AA
:10173000002280212046FFF74FFFF0B923682A7866
:101740005A600135E6E70135E4E700963B460022A2
:1017500040212046FFF740FF034608B10323A7E7D7
:10176000202284F83920002284F83820A0E70123C1
:101770009EE701239CE703239AE7032398E790F869
:101780003930DBB2202B01D002207047A9B1B2B1B1
:1017900090F83830012B14D001628284C284002377
:1017A000C363212280F8392080F838300168CA6884
:1017B00042F08002CA60184670470120704701203D
:1017C00070470220704790F83A30DBB2202B01D0EE
:1017D00002207047F9B102B390F83830012B1ED0C7
:1017E00081628285C2850023C363222280F83A2069
:1017F00080F838300168CA6842F48072CA600168B3
:101800004A6942F001024A610168CA6842F0200256
:10181000CA601846704701207047012070470220B7
:10182000704708B50168CB6823F04003CB602023E4
:1018300080F8393002F070FC002008BD08B590F83F
:101840003A30DBB2222B01D0022008BD8368B3F509
:10185000805F0FD003690BBB836A5A1C82620268E7
:1018600052681A70C38D9BB2013B9BB2C385F3B122
:10187000002008BD826A036943B903685B68C3F34B
:1018800008031380836A02338362EBE703685B68B3
:10189000DBB21380836A01338362E3E7826A531CFD
:1018A000836203685B6803F07F031370DAE7026802
:1018B000D36823F02003D3600268D36823F48073D5
:1018C000D3600268536923F001035361202380F839
:1018D0003A3002F03FFC002008BD000010B504467D
:1018E00002681368D168526913F00F0005D113F034
:1018F000200F02D011F0200F53D1002867D012F032
:10190000010202D111F4907F61D013F0010F06D0D3
:1019100011F4807F03D0E06B40F00100E06313F02E
:10192000040F04D01AB1E06B40F00200E06313F042
:10193000020F04D01AB1E06B40F00400E06313F032
:10194000080F04D01AB1E26B42F00802E263E26BC6
:10195000002A48D013F0200F02D011F0200F24D11C
:1019600023685B6903F04003E26B12F0080F00D1BB
:101970003BB32046FFF73AFD23685A6912F0400F47
:101980001BD05A6922F040025A61636B8BB11A4A2C
:101990005A63606B00F023FB28B3606B436B98477E
:1019A00010BD2046FFF74AFF10BD2046FFF746FF57
:1019B000D6E7204602F0ECFB10BD204602F0E8FB23
:1019C00010BD204602F0E4FB0023E36310BD13F0DA
:1019D000800F02D011F0800F06D113F0400F02D01B
:1019E00011F0400F04D110BD2046FFF70DFD10BDD2
:1019F0002046FFF716FFF6E7FD19000808B5406A14
:101A00000023C385C38402F0C3FB08BD70470000F8
:101A1000002800F0BE8070B582B00446C36C002B75
:101A200071D0E36C13F0100F40F0B580E36C23F439
:101A3000885323F0020343F00203E364574A5368D8
:101A400023F4403361680B435360E36862691343D6
:101A500094F83C104FF4007292FAA2F2B2FA82F2B9
:101A600001FA02F21343226A1A4394F82400022373
:101A700093FAA3F3B3FA83F300FA03F31343626B0D
:101A8000102A02D0A16B0A43134321680A6812F09E
:101A9000400214D1A5692B43A568E6693543266940
:101AA000B6F5807F42D0012E3DD02A4394F82C50C9
:101AB000012D3ED04D683A48284002434A602168D3
:101AC0008868384A02401A438A602269B2F5807FEA
:101AD00046D0012A44D021680A6B22F0F8720A63CA
:101AE00022689168304A0A40934249D0E36C23F05F
:101AF000120343F01003E364236D43F001032365F5
:101B0000012002B070BD036580F84830274B1A6A87
:101B100042F001021A621B6A03F001030193019B68
:101B2000FFF774FF7DE74FF48072BEE74FF48072D9
:101B3000BBE760B9206B01384FF4604595FAA5F515
:101B4000B5FA85F5A84040F400600243B2E7E06CC6
:101B500040F02000E064206D40F001002065A9E71E
:101B600025682A6B22F0F872A16A01394FF0F870EB
:101B700090FAA0F0B0FA80F081400A432A63AFE700
:101B800000202065E36C23F0030343F00103E364CA
:101B9000B7E7012070470120B3E700BF00270140ED
:101BA000FF16FCFC8DF1FFC0FEFF80BF0038024035
:101BB000704738B503681A6812F0400F01D1002051
:101BC00038BD04469A6822F001029A60FFF70AFBCA
:101BD000054623681B6813F0400F0ED0FFF702FB89
:101BE000401B0228F5D9E36C43F01003E364236D36
:101BF00043F001032365012038BD002038BD0000FB
:101C000038B500287FD00446C36C43F00203C36498
:101C1000FFF7CFFF054620B1002384F8483028465F
:101C200038BD23686FF01F021A6022685168374B75
:101C30000B40536022689168354B0B40936000BFA6
:101C40002268D3685B0D5B05D3602268136903F0DB
:101C5000404313612268536903F040435361226893
:101C6000936923F47F6323F00F0393612268D369A0
:101C700023F47F6323F00F03D3612268136A23F4F4
:101C80007F6323F00F0313622268536A23F47F6398
:101C900023F00F0353622268936A23F47F6323F0D7
:101CA0000F0393622268D36A23F47F6323F00F0348
:101CB000D3622268116B174B0B4013632268536B7E
:101CC00003F0404353632268936B03F040439363F4
:101CD0002268D36B03F04043D3632268136C03F094
:101CE000404313642268536C9B0D9B0553640A4A5E
:101CF000536823F4000353602046FFF759FF002385
:101D00002365E36488E7012589E700BF00003CF80C
:101D10008CF0808000800FFE00270140F0B583B07A
:101D200000238DE0DE08083650F8264003F0070E49
:101D30004FEA8E0E0F2707FA0EF724EA07040F6901
:101D400007FA0EF73C4340F8264088E086682640B4
:101D5000CF6807FA0EF73E438660466826EA050517
:101D60004E68C6F300169E4035434560C5682C405A
:101D70008D6805FA0EF52C43C4604C6814F0805F42
:101D80005DD04A4C256A45F001052562246A04F0BD
:101D900001040194019C9D08AE1C454C54F826405A
:101DA00003F00306B6000F27B74024EA0704414FAB
:101DB000B84271D007F58067B8426FD007F58067E9
:101DC000B8426DD007F58067B8426BD007F58067E1
:101DD000B8425FD0052707FA06F634430235344E81
:101DE00046F82540344C2568D44305EA04064F687C
:101DF00017F4803F01D042EA05062F4D2E606D6832
:101E000004EA05064F6817F4003F01D042EA0506D0
:101E1000294D6E60AD6804EA05064F6817F4801F0F
:101E200001D042EA0506244DAE60ED682C404E68B4
:101E300016F4001F01D042EA05041F4AD4600133A2
:101E40000A6832FA03F42FD001259D402A40F6D0CB
:101E50004C68022C3FF466AF122C3FF463AF066867
:101E60004FEA430E032404FA0EF4E44326404F687D
:101E700007F0030707FA0EF73E4306604E68771E29
:101E8000012F7FF663AF112E3FF460AF122E7FF467
:101E90006DAF5BE704279EE700279CE701279AE7E1
:101EA000022798E7032796E703B0F0BD0038024009
:101EB00000000140000002400004014012B9090482
:101EC000816170478161704708B5054B5B690342CA
:101ED00000D108BD024B586101F04CFBF9E700BF8F
:101EE00000040140074AD36823F4E0631B041B0C81
:101EF000000200F4E060184340F0BF6040F400309E
:101F0000D060704700ED00E030B4164BDB68C3F3DF
:101F10000223C3F10704042C28BF04241D1D062D31
:101F200017D9033B012505FA04F4013C21409940EF
:101F300005FA03F3013B1340194300280BDB0901A9
:101F4000C9B200F1604000F5614080F8001330BC78
:101F500070470023E6E700F00F000901C9B2024B09
:101F60001954F4E700ED00E014ED00E0002808DB70
:101F7000420900F01F00012303FA00F0014B43F86F
:101F80002200704700E100E00138B0F1807F0AD202
:101F9000064B5860F021064A82F823100020986012
:101FA00007221A6070470120704700BF10E000E070
:101FB00000ED00E0042805D0054A136823F004036F
:101FC00013607047024A136843F0040313607047BC
:101FD00010E000E0704708B5FFF7FCFF08BD08B54A
:101FE00090F82130DBB2022B03D00423836301205D
:101FF00008BD0268136823F00E03136002681368BB
:1020000023F001031360C16B036C03F01C03012276
:1020100002FA03F34B6080F82120002380F820307F
:10202000436B13B19847002008BD002008BD7047DE
:1020300038B5037F012B55D00446012303770223D3
:1020400043770368CA225A62036853225A62B1F581
:10205000807F1FD00268936823F400739360026846
:10206000936823F400539360FFF7BCF80546236898
:10207000DB6813F0020F2DD1FFF7B4F8401BB0F569
:102080007A7FF4D92368FF225A6203206077002305
:10209000237738BD0268936823F4807393600268E5
:1020A000936823F480539360FFF79CF805462368F8
:1020B000DB6813F0010F0DD1FFF794F8401BB0F56A
:1020C0007A7FF4D92368FF225A62032060770023C5
:1020D000237738BD2368FF225A62012363770020EB
:1020E000207738BD022038BD7047000010B5044687
:1020F00003689A6812F4805F03D0DB6813F4807F72
:102100000FD123689A6812F4005F03D0DB6813F4E0
:10211000007F0FD14FF400320B4B5A6101236377DC
:1021200010BDFFF7E1FF2268D368DBB263F4C07330
:10213000D360E6E72046FEF707FF2268D368DBB2EC
:1021400063F42073D360E5E70004014038B5036809
:102150009A6812F0200F01D0002038BD0446DA68DA
:1021600022F0A002DA60FFF73DF805462368DB683D
:1021700013F0200F07D1FFF735F8401BB0F57A7F39
:10218000F4D9032038BD002038BD38B50368DA68BB
:1021900012F0400F01D0002038BD04464FF0FF324E
:1021A000DA60FFF71FF805462368DB6813F0400F7D
:1021B00007D1FFF717F8401BB0F57A7FF4D9032059
:1021C00038BD002038BD00284CD038B50446437FC8
:1021D000002B3CD0022363772368CA225A6223680B
:1021E00053225A622046FFF7D0FF0246002832D120
:1021F00021688B6823F4E00323F040038B602068A0
:102200008168636825692B4365692B430B438360B1
:102210002368E168196121680B69A06843EA0043FB
:102220000B612168CB6823F08003CB6021680B6CC5
:1022300023F480230B6421680B6CA06903430B64B7
:102240002368FF21596201236377104638BD037765
:10225000FFF7EDFEBEE72368FF225A62042363778F
:102260000122F2E7012210467047002302E0013309
:102270000A38C0B20928FAD81B01DBB218437047EC
:10228000037F012B71D070B50E46044601230377FE
:102290000223437752BB03689B6813F0400F01D1C0
:1022A0000023CB703078FFF7E0FF05047078FFF76C
:1022B000DCFF45EA0025B078FFF7D7FF2843F57823
:1022C00040EA05452368CA225A62236853225A62AB
:1022D0002046FFF75AFFD8B12368FF225A62042331
:1022E0006377002323770123184670BD03689B683A
:1022F00013F0400F01D10023CB70357870780002C5
:1023000040EA0540B5782843F57840EA0545D9E725
:10231000236805F07F3525F0FE451D60226893682F
:1023200023F48023936021688B68F268306902434C
:1023300013438B602268D36823F08003D360204668
:10234000FFF704FF034638B92268FF2151620122DA
:10235000627700222277C7E72368FF225A620423AC
:102360006377002323770123BEE7022318467047D3
:10237000037F012B60D070B50123037702234377DD
:102380003AB94B7813F0100F03D003F0EF030A3380
:102390004B700E4604461ABBC878FFF766FF05046B
:1023A0007078FFF762FF45EA0025B078FFF75DFF20
:1023B0002843357840EA45352368CA225A622368A3
:1023C00053225A622046FFF7E0FEA0B12368FF22A5
:1023D0005A6204236377002323770123184670BDD4
:1023E000CD784878000240EA05408D7828430D7882
:1023F00040EA4535E0E7236825F07F4525F0C00534
:102400005D602268D36823F08003D3602046FFF725
:102410009DFE034638B92268FF215162012262778E
:1024200000222277DAE72368FF225A6204236377C7
:10243000002323770123D1E70223184670470000C9
:10244000F8B5037F012B00F0BE800D460446012342
:10245000037702234377002A4ED103689B6813F069
:10246000400F01D10023CB70EE692878FFF7FDFE05
:1024700007046878FFF7F9FE47EA0027A878FFF716
:10248000F4FE0743E87847EA004795F82000FFF795
:10249000ECFE47EA006006436B691E436F68AB6958
:1024A0001F432368CA225A62236853225A626B6A06
:1024B000B3F5807F3AD02268936823F40073936069
:1024C0002268D368DBB263F42073D360FEF78AFE20
:1024D00005462368DA6812F0020F56D1FEF782FE35
:1024E000401BB0F57A7FF4D92368FF225A6203209B
:1024F000607700232377F8BD03689B6813F0400FD3
:1025000001D10023CB70EE692A786B781B0243EA75
:102510000243AA781343EA7843EA024395F820205D
:1025200043EA02631E436B691E43B7E72268936860
:1025300023F4807393602268D368DBB263F4C073C2
:10254000D360FEF74FFE05462368DA6812F0010FEC
:102550000DD1FEF747FE401BB0F57A7FF4D9236812
:10256000FF225A620320607700232377F8BDDE61E3
:1025700023685F642268936843F4807393602268E1
:10258000936843F4805393600CE01E6223689F6459
:102590002268936843F4007393602268936843F45D
:1025A00000539360094B1A6842F400321A609A682B
:1025B00042F400329A602368FF225A620123637753
:1025C00000202077F8BD0220F8BD00BF00040140C4
:1025D000030903EB83035A0000F00F001044C0B25C
:1025E000704770B503689B6A9BB24B6003681B69B8
:1025F000C3F30E038B6003681B6803F07F3323F083
:10260000FE431D0C05F03F000870C3F306264E7014
:1026100003F07F048C7005F04005CD705AB90D466B
:10262000FFF7D6FF28703046FFF7D2FF68702046CC
:10263000FFF7CEFFA870002070BD70B503685B681F
:1026400023F07F4323F0C003180CC870C3F30426A3
:102650004E7003F03F058D70C3F342330B705AB9CF
:102660000C46FFF7B5FFE0703046FFF7B1FF607032
:102670002846FFF7ADFFA070002070BDF8B5B2F599
:10268000807F34D04FF400724A620068026A876C1F
:10269000C7F30E07C2F3074404F03F000870C2F30B
:1026A00006264E7002F07F058D7004F04004CC7059
:1026B0004F60C2F3056781F8207002F08044CC615E
:1026C00002F080324A6183B90C46FFF781FF207027
:1026D0003046FFF77DFF60702846FFF779FFA07056
:1026E0003846FFF775FF84F820000020F8BD4A62E5
:1026F0000068C269476CC7F30E07CBE7102393FA53
:10270000A3F3B3FA83F39B0003F1844303F560233F
:1027100000221A60704700000B4A136823F003037D
:1027200018431060094A136943F004031361012937
:1027300008D040BF20BF20BF044A136923F0040320
:102740001361704730BFF7E70070004000ED00E014
:1027500082B0224B9B6813F0F00F25D11F4B5B6AB0
:1027600013F0805F08D01E4B1B6803F4C053B3F511
:10277000C05F14D0002118E0184A536A43F0805318
:102780005362536A03F080530193019B144B1B68FF
:1027900003F4C053516A21F080515162E7E7B0F56C
:1027A000404F11D0002100E0002179B90D4A136893
:1027B00023F001030B431360136803F001039942F4
:1027C0000AD0012002B070470121EEE7054A1368E4
:1027D00043F004031360E9E70020F3E70038024008
:1027E00000700040003C0240002800F06882F0B514
:1027F00083B00446A34B9D6805F00C059E6806F463
:102800008036036813F0010F2ED0082D23D00C2D35
:102810001FD06368012B46D0002B4AD1994B1A6810
:1028200022F480321A601A6822F480221A606368E7
:10283000002B54D0FEF7D6FC0746924B1B6813F4CE
:10284000003F11D1FEF7CEFCC01B6428F5D903234D
:102850003FE2002EDDD08B4B1B6813F4003F03D00A
:102860006368002B00F02E82236813F0020F59D00A
:10287000042D45D00C2D41D0E368002B00F0B8802A
:102880000122814B1A60FEF7ADFC06467D4B1B68AA
:1028900013F0020F40F0A380FEF7A4FC801B022877
:1028A000F4D9032315E2774A136843F480331360A5
:1028B000BDE7052B09D0734B1A6822F480321A60E9
:1028C0001A6822F480221A60B1E76E4B1A6842F44B
:1028D00080221A601A6842F480321A60A7E7FEF775
:1028E00081FC0746674B1B6813F4003FBCD0FEF722
:1028F00079FCC01B6428F5D90323EAE1002EBBD183
:10290000604B1B6813F0020F04D0E368012B01D069
:102910000123DEE15B4A536823F4F853216943EA5B
:1029200001235360236813F0100F3CD0002D40F0BA
:102930008580544B1B6813F4007F03D0A369002BE0
:1029400000F0C281206A4F4B5B6803F460439842F9
:1029500060D9FFF7FDFE002840F0B881494A53686E
:1029600023F46043216A0B435360536823F07F4391
:10297000E16943EA01635360236A5B0B5A1C4FF41D
:10298000004393403F4A9268C2F303123F498A5C76
:10299000D3403F4A13603F4B1868FEF7DFFB034606
:1029A000002840F09681236813F0080F00F09D8006
:1029B0006369002B00F087800122374B1A60FEF715
:1029C00011FC06462F4B5B6B13F0020F40F08D801D
:1029D000FEF708FC801B0228F4D9032379E1294A79
:1029E000536823F4F853216943EA0123536099E7BC
:1029F0000022254B1A60FEF7F5FB0646214B1B68AB
:102A000013F0020F8ED0FEF7EDFB801B0228F5D9E4
:102A100003235EE11B4A536823F46043184350606C
:102A2000536823F07F43E16943EA01635360206AFE
:102A3000FFF78EFE00289FD001234AE1A3697BB3F4
:102A40000122164B1A60FEF7CDFB06460D4B1B68A4
:102A500013F4007F06D1FEF7C5FB801B0228F5D9D1
:102A6000032336E1074A536823F46043216A0B438A
:102A70005360536823F07F43E16943EA0163536085
:102A800091E700BF00380240000047427C45000843
:102A90000000002008000020800647422000474236
:102AA00000228F4B1A60FEF79DFB06468D4B1B687C
:102AB00013F4007F3FF477AFFEF794FB801B0228EE
:102AC000F4D9032305E10022874B1A60FEF78AFB45
:102AD0000646844B5B6B13F0020F06D0FEF782FBB9
:102AE000801B0228F5D90323F3E0236813F0040FB9
:102AF0007AD07C4B5B6A13F0805F31D1794B5A6A94
:102B000042F080525A625B6A03F080530193019B4A
:102B10000126764B1B6813F4807F23D0A368012B1A
:102B200034D0002B38D16F4B5A6B22F480725A6329
:102B30005A6B22F480625A63A368002B42D0FEF7DE
:102B400051FB0746674B5B6B13F4007F4BD1FEF7DD
:102B500049FBC01B41F288339842F3D90323B8E004
:102B60000026D6E7614A136843F480731360FEF7CA
:102B700039FB07465D4B1B6813F4807FCED1FEF70F
:102B800031FBC01B6428F5D90323A2E0554A536BDF
:102B900043F480735363CFE7052B09D0514B5A6B35
:102BA00022F480725A635A6B22F480625A63C3E73C
:102BB0004C4B5A6B42F480625A635A6B42F48072F7
:102BC0005A63B9E7FEF70EFB0746464B5B6B13F4FF
:102BD000007F08D0FEF706FBC01B41F28833984205
:102BE000F3D9032375E0C6B9636A002B70D00C2DAE
:102BF0004CD0022B17D000223D4B1A60FEF7F2FAA0
:102C00000446384B1B6813F0007F3DD0FEF7EAFA0C
:102C1000001B0228F5D903235BE0324A536A23F0F4
:102C200080535362E0E70022314B1A60FEF7DAFA74
:102C300005462C4B1B6813F0007F06D0FEF7D2FA36
:102C4000401B0228F5D9032343E026498B6823F46F
:102C50007D03A26AE06A0243206B024313438B6048
:102C60000122234B1A60FEF7BDFA04461D4B1B6878
:102C700013F0007F06D1FEF7B5FA001B0228F5D944
:102C8000032326E0002324E0002322E0012B23D0AD
:102C9000144B9B6803F48031A26A914201D0012356
:102CA00017E003F47012E16A8A4201D0012310E0B8
:102CB00003F44003226B934210D0012309E0012367
:102CC00018467047012304E0012302E0012300E0DD
:102CD0000023184603B0F0BD0123FAE70023F8E70C
:102CE0002000474200380240800647420070004002
:102CF00060004742174B986800F00C02082A26D063
:102D00000C2A0CD0042A08D0124B5868C0F3423069
:102D1000431C4FF40040984070470F487047C0F381
:102D200083420E498A5CC0F381500130094B9B6895
:102D300013F4803F05D00A4B03FB02F3B3FBF0F022
:102D40007047054B03FB02F3B3FBF0F070470448F8
:102D5000704700BF003802400024F400944500088A
:102D600000366E01002800F0DC8070B504466F4B21
:102D70001B6803F001038B4214D201290CD06B4A6B
:102D8000136823F001030B431360136803F001037E
:102D9000994207D0012070BD644A136843F00403D0
:102DA0001360ECE7236813F0020F06D0604A9368C3
:102DB00023F0F003A068034393600E46236813F0EA
:102DC000010F6CD06368022B27D0032B2CD0012B72
:102DD00031D0574A126812F4007F00F0A4805449A1
:102DE0008A6822F0030213438B60FEF7FBF9054665
:102DF0006368022B26D0032B33D0012B40D04C4BE1
:102E00009B6813F00C0F4AD0FEF7ECF9401B41F21F
:102E100088339842F3D9032070BD454A126812F4F2
:102E2000003FDCD1012070BD414A126812F0007FE2
:102E3000D5D1012070BD3E4A126812F0020FCED1EA
:102E4000012070BD3A4B9B6803F00C03082B26D081
:102E5000FEF7C8F9401B41F288339842F2D90320AB
:102E600070BD334B9B6803F00C030C2B17D0FEF79F
:102E7000B9F9401B41F288339842F2D9032070BD62
:102E80002B4B9B6803F00C03042B08D0FEF7AAF928
:102E9000401B41F288339842F2D9032070BD234B86
:102EA0001B6803F001039E4214D2012E0CD01F4A6E
:102EB000136823F0010333431360136803F0010325
:102EC0009E4207D0012070BD184A136843F00403E6
:102ED0001360ECE7236813F0040F06D0144A9368DC
:102EE00023F4E063E1680B439360236813F0080F59
:102EF00007D00F4A936823F46053216943EAC10362
:102F00009360FFF7F7FE0A4B9B68C3F30313094A6C
:102F1000D35CD840084B1860084B1868FEF71EF9C0
:102F200070BD01207047012070BD00BF003C024011
:102F3000003802407C450008000000200800002006
:102F4000014B1868704700BF0000002008B5FFF76C
:102F5000F7FF044B9B68C3F30223034AD35CD840BA
:102F600008BD00BF003802408C45000808B5FFF7D7
:102F7000E7FF044B9B68C3F3C223034AD35CD840EA
:102F800008BD00BF003802408C45000870B582B013
:102F9000214E01250195009500232A460421304643
:102FA00001F026F9002401940095234622461B21B6
:102FB000A6F1700001F01CF9019400952346224609
:102FC0002D21A6F1640001F013F901940095234628
:102FD00022461921A6F1580001F00AF90194009542
:102FE000234622461421A6F14C0001F001F9019478
:102FF0000095234622461321A6F1400001F0F8F87F
:1030000001940095234622460F21A6F1340001F0D9
:10301000EFF802B070BD00BFF002002030B583B001
:10302000204D0122019200240094234604212846C9
:1030300001F0DEF801940094234622461B21A5F1FD
:10304000700001F0D5F801940094234622462D210A
:10305000A5F1640001F0CCF80194009423462246C7
:103060001921A5F1580001F0C3F8019400942346FA
:1030700022461421A5F14C0001F0BAF80194009405
:10308000234622461321A5F1400001F0B1F8019436
:103090000094234622460F21A5F1340001F0A8F840
:1030A00003B030BDF002002030B583B00446027892
:1030B0005820164B00FB0230FDF79EFF204610F90A
:1030C000041F0025019500952B46012201F090F880
:1030D000204610F9101F0195022300932B46012270
:1030E00001F086F8204610F91C1F019500952B462B
:1030F000012201F07DF8204610F9281F01220192DB
:1031000000922B4601F074F803B030BD2800002077
:10311000F0B49DF9105004785827224E07FB046440
:103120000026A66000292BD101781E4C07FB014127
:103130000024CC6006781B49582404FB0616326133
:10314000027804FB02125361037804FB031300228C
:103150001A62037804FB03135A62037804FB031317
:103160009A62037804FB03110723CB628DB10378C5
:1031700058210C4A01FB032300225A60F0BC70471F
:1031800001785826074C06FB01414FF40064CC60DF
:10319000D0E70378034A04FB03234FF482725A609A
:1031A000ECE700BF280000200E4B1A6800238A427B
:1031B00003D901335208062BF9D913F0040200D0C9
:1031C000202213F0020100D010210A4313F0010362
:1031D00000D00823134302785820034900FB021251
:1031E000D361704700000020280000202DE9F04F37
:1031F00085B004460D46924699469DF938809DF962
:103200003C7000F07BFA2570002D5CD1574B5A6959
:1032100042F480525A615A6922F480525A611A6A01
:1032200042F480521A621B6A03F480530293029B99
:10323000582303FB05F34E494E4AD1504FF0050B7E
:10324000CDF804B002260096002332465146201DD8
:1032500000F0CEFFCDF804B0009600233246494678
:1032600004F1100000F0C4FFCDF804B00096002374
:103270003246414604F11C0000F0BAFFCDF804B01C
:103280000123009300233246394604F1280000F060
:10329000AFFFB7F1FF3F5AD00123009300231A4636
:1032A00019462046FFF734FF33492046FFF77CFFDD
:1032B0005820304B00FB0530FDF765FE00F026FA84
:1032C00005B0BDE8F08F294B9A6942F480429A61BB
:1032D0009A6922F480429A615A6A42F480425A62A0
:1032E0005B6A03F480430393039B582303FB05F3BA
:1032F0002249204AD1504FF0050BCDF804B00226E8
:103300000096002332465146201D00F071FFCDF893
:1033100004B0009600233246494604F1100000F044
:1033200067FFCDF804B0009600233246414604F111
:103330001C0000F05DFFCDF804B0012300930023D2
:103340003246394604F1280000F052FFA1E7582325
:10335000084A03FB05234FF400729A610021009193
:103360000B460A462046FFF7D3FE9DE70038024091
:10337000003001402800002080969800003800406E
:1033800008B590F900306F2B07DCB3F1FF3F04D094
:10339000CAB241884068FEF791FD08BD70B58AB099
:1033A0009DF838406F2929DC0170B1F1FF3F25D02D
:1033B00001F00F060125B540458011F0F0011FD145
:1033C0003D49416001F56051CD6945F00105CD6190
:1033D000C96901F001010091009941880591847249
:1033E000079402210891002A48D10023069304463D
:1033F000012A5CD005A96068FEF790FC0AB070BD98
:10340000102911D020291DD0302929D02B49416005
:1034100001F51051CD6945F02005CD61C96901F074
:10342000200104910499D8E72549416001F55051E4
:10343000CD6945F00205CD61C96901F00201019134
:103440000199CAE71F49416001F54051CD6945F036
:103450000405CD61C96901F0040102910299BCE73C
:103460001949416001F53051CD6945F00805CD613C
:10347000C96901F0080103910399AEE7032A06D058
:10348000022A07D0012B0FD001230693AFE70323B5
:103490000693ACE7012B04D0022306930F9B0993FC
:1034A000A5E712230693F9E7112306939FE70F99E7
:1034B000FFF766FF9EE700BF0000024000140240D5
:1034C0000004024000080240000C024008B500F071
:1034D00035FD0120FEF7F8FC08BD08B500F02EFD13
:1034E0000220FEF7F1FC08BD08B500F027FD04201E
:1034F000FEF7EAFC08BD08B500F020FD0820FEF745
:10350000E3FC08BD08B500F019FD1020FEF7DCFC57
:1035100008BD08B500F012FD2020FEF7D5FC4020C4
:10352000FEF7D2FC8020FEF7CFFC4FF48070FEF750
:10353000CBFC4FF40070FEF7C7FC08BD08B500F0E7
:10354000FDFC4FF48060FEF7BFFC4FF40060FEF717
:10355000BBFC4FF48050FEF7B7FC4FF40050FEF771
:10356000B3FC4FF48040FEF7AFFC4FF40040FEF791
:10357000ABFC08BD08B560B90023074A52F82330F8
:1035800003B1984708BD52080133DBB2012AFAD1D2
:10359000F3E702460023F9E7D80000200122014B9F
:1035A0001A7070472E01002082B0174B5A6A42F001
:1035B00080525A625A6A02F080520192019A13496B
:1035C0000A6822F4C05242F400620A601A6842F4A7
:1035D00080321A600C4B1B6813F4003FFAD00122B2
:1035E0000B4B1A60084B1B6813F0007FFAD0064A99
:1035F000936843F003039360034B9B6803F00C0351
:103600000C2BF9D102B07047003802400070004026
:1036100060004742F0B597B0254B5A6A42F080529D
:103620005A625B6A03F080530193019B214A13683D
:1036300023F4C05343F40063136005230993012569
:103640000A950B95022312934FF4803713974FF48A
:10365000402314934FF40003159309A8FFF7C4F80F
:103660000F230493032605960024069407940894D8
:10367000294604A8FFF776FB0295039702A8FDF7F9
:10368000D1FCFFF75DFC0C4BA3FB00308009FEF77B
:103690007BFC0420FEF78EFC3046FEF723FC22461E
:1036A00021464FF0FF30FEF72FFC17B0F0BD00BFF2
:1036B0000038024000700040D34D62100C4B1B7864
:1036C00003B1704710B50B4C0B49204600F026FEA5
:1036D0004FF47A71204600F0D9FE204600F02AFE11
:1036E00001E000F0DBFE024B1B78002BF9D010BD8F
:1036F0002E010020180100209D35000872B6024AF4
:1037000013780133137070472C010020034A13789B
:10371000013BDBB2137003B962B670472C01002085
:1037200010B586B0194800F0E9FE1948FFF7BCFC57
:10373000FFF774FC002401940094234603226021C7
:1037400003A800F055FD0194009423460322612153
:1037500003A800F04DFD01940094234622462E213B
:1037600003A800F045FD01940094234622462F2132
:1037700003A800F03DFD019400942346032202219A
:10378000044800F035FD06B010BD00BFF003002076
:10379000C80200207803002008B5FDF717FDFEF7EA
:1037A0001AFC08BD0120704710B586B0FFF7FAFF7C
:1037B000012858D0002401940094234603221C21A0
:1037C00003A800F015FD01940094234603221D2157
:1037D00003A800F00DFD01940094234603221E214E
:1037E00003A800F005FD01940094234603221F2145
:1037F00003A800F0FDFC0194009423460322152148
:1038000003A800F0F5FC0194009401230322122187
:1038100003A800F0EDFC0194009423460322114616
:1038200003A800F0E5FC019400942346032208213C
:1038300003A800F0DDFCFDF7EFFCFDF7F5FCFDF75C
:10384000FBFC01940094234603220D2103A800F001
:10385000CFFC01940094234603220E2103A800F01C
:10386000C7FC06B010BD0024019400942346032237
:103870000B2103A800F0BCFC019400942346032212
:103880000C210DEB010000F0B3FC93E700B583B011
:103890001A4B1B785BBBFDF789FCFFF7BBFE00F002
:1038A000ABFAFFF781FF172316220021144800F01E
:1038B00083FC1021134800F011FE4FF0FF330193F9
:1038C000052300930623072200210F48FFF78EFCF3
:1038D000FFF75CFB094B1B7833B90122074B1A70C9
:1038E000FFF760FF012805D003B05DF804FBFFF788
:1038F0005BFEDEE7FFF7E2FEF6E700BF2D010020EA
:103900009C030020F0030020C8020020034630B1D1
:1039100001210B4A11700B4A11880B4A1180084A89
:10392000127862B1074A12881344074909888B420A
:1039300005DC0021024B19706432024B1A8070477B
:103940002F010020300100203A01002070B588B01E
:1039500006460F4C002203A92046FEF742FE002235
:103960000DF106012046FEF768FE0A4B1B88ADF8F4
:1039700004309DF80900FFF7C9FF344601AD0FCDB3
:103980000FC495E8070084E80700304608B070BD12
:103990003C0100203001002082B02DE9F04F83B0BF
:1039A00081460E460CA981E80C0004460D460FCD59
:1039B0000FC495E8070084E807009DF83AB09DF829
:1039C00039509DF838409DF834806D48B04228BF8A
:1039D000304600B90120FCF78BFE63A3D3E9002336
:1039E000FCF7FCFECDE90001FCF7F2FC06460F46B1
:1039F000DDE90023FCF73EFD0022624BFCF7EEFE02
:103A0000CDE90001DFF894A1DAF80000FCF780FEB0
:103A1000DDE90023FCF730FDFDF77AF9CAF8000074
:103A2000B0F5F47F19DBA0F5F470CAF800000022AD
:103A3000554B30463946FCF71FFD06460F460CE055
:103A40004BA3D3E9002330463946FCF713FD064665
:103A50000F4608F101081FFA88F845A3D3E90023AF
:103A600030463946FDF740F90028E9D10AE042A383
:103A7000D3E9002330463946FCF7FCFC06460F46E6
:103A80000134A4B23CA3D3E9002330463946FDF704
:103A90002BF90028EBD109E000223C4B3046394697
:103AA000FCF7E8FC06460F460135ADB20022374B65
:103AB00030463946FDF718F90028EDD15846FCF795
:103AC00027FE32463B46FCF7D7FCFDF749F980B2AA
:103AD00003E03C3880B20135ADB23B28F9D803E0B1
:103AE0003C3DADB20134A4B23B2DF9D805E0183C01
:103AF000A4B208F101081FFA88F8172CF7D89DF82E
:103B000035302BB1224A1288134413F0030F1BD116
:103B10009DF83330013B1F4AD35C9AB2904505D9DA
:103B200098FBF3F203FB12881FFA88F889F80A0061
:103B300089F8095089F8084089F80480484603B09C
:103B4000BDE8F04F02B070479DF83330013B124A98
:103B5000D35C9AB29045E9D998FBF3F203FB128843
:103B60001FFA88F8E2E700BFFCA9F1D24D620040DD
:103B7000000000000018F540000000000020AC40EC
:103B80007661110000408F400000F03F00004E4081
:103B900030010020AC450008A0450008600100206D
:103BA0002DE9F0419EB080461F4F4FF4807138469A
:103BB000FEF73EFA3846FDF78FF917AE3046FFF7AD
:103BC000C5FE1A4C35460FCD0FC495E8070084E8B2
:103BD00007006C4619AD0FCD0FC42B68236096E823
:103BE0000C00414610A8FFF7D7FE4FF480730F93E7
:103BF00000220D920B928DF81B209DF84A308DF813
:103C00001A309DF849308DF819309DF848308DF8FC
:103C100018309DF844308DF8383006A93846FEF744
:103C20000FFC1EB0BDE8F0813C0100201404002010
:103C3000F0B589B058B1044601AD0FCC0FC594E87A
:103C4000070085E807000025002600270EE001A8F0
:103C5000FFF77CFEF7E73EA3D3E900233046394661
:103C6000FCF70AFC06460F4601352DB29DF80940C7
:103C7000BDF8043023449D420EDA002DEBD015F040
:103C8000030FE8D034A3D3E9002330463946FCF7CC
:103C9000F3FB06460F46E7E7ACB113F0030F3CD049
:103CA00000244DE02E4B1B5D2E4800FB03F0FCF77B
:103CB0001FFD02460B4630463946FCF7DDFB064643
:103CC0000F460134E4B29DF80730013B9C42E9DB2A
:103CD0009DF80E109DF80C309DF80D20C2EB0212DD
:103CE00090004FF4616202FB03030B449DF808202F
:103CF0001C4800FB0230FCF7FBFC02460B4630463A
:103D00003946FCF7B9FB0022174BFCF767FDFCF7BF
:103D10005FFBFDF725F809B0F0BD0024D3E7134B96
:103D20001B5D104800FB03F0FCF7E2FC02460B466B
:103D300030463946FCF7A0FB06460F460134E4B294
:103D40009DF80730013B9C42E9DBC1E7AFF30080FF
:103D50000000000050287E410000000038137E4122
:103D6000AC450008805101000040DF3FA04500083D
:103D70001D4B1B7803B1704710B592B001A8FFF737
:103D8000E5FD00234FF4807208A91848FEF776FC81
:103D90009DF822209DF82130C3EB031398001318DF
:103DA0009DF820204FF4616101FB02329DF80E0066
:103DB0009DF80D30C3EB03139C0003199DF80C0014
:103DC00001FB0030801AFCF793FC0022084BFCF743
:103DD00005FDFCF775FAFCF7C3FF064B18600122DE
:103DE000014B1A7012B010BD640100203C0100208C
:103DF0000040DF3F340100201F4B1B7803B17047A8
:103E000070B588B001261D4B1E601D4D1D4B2B60EB
:103E100000246C600323AB60EB602C616C61AC61CF
:103E20002846FEF7D0F98DF809408DF807608DF827
:103E3000086008A9062301F81A3D22462846FEF725
:103E400097FA8DF80C408DF80D408DF80E408DF8E6
:103E50000F4006940794224603A92846FEF710FA5D
:103E6000224604212920FEF74FF82920FEF77EF88C
:103E7000014B1E7008B070BD5C010020D80647429F
:103E80003C0100200028004008B5FFF789FE08BD6E
:103E90000E4B1B68834208D20D4B1B782BB10022BE
:103EA0000B4B1A70094B1B68C01A084B1B689842D1
:103EB00007D9312806D90122064B1A70034B1B681B
:103EC000C01A70470022034B1A707047340100205B
:103ED000380100205D01002010B50020FFF7A8FE8A
:103EE00004460548FFF7A4FE844201D3201A10BD02
:103EF000201A013810BD00BF1404002008B50C4B77
:103F00001B7813B90B4B1B7803B908BDFFF708FCEE
:103F1000FEF7F4FB084A136843F004031360FDF74F
:103F200022F8FDF712F801210846FEF7F5FBECE751
:103F3000320100205D0100200070004008B50E4BEA
:103F40005B6813F0010F12D00B4A136843F00403AF
:103F500013600A4B9B6803F00C03042B04D0074B3F
:103F60009B6813F00C0F01D1FFF790FC08BD0122F4
:103F7000034B1A70EDE700BF0070004000380240AC
:103F80003801002010B5044610B9034B1C7010BD59
:103F9000FFF7D4FFF9E700BF3201002010B5094C4C
:103FA0002046FEF7A3F84FF480712046FEF740F854
:103FB000FFF7C4FFFFF7DCFE0020FFF7E3FF00F090
:103FC000EDF910BD3C0100202DE9F04184B004461C
:103FD00016469846174B5A6A22F400125A625A6AD9
:103FE00042F400125A625A6A02F400120392039ACF
:103FF0009A6942F400129A619A6922F400129A6155
:1040000000F8041B0C4A0D4B1A600425019500278B
:10401000009701230222314600F0EAF8019500974B
:1040200001230222414604F1100000F0E1F804B03F
:10403000BDE8F081003802400054004068010020D3
:1040400000B583B0114B596A41F4001159625B6AA3
:1040500003F400130193019B0D4B0599596092B134
:104060004FF480420A4B9A6009480023C3604FF422
:104070008042026143618361C3610362FDF7E6F838
:1040800003B05DF804FB9A60EEE700BF0038024021
:104090006801002030B585B005460C460E480F4B30
:1040A000036003F58A331A6A42F400721A621B6ACB
:1040B00003F400730393039BFDF7A2FDB4F1FF3FEC
:1040C00007D000230193009303222146284600F0E5
:1040D0008FF805B030BD00BF30040020002401403F
:1040E00008B50C4800238360C36080F8243080F852
:1040F0002C3083634FF02062426380F83C304FF4F1
:1041000080624261012282628361C361FDF780FCAB
:1041100008BD00BF3004002008B50A4800F08FF841
:1041200028B1094B5B6B0BB10020984708BD0548CF
:1041300000F07BF80549087001220548FDF71FFBD8
:10414000EFE700BFD4030020B8030020BD0100202A
:10415000C001002008B50A4800F078F850B1094BBA
:104160005B6B0BB101209847012207490748FDF717
:104170002AFB08BD044B1978014800F04CF8EEE723
:10418000E0030020B8030020BC010020C001002093
:1041900008B5012202490348FDF715FB08BD00BF21
:1041A000BC010020C001002008B50248FDF796FBC5
:1041B00008BD00BFC001002030B583B00A4C247890
:1041C0000CB103B030BD04460125074805702046F8
:1041D000FFF7FAFE054B0193002100912B460A469A
:1041E0002046FFF72DFFECE700020020801A0600B2
:1041F00010B582B0059C01949DF810400094FFF723
:10420000CDF802B010BD0131038991FBF3F003FB3F
:10421000101080B2704738B504460D464188FFF74C
:10422000F2FF608063681D5438BD38B504464568A8
:104230000188FFF7E8FF0346285C238038BD028829
:104240004088824214BF00200120704710B5044608
:104250004188FFF7D8FF2388984214BF002001202F
:1042600010BD0000F0B4144B1D682C696CB12368BC
:104270000B44CDB10668B3420ED82269B2B11768BB
:104280002546144619463B44F3E703685B1A03606E
:1042900028610023036107E0761A066014B12368E1
:1042A0009E1B266028610461F0BC7047F31A03600E
:1042B000206100230361F7E704020020054B1B681F
:1042C0001BB1834203D01B69FAE70020704701202D
:1042D000704700BF0402002010B504460022044BC2
:1042E0001A700068FFF7D4FD2060FFF7CDFD10BD08
:1042F0000102002008B5084B1B6823B10268891A27
:10430000196000221A72036101230372024B1860C4
:10431000FFF7E2FF08BD00BF040200200023036096
:1043200043600372C1600361704708B5FFF7D4FDB5
:1043300008BD000010B50446FFF7E0F9B4B120460F
:10434000FFF7BCFF90B96168216000232372124B14
:104350001B6873B11A7A82B919682368994216D911
:104360002046FFF7C7FFFFF7D1F910BDFFF7CEF9E1
:1043700010BD2046FFF7BEFFF5E7FFF7D6FF064B5F
:104380001B681968884200D90846091AE5E72046E3
:10439000FFF768FFE7E700BF0402002008B5134BF2
:1043A0001B68EBB1FFF7C1FF104B1B681A68904206
:1043B00010D300221A6000221A720C4B186860B1E8
:1043C000036853B90269094B1A60C368002BF4D023
:1043D0009847F2E7121A1A60EDE708B1037A03B1C1
:1043E00008BD01230372FFF777FFF9E704020020FD
:1043F00010B50446FFF782F9234B1A685AB154B13D
:10440000A2420BD021681346002B37D0A3422FD0F5
:104410001A461B69F8E7FFF779F910BD137A43B91B
:1044200013690BB32168184A13601A680A441A60AA
:1044300024E0FFF77AFF2368984200D918461B1A38
:10444000114A126800211172106948B10E4A1060B9
:1044500002681344036001230372FFF73DFF0DE080
:104460000022094B1A6009E00022074B1A6005E0A0
:104470001B6933B113611A680A441A60FFF746F9E1
:1044800010BD00231361F9E70402002038B504468B
:104490000D46FFF7ADFF2560656038BD08B50D4BD3
:1044A0001B689BB11B7A8BB10B4B1B78DBB2042BC7
:1044B00005D8094A13780133DBB2137008BD002216
:1044C000054B1A70FFF76EF9012800D008BDFFF701
:1044D00015FDFBE7040200200102002008B5064B91
:1044E0001B7803B108BD0122034B1A70FFF7D2FD00
:1044F000FFF7F6FDF6E700BF080200200022014B9F
:104500001A70704708020020002103E00B4B5B5833
:10451000435004310A480B4B42189A42F6D30A4AD8
:1045200002E0002342F8043B084B9A42F9D3FCF71F
:10453000AFFCFBF757FEFCF791FC7047C045000845
:10454000000000200C0000200C000020840400204B
:10455000FEE70000F8B500BFF8BC08BC9E467047F7
:0C456000F8B500BFF8BC08BC9E467047D0
:10456C0048656C6C6F207562756E74750D0A000071
:10457C000000000000000000010203040607080907
:10458C000000000001020304030406080C101820AC
:10459C00300000001F1C1F1E1F1E1F1F1E1F1E1F72
:0C45AC001F1D1F1E1F1E1F1F1E1F1E1F95
:0445B800AD01000849
:0445BC00850100086D
:0C45C00068FF1F00010000001000000058
:0400000508004509A1
:00000001FF
