:020000022000DC
:106000000000042079640200A1640200A36402007D
:10601000A5640200A7640200A96402000000000059
:10602000000000000000000000000000C98B02001A
:10603000AD64020000000000E98B0200B1640200C0
:1060400029820200B3640200E58902008D82020009
:106050006D890200B364020005840200B36402008B
:10606000B3640200B3640200B3640200B3640200CC
:10607000B3640200B3640200B3640200B3640200BC
:10608000B364020055A70200B3640200B3640200C7
:10609000B3640200B364020081010300B364020030
:1060A000B3640200B3640200B3640200B36402008C
:1060B000B3640200B36402000000000000000000AE
:1060C000B3640200B3640200B3640200B36402006C
:1060D000B3640200B3640200B3640200B36402005C
:1060E000B3640200B3640200B36402000000000065
:1060F00000000000B364020000000000B36402006E
:10610000000000000000000000000000000000008F
:10611000000000000000000000000000000000007F
:10612000000000000000000000000000000000006F
:10613000000000000000000000000000000000005F
:10614000000000000000000000000000000000004F
:10615000000000000000000000000000000000003F
:10616000000000000000000000000000000000002F
:10617000000000000000000000000000000000001F
:10618000000000000000000000000000000000000F
:1061900000000000000000000000000000000000FF
:1061A00000000000000000000000000000000000EF
:1061B00000000000000000000000000000000000DF
:1061C00000000000000000000000000000000000CF
:1061D00000000000000000000000000000000000BF
:1061E00000000000000000000000000000000000AF
:1061F000000000000000000000000000000000009F
:1062000010B5054C237833B9044B13B10448AFF3F0
:1062100000800123237010BD842F002000000000A7
:10622000A875030008B5034B1BB103490348AFF33E
:10623000008008BD00000000882F0020A875030022
:10624000154B002B08BF134B9D46A3F5803A002148
:106250008B460F461348144A121A0CF0B1FE0F4B2E
:10626000002B00D098470E4B002B00D09847002001
:10627000002104000D000D48002802D00C48AFF3A7
:1062800000800CF03FFE2000290001F035FE0CF0EC
:1062900025FE00BF000008000000042000000000F0
:1062A00000000000842F00209892002000000000D1
:1062B0000000000010B44FF080414FF080520020E9
:1062C000C1F80C015E4BC1F81001C1F83805D2F8D5
:1062D0000414C3F82015D2F80814C3F82415D2F812
:1062E0000C14C3F82815D2F81014C3F82C15D2F8E2
:1062F0001414C3F83015D2F81814C3F83415D2F8B2
:106300001C14C3F84015D2F82014C3F84415D2F871
:106310002414C3F84815D2F82814C3F84C15D2F841
:106320002C14C3F85015D2F83014C3F85415D2F811
:106330003414C3F86015D2F83814C3F86415D2F8D1
:106340003C04C3F86805D2F840043E49C3F86C0524
:106350000968D2F84424C3F87025082924D04FF0E6
:106360008043D3F80024D20744BF6FF00102C3F882
:106370000024354AD2F8883043F47003C2F88830DC
:10638000BFF34F8FBFF36F8F4FF01023D3F800226E
:10639000002A23DBD3F80432002B1FDB2B4B2C4AC3
:1063A0001A605DF8044B70472A4B1B68002BD6D14E
:1063B00029482A4A2A4C04602A492B4BFB20C2F860
:1063C00018050A681B68294822F00F0203F00F0322
:1063D00013434FF400720B600260C0E7244B0122AC
:1063E000C3F80425D3F80024002AFBD04FF0102373
:1063F00012221F49C3F80022D1F80034002BFBD031
:106400004FF0102212211A4BC2F80412D3F80024C4
:10641000002AFBD000221649C3F80425D1F8003425
:10642000002BFBD0BFF34F8F0749124BCA6802F411
:10643000E0621343CB60BFF34F8F00BFFDE700BFA7
:1064400000C000403001001000ED00E0582D002099
:106450000090D003340100108C56004000F0004042
:1064600048810300E40E00405802001040960240AC
:1064700000E001400400FA050649074A074B9B1A51
:1064800003DD043BC858D050FBDCFFF713FFFFF7D8
:10649000D7FE000030770300582D0020842F002005
:1064A000FEE7FEE7FEE7FEE7FEE7FEE7FEE7FEE7C4
:1064B000FEE7FEE7F0B5324C85B004F5836008F0E6
:1064C000E5FF04F2144008F0E1FFD4E9013703EAE4
:1064D0000702D01C04EB800114F8200010F0040027
:1064E00044D003F1020C0E7806F00306012E654637
:1064F00035D0022E02F1030621D004EB86010028DC
:10650000F1D104EB82020133D26801923B4004EBEB
:10651000830302F00302012ADE6829D0022A23D174
:10652000BDF806309B090333360C05EB930515487F
:1065300008F0B8FF00B16560304605B0F0BD4B888B
:106540000CEB931307EA0302D11C03F1020C14F8BD
:106550002100654604EB810100F00400CFE70B88C1
:10656000C3F383136344EDE70026E0E79D1CC8E70F
:10657000BDF80430C3F38313360C1D44D7E700BFC6
:1065800070300020843400200B4B0C4810B50022E2
:10659000FF2401219C60C3F8182483F82014C3E968
:1065A0000022C3F8142400F08DFE044610B90448FC
:1065B00000F05AFF204610BD703000203C760300EA
:1065C0003C5D030021B9124B03EBC000006870472B
:1065D000104A0F49521AD20815D030B40E4D2B88EC
:1065E000834212D0002303E035F82340844205D0D3
:1065F00001339A42F8D1002030BC704701EBC30050
:10660000006830BC7047104670470846F8E700BF86
:106610005076030018770300842F0020094B0139BE
:1066200003EBC00003290BD8DFE801F002080604E1
:106630000220704740797047007970470420704706
:1066400000207047507603002DE9F04383B002AB81
:10665000002203F8012DDFF8DC9007461846884633
:10666000D9F8084008F030FDD9E90132D9F80060C6
:10667000134401339B1B012B58D809F21C450121FF
:10668000284608F0DFFEFFF715FF0146284608F010
:10669000D9FED9E90132D9F80010134401335B1A4D
:1066A000012BECD90A400332052302319DF8070083
:1066B00049F82230C9F8001008F02CFD00211C48D0
:1066C00008F086FE80F31000731C234009EB83035F
:1066D00000043440033440EA1740D86019F82430ED
:1066E00067F3C50309F8243039F824306FF38913B0
:1066F00029F8243059F8242068F39F2213460121F9
:1067000061F301036FF3820349F8242009F8243070
:1067100099F820341BB906E000F00EF818B1D9E959
:1067200000329A42F8D103B0BDE8F0833146B9E7B0
:106730008C340020703000202DE9F047934C00236A
:1067400084B0C4F81834BFF34F8FD4E9015605EA7A
:106750000602D31C04EB830114F82330580719D523
:1067600027680B7803F00303012B43D0022B03D1DE
:106770004B88023505EB931506EA0502D4F8180498
:10678000D31C04EB830128B9AF4239D914F8233064
:106790005B07E6D404EB82026B1CD26801923340A3
:1067A00004EB830302F00302DB680293022A05F183
:1067B000020700F08D80012A26D0D4F810543DB194
:1067C0002B6828469B689847EB681D68002DF7D119
:1067D0006F48704B7049C01AC008000440F00200B6
:1067E000FFF732FFD4E90030C01A18BF012004B00F
:1067F000BDE8F0870B880235C3F383131D44BBE764
:10680000676004B0BDE8F087BDF804206348C2F3B8
:106810008313062B28BF062363F3891202339900E2
:10682000ADF8042000F050FD80460028C5D000F0EF
:106830008DFD0023082201A9404600F0ADFDBDF802
:10684000043013F4707F00F09F806FF0010AAAEB10
:10685000050A082506EA070103312B46042204EB4A
:106860008101404600F098FDBDF8043007F10109B0
:106870000AEB0902C3F3831393424F4605F1040563
:10688000E8D8D4F81834002B68D1D4F8105465B186
:10689000EB685A7928464146002A5BD02B681B6872
:1068A0009847EB681D68002DF2D1404600F052FD7C
:1068B00004A8002300F80D3D08F006FCD4F81834B5
:1068C0000BB9C4F804909DF8030008F023FC89E795
:1068D000BDF8063031484FEA93194D46502D28BF78
:1068E000502565F38F1305F10801ADF8063000F06F
:1068F000EBFC804600283FF460AF26EA070A0AF165
:10690000010A00F023FD4FEA8A0A0023082201A9A8
:10691000404600F041FD55452BD9EBB2BAF1000FCE
:1069200020D006EA0701A3EB0A03033104EB81013F
:10693000DDB252460823404600F02EFD2A460AF1F9
:1069400008031749404600F027FD09F1030907EB4A
:10695000990996E71D68002D9AD1A6E7404600F0F8
:10696000F9FC3FE72A4608230D49404600F014FD94
:10697000EBE706EA0701033104EB81012A4608230D
:10698000404600F009FDE0E7B9467AE770300020A4
:106990008876030050760300485D03003C760300D0
:1069A0007C3000202DE9F04782B002AB002403F8D0
:1069B000014DDFF8ECA00746184691468846DAF804
:1069C000084008F081FBDAE90132DAF8006013448C
:1069D00001339B1B022B5ED80AF21C45012128467D
:1069E00008F030FDFFF766FD0146284608F02AFD55
:1069F000DAE90132DAF80010134401335B1A022B92
:106A0000ECD90A400332033145239DF807004AF8C8
:106A10002230CAF8001008F07DFBB31C23400AEBBB
:106A2000830300211D48C3F80C9008F0D1FC80F3CB
:106A30001000731C23400AEB83030004344003342A
:106A400040EA1740D8601AF8243067F3C5030AF803
:106A500024303AF82430012161F389132AF82430D4
:106A60005AF8242068F39F22134661F301036FF361
:106A700082034AF824200AF824309AF820341BB9FB
:106A800006E0FFF759FE18B1DAE900329A42F8D170
:106A900002B0BDE8F0873146B3E700BF8C34002078
:106AA000703000202DE9F04F83B002AD002405F8CE
:106AB000014D3B4C8046284693469A468946A56838
:106AC00008F002FBD4E90132276813440133DB1BD1
:106AD000032B63D804F21C460121304608F0B2FCB7
:106AE000FFF7E8FC0146304608F0ACFCD4E901327F
:106AF0002168134401335B1A032BEDD90A4003329A
:106B0000852344F8223004319DF80700216008F005
:106B100001FBBA1CFB1C2A402B4004EB820204EB55
:106B2000830300211F48C2F80CB0C3F80CA008F082
:106B30004FFC80F310007B1C2B4004EB830300040C
:106B40003D40033540EA1840D86014F8253068F31A
:106B5000C50304F8253034F82530022262F3891386
:106B600024F8253054F8252069F39F22134601218B
:106B700061F301036FF3820344F8252004F8253004
:106B800094F820341BB906E0FFF7D6FD18B1D4E91C
:106B900000329A42F8D103B0BDE8F08F3946ADE734
:106BA000703000208C3400202DE9F04F83B002AE0D
:106BB000002406F8014D3E4C8046304693469A46E6
:106BC000A568894608F080FAD4E9013227681344A1
:106BD0000133DB1B042B69D804F21C46012130462B
:106BE00008F030FCFFF766FC0146304608F02AFC4E
:106BF000D4E901322168134401335B1A042BEDD927
:106C00000A400332C52344F8223005319DF80700BD
:106C1000216008F07FFAB81CFA1C28402A403B1D6E
:106C20002B4004EB800004EB820204EB8303C0F8EA
:106C30000CB00021C2F80CA01E480C9ADA6008F0D3
:106C4000C7FB80F310007B1C2B4004EB8303000484
:106C50003D40033540EA1840D86014F8253068F309
:106C6000C50304F8253034F82530032262F3891374
:106C700024F8253054F8252069F39F22134601217A
:106C800061F301036FF3820344F8252004F82530F3
:106C900094F820341BB906E0FFF74EFD18B1D4E993
:106CA00000329A42F8D103B0BDE8F08F3946A7E729
:106CB000703000208C3400202DE9F04F85B004ACFA
:106CC000002304F8013DDFF834B1019182462046EB
:106CD00002F103089146DBF8084008F0F5F9DBE91A
:106CE0000121DBF800700A444FEA98080132D21BF8
:106CF00008F1020696427AD90BF21C45012128467A
:106D000008F0A0FBFFF7D6FB0146284608F09AFBE7
:106D1000DBE90121DBF800000A440132121A964235
:106D2000ECD8014003310622064468F39F529DF8D7
:106D30000F004BF82120CBF8006008F0EBF9DBF8EE
:106D40000850B81C204001352D1AAD000330A9456C
:106D50000BEB80003DD801994A460CF026F9002142
:106D6000244808F035FB80F310007A1C22404FEADB
:106D70001A410BEB82023C40033441EA0040D060F0
:106D80001BF824206AF3C5020BF824203BF82420CA
:106D90006FF38F122BF824200BEB84020220518812
:106DA00069F38F1151801BF8242060F301026FF307
:106DB00082020BF824209BF820241AB906E0FFF782
:106DC000BBFC18B1DBE900219142F8D105B0BDE868
:106DD000F08F019E2A4631460CF0E7F833462B44EB
:106DE0001946A9EB050204480CF0DFF8B7E738466E
:106DF00097E700BF8C3400207C30002070300020EA
:106E0000044BD3E900239A4201D0FFF795BC002040
:106E1000704700BF7030002030B4184DD5F81044D2
:106E200000215CB1E3681A798A4204D116E0DB687C
:106E30001A798A4212D01B68002BF8D1C3681971E5
:106E4000D5F8103493B1DA68C36812681A60D5F8BF
:106E50001034DB68186030BC0846704701310A29DD
:106E6000DFD14FF0FF31084630BC7047C5F8100441
:106E7000C2681360084630BC704700BF7030002005
:106E800038B5094BD3F81044012583F820544CB190
:106E9000E3685D71236820465B689847E3681C6877
:106EA000002CF5D138BD00BF70300020704700BF06
:106EB00000B583B0044B0093044A402300F036F839
:106EC00003B05DF804FB00BFD16E02003035002036
:106ED00002B32DE9F843114B114E8846144643F096
:106EE000010903270025224608EB050100200BF0CD
:106EF000E7FE03461D444FF47A40E41A23B9337881
:106F000033B1C847013F06D001233370002CEAD1CA
:106F1000BDE8F88370473770BDE8F883605D030013
:106F20002C350020704700BF0BF07EBFF0B595B048
:106F3000002415460F4608461E4600F007FA38465C
:106F400023460895082205A91A9D09960D950A94CD
:106F50008DF82C400C9400F053FA9DF814308DF805
:106F60001140DDE9061003F00302012ACDE9020118
:106F700027D0022A04D0384600F0ECF915B0F0BD55
:106F8000BDF81650C3F3C2038DF81030AD090826C2
:106F9000082D2C4628BF0824334622460EA9384621
:106FA00000F02EFA2D1B214608AB02AA0EA826449B
:106FB00000F0CCF8002DEBD1384600F0CBF915B03D
:106FC000F0BDBDF81460059DC6F38316C3F3C2047B
:106FD000B2000EA9384608238DF81040C5F3952558
:106FE00000F00EFA08AB324628460EA9009302AB19
:106FF00000F006F8384600F0ADF915B0F0BD00BF5E
:107000002DE9F04784B01D460C9C002394F80C80B9
:107010002373EB8881460E461746002B40D1297A10
:1070200005290ED06B7AA88873BB404B53F821A07A
:107030000021FFF7C7FA524603463D49204603F0B8
:1070400041FC062F09D8DFE807F0046A4249525D87
:1070500033004946204603F035FC2B7A052B05D03A
:107060006B7A5BB93349204603F02CFC204603F0D1
:107070001DFC84F80C8004B0BDE8F0872E4A2F492F
:10708000204603F01FFCEDE7FFF7C8FA2C4B2B4915
:1070900053F82020204603F015FC297AA888C4E77D
:1070A000254A00922749284A204603F00BFCB6E700
:1070B000D6E90410D6E900230390D6E9020702912D
:1070C000CDE900074946204603F0FCFBC5E74946E9
:1070D000D6E90023204603F0F5FBBEE7B168D6E908
:1070E000002320460091494603F0ECFBB5E7D6E9C2
:1070F0000201D6E90023019100904946204603F0A1
:10710000E1FBAAE7D6E90371B068D6E90023029152
:10711000CDE900074946204603F0D4FB9DE73268DD
:107120004946204603F0CEFB97E700BFE45D03002D
:10713000D85D030044730300CC5D0300D45D0300FD
:10714000745D0300B45D0300AC5D0300082900D941
:1071500070472DE9F04F1D46904600232A7B2B7384
:1071600085B0B8F80630039207460E46002B77D15B
:1071700098F80810052911D098F80930B8F80400DB
:10718000002B5FD13A4B53F821400021FFF71AFA48
:10719000224603463749284603F094FBDFF8F4B053
:1071A000DFF8F490002405E03A5D013403F08AFB37
:1071B000082C09D0A64249462846F5D8594601343C
:1071C00003F080FB082CF5D12B49DFF8D090DFF8D5
:1071D000D0B0284603F076FB002411E017F804A095
:1071E0000BF0B4FE50445946437813F0970F14BF88
:1071F00052462E222846013403F064FB082C08D0A6
:10720000A64249462846E9D8013403F05BFB082C26
:10721000F6D198F80830052B02D098F809305BB900
:107220001649284603F04EFB284603F03FFB039B1C
:107230002B7305B0BDE8F08F114A1249284603F0C0
:1072400041FBEDE7FFF7EAF90F4B0E4953F8202019
:10725000284603F037FB98F80810B8F8040091E7C7
:10726000074A009209490A4A284603F02BFB7FE7A8
:10727000E45D0300D85D0300A45D030044730300D4
:10728000CC5D0300D45D0300745D0300B45D0300B6
:10729000AC5D0300A05D0300985D0300E05D0300AA
:1072A000A85D030008B5FFF73FFE04210348FFF780
:1072B000B3FD034B01225A7108BD00BF18770300CC
:1072C0005C2D002007F0A0BE2DE9F041058ACE1C00
:1072D000043D2E440746B6FBF5F607F0B1FE78B341
:1072E000F6B24FF48073013E0446C5800760838088
:1072F00027D08046002509E06379AE4203F10103FF
:107300006371C8F80000076080461AD0384607F05D
:1073100097FE01350028EFD16679721E14D02346FE
:10732000013082421B68FBD11F684EB100252368E3
:107330002146013538461C4607F0AAFEAE42F6D17A
:1073400000242046BDE8F0812768EFE704300121E2
:1073500008F078B8F8B501210446043008F07EF84A
:10736000C0B200B1F8BD6679721E12D0234601305A
:1073700082421B68FBD11F68002EF3D000252368D2
:107380002146013538461C4607F082FEAE42F6D152
:10739000F8BD2768F2E700BF2DE9F843C7884679B2
:1073A00007FB06F6043E02EB030C0446664503F1B8
:1073B000040015468846B0FBF7F238BFF51A07FB04
:1073C000120012B1013A2468FCD13E1AAE4228BF25
:1073D0002E469DB14FF000090430AD1B20443246CB
:1073E00008EB09010BF0E1FDAF42B14424683E46D1
:1073F0004FF0000028BF2E46002DEDD1BDE8F883E8
:107400002DE9F843C7884679154607FB06F6043E82
:1074100005EB030C1A1D664504468846B2FBF7F0DF
:1074200038BFF51A07FB102110B101382468FCD1D0
:107430007E1AAE4228BF2E469DB14FF0000904319E
:107440002144AD1B324608EB09000BF0AEFDAF4204
:10745000B14424683E464FF0000128BF2E46002D5F
:10746000EDD1BDE8F88300BF826800239360826895
:107470001361826853618268D36082685360826856
:1074800013607047A8DF7047AEDF7047B0DF70470A
:1074900062DF70473CDF70473DDF7047054A064BAF
:1074A00006499B1ADB081B04024643F00400FFF761
:1074B00079BA00BF5076030088760300C45E0300EB
:1074C000F0B170B50388502B84B0044650D00CD86E
:1074D000102B16D0112B11D1384B81889A889142EC
:1074E0000CD14FF6FF729A8008E0512B0ED0532B2F
:1074F00004D1324DC288EB889A4251D004B070BD9D
:1075000070472E4B82889A8004B070BD2B4D8288C4
:10751000AB889A42F2D18679022EEFD10289EB88AC
:107520009A42EBD1837B043B022BE7D968461022B9
:1075300000210BF045FD2B7E8DF80060002B3AD02A
:107540009DF8063043F001038DF806300023ADF8B6
:1075500004306946A888FFF799FF1128F9D0BDF8D3
:107560000430002BCAD104F1080000F043F9C5E74C
:10757000124DC2886B899A42C0D1038A022BBDD1B9
:10758000123006F04BFD0E4B0E4902460E482A768D
:107590001B1ADB081B0443F00300FFF703FAADE7F7
:1075A0006B7E002BAAD000F08FF90028A6D06B6963
:1075B00002209847A2E740F2FD13C8E7703500208B
:1075C00088760300A45E03005076030070B586B091
:1075D00005460C461022002102A80BF0F1FC124BCC
:1075E0008DF80550DA8898888DF806400323022527
:1075F00020260024ADF80820ADF802300DEB05027E
:1076000001AB02A98DF804608DF80A50ADF80C406A
:10761000CDE90423FFF738FF20B9BDF80230032B72
:1076200018BF0C2006B070BD70350020114B1248F9
:107630001249C01AC008000410B540F00400FFF75A
:1076400003F84FF0FF310020FFF726FF044608B192
:10765000204610BDB121FFF71DFF04460028F7D1D9
:10766000074B01205B699847022000F091F9204602
:1076700010BD00BF5076030088760300705E0300E3
:107680007035002030B51B4B05460FCB87B002ACE0
:1076900084E80F0055B3184B4FF6FF729A802A68A2
:1076A0005A61002159761976EAB1134800F05EF864
:1076B00008B107B030BD06A94FF6596321F8143D53
:1076C000012318460D4A8DF80630FFF7DBFE00282F
:1076D000EFD120460849FFF7DBFE0028E9D1064834
:1076E00000F05EF8E5E7064A5A61DEE70E2007B0D3
:1076F00030BD00BF605E0300703500207235002091
:107700009D7402004FF0030C00DF704715490B68B1
:107710003BB34B682BB310B50831984708281FD0EE
:10772000114C236880B100229A7606210220FFF7CF
:107730004DFF18B1236803205B6998472368022036
:107740005B69BDE810401847987601210220FFF7D9
:107750003DFF28B1236803205B69BDE8104018474E
:1077600010BD7047AC350020A8350020034618B185
:10777000024A0020136070470E207047A835002091
:1077800008B500F0AFF800B108BD0448FFF7BAFF34
:107790000028F9D1BDE8084000F0D6B8AC3500208B
:1077A00030B589B005462022684600210BF008FC60
:1077B0002A469DF80D4012F8063B8DF8023044F041
:1077C000280401238DF80D4068888DF81030694633
:1077D00003251724ADF800508DF80C308DF81330C8
:1077E0008DF812308DF81130ADF8044006F01AFC17
:1077F00009B030BD70B50546007B012817D00228BE
:107800000ED02B4C0221FFF7E1FE18B123680320B4
:107810005B699847236802205B69BDE870401847A0
:107820006A7B531E132B1DD9214C0521EBE7204CFD
:1078300023689E7E66B958760146FFF7C7FE00288A
:1078400034D0236811285E76287B2AD10621DAE716
:107850000621FFF7BBFE48B3236803205B69BDE840
:1078600070401847134E124C301D05F10E010BF0FD
:107870009CFB6A7B2368B2619B7E8BB90E493046C4
:1078800051F8083B984770B10F2809D10B480C4BB1
:107890000C49C01AC008000440F00100FEF7D4FEF5
:1078A000287B0421AFE7236801229A7670BD00BFD0
:1078B000A83500208C350020AC35002088760300E8
:1078C00050760300EC5E030008B5044B1B680020F3
:1078D0005B699847BDE80840FFF7A8BEA8350020BF
:1078E00013DF704738B5134B134C4FF01025E41AD3
:1078F0006B69E40801334FEA044413D06A690F4905
:1079000044F00300FFF74EF86869FFF7E9FF05460A
:1079100008B9284638BD44F001000949FEF794FE35
:10792000284638BD44F0010006490425FEF78CFEC8
:10793000284638BD5076030088760300BC5F0300FC
:10794000E85F03001C60030038B50B4B0B4C0C4A7E
:107950000C49E41AE408240444F00300FFF722F879
:107960000748FFF7BDFF054620B144F00100064976
:10797000FEF76AFE284638BD50760300887603007D
:107980000060020034600300E85F030033DF7047EB
:10799000F8B5264D06460121284607F019FDBFF32C
:1079A0005F8FD0B9042E2FD0214B1A7892B9214C79
:1079B000012226701A70204E73687BB1374604E0AE
:1079C000384606F01BFF736843B11B682078984760
:1079D0000028F5D1BFF35F8F2860F8BDFFF750FA9C
:1079E000FFF70EFA0028FBD12378023B012B0DD9BB
:1079F00008F024FDB8B94FF080430122C3F80025F8
:107A0000BFF34F8F20BFFDE70A4CD4E7BFF34F8F82
:107A10000A490B4BCA6802F4E0621343CB60BFF320
:107A20004F8F00BFFDE7FFF7B1FFE4E7C43500204B
:107A3000C1350020C0350020B835002000ED00E041
:107A40000400FA0533DF70476DDF704776DF70475B
:107A50007ADF70477CDF70477FDF704790DF7047C9
:107A6000B0DF7047B1DF704766DF704770B5124B0B
:107A7000124D134C4A881B88641BE4089A42054641
:107A80004FEA044408D044F004002B886A880D496A
:107A9000BDE87040FFF706B80A8840F677239A429F
:107AA000F1D18B880849033B9BB21A4644F003008E
:107AB000FEF7F8FFE7E700BF682D002050760300CF
:107AC000887603000C620300F061030007F08CBAB3
:107AD00008B5032104480AF0A1FD00B908BDBDE8BE
:107AE000084007F081BA00BFC835002010B50388F0
:107AF000013B84B00446552B3FD8DFE803F0783EC5
:107B00003E3E3E3E3E3E3E3E3E3E3E3E3E2B7F3E67
:107B1000953E3E3E3E3E3E3E3E3E3E3E3E3E3E3E2E
:107B20004A3E3E3E3E3E3E3E3E3E3E3E3E3E3E3E69
:107B30003E3E3E3E3E3E3E3E403E3E3E3E3E3E3E63
:107B40003E3E3E3E3E3E3E3E3E3E3E3E3E3E576E0C
:107B50003E3E3E40394B3A483A49C01AC0080004FC
:107B600040F00300FEF770FD072007F0CDFD08B1DF
:107B700007F03AFA344BA2881A8004B010BD80880E
:107B80001321FFF763FF0028F7D007F02DFA04B0A8
:107B900010BD0822002168460BF012FA6946A08841
:107BA0000022FFF75BFF0028E7D0EEE78379002B88
:107BB000E3D0827B043A022ADFD8022B18BF0123CC
:107BC0008DF8003080884FF4C1736946ADF80430F9
:107BD000FFF746FF0028D0D0D7E71B4A00231088C4
:107BE00019461A46FFF73EFF0028C6D0CDE7808829
:107BF0000021FFF739FF0028BFD0C6E70F4B104820
:107C00001249C01AC008000440F00300FEF71CFD32
:107C1000002007F079FD08B107F0E6F90A4B4FF6AE
:107C2000FF721A8004B010BD074A00231088852116
:107C30001A46FFF711FF00289FD0A6E750760300F1
:107C4000887603006C610300682D002078610300D2
:107C500030B5264B264A9B1ADB088DB01B0403283F
:107C60003CD8DFE800F01710090243F00100214979
:107C7000FEF7EAFC0DB030BD43F001001E49FEF7EF
:107C8000E3FC0DB030BD43F003001C49FEF7DCFC03
:107C90000DB030BD43F0030420461949FEF7D4FC73
:107CA00001A82C2200210BF08BF94FF44875012319
:107CB000B42201A913488DF808308DF80430CDE9BD
:107CC00005520AF079FE00210F480AF0ABFF0F4978
:107CD00002462046FEF766FE0DB030BD43F00100BF
:107CE0000B49FEF7B1FC0DB030BD00BF8876030034
:107CF0005076030014610300D8600300B4600300F1
:107D00006C600300C8350020E97D02009C60030020
:107D10004461030010B5037884B004460D2B0CD8E1
:107D2000DFE803F01F0B2B0B3E0B0D070B130B07AC
:107D30001707806808B107F057F904B010BD0AF0C2
:107D4000D7F830F00803F8D0F5E700690028F4D040
:107D5000F1E704A8002300F8043DFFF7B9FE04B0E2
:107D600010BD144B14481549C01AC008000440F057
:107D70000300FEF769FC04B010BD40880AF0C6FE9F
:107D80000C4A0D496388247A0094891AC9080904A9
:107D9000024641F003000A49FEF706FF04B010BD99
:107DA00004A9002301F8043D408806F02DF904B031
:107DB00010BD00BF50760300887603008462030084
:107DC000B062030008B5037803B108BD054B3B2141
:107DD0001888FFF73BFE0028F7D0BDE8084007F001
:107DE00003B900BF682D0020132110B50246FFF72C
:107DF0002DFE0A490A4BC91AC908090430B941F0D5
:107E00000400BDE810400749FEF7CCBD0346BDE8BD
:107E1000104041F002000449FEF744BE887603009A
:107E200050760300CC6103008861030038B5037805
:107E300003B138BD094B0A4C0A49E41AE40824048A
:107E4000054644F004042046FEF7FEFB2046AA8ABD
:107E50002969BDE83840FEF72FBF00BF5076030008
:107E6000887603006862030008B530B1032803D1A7
:107E7000022007F049FC50B908BD07F045FC50B995
:107E800008F05CFF68B9FFF7DDFD0028F4D0BDE81D
:107E9000084007F0A9B807F0A7F808F04FFF00283E
:107EA000F1D007F0A1F8EEE7FEE700BF08B50949F9
:107EB000094807F0E5FE48B9F721074807F0F8FE42
:107EC00000B908BDBDE8084007F08EB807F08CF88F
:107ED000F2E700BF6D7A02002038002008B54FF4A9
:107EE00000410020FEF750FB08B107F07DF8BDE827
:107EF0000840FFF7D7B900BF70B5B2B0FFF7EEFF8B
:107F000000F0FCFD954A13694FF0804143F00403F3
:107F100001201361C1F8780508F086F9002840F0C7
:107F2000F08032AC002344F8AC3D0120214608F03B
:107F300001FB002840F00F81204608F0D9FB002803
:107F400040F0068108F030F8002840F0FE80112350
:107F500003A88DF80830FFF777FD002840F0F28085
:107F60009DF80D109DF80E209DF80F30CDE90021F1
:107F700020467B4A7B490BF087FC20460BF0ACFC8B
:107F8000214682B202A8FFF765FD002840F0D780A5
:107F9000082205A800210BF013F8734A4FF0C873AC
:107FA00005A8CDE90523FFF753FD002840F0C48064
:107FB000FFF77CFF0021042205A80BF001F86B4BB2
:107FC0006B48059305A908F0F5FD002840F0B18045
:107FD00000230793FFF7D4FB002840F0A780654BF0
:107FE00007932046FFF74EFB002840F09C80AC2210
:107FF000002120460AF0E4FF00220220062101238E
:108000005D4E8DF81C004FF448758DF81E202A92A5
:108010008DF81F10594A5A48ADF8683021468DF83E
:1080200098301B96299530920AF07EFA002877D175
:10803000012153480AF074FA1C22002120460AF05C
:10804000BFFF00234FF420304E4A0793ADF82A308B
:108050008DF82C304C4B08904FF4702503212046AE
:1080600009958DF82810CDE90C2308F0C1FC0028F3
:1080700053D105F079FF00284CD10522002120467C
:108080000AF09EFF9DF81C309DF81F109DF82020DF
:1080900043F00103032003F0F10360F306136FF3D1
:1080A000C713204641F0030142F0030207251024C4
:1080B0008DF81C308DF81F108DF820208DF81D5084
:1080C0008DF81E4005F096FF08BB304805F076FF9E
:1080D000D0B906F0DFF80AF0F9FE00212C4808F0CC
:1080E00065F802220023CDE900232A492A484FF4EB
:1080F000007200F0E5FD00F0BBFF0F2006F074FFFA
:10810000FBE706F071FF0CE706F06EFFE1E706F013
:108110006BFFDAE706F068FFAFE706F065FFA8E758
:1081200006F062FF84E706F05FFF60E706F05CFFA1
:1081300055E706F059FF4BE706F056FF38E706F023
:1081400053FF25E706F050FF0AE706F04DFFFEE675
:1081500006F04AFFF6E606F047FFEDE600ED00E028
:10816000486203004C62030010003C002D7E0200B8
:108170006C2D0020517C0200642D0020697E0200DD
:10818000C8350020C57D0200CD7A0200157D0200B1
:10819000D17A020060620300892E0300054A137938
:1081A0002BB9012110605371184611717047852059
:1081B000704700BF38380020084B1A68D20706D431
:1081C0000122E02183F80013C3F880211A604FF0E8
:1081D00080430122C3F81825704700BF00E100E08A
:1081E00010B4094B094A0021196083B01B68019340
:1081F000019C4FF0804102200123C1F80403136069
:1082000003B05DF8044B70470401004008000040D3
:10821000044B01221A604FF08042D2F81834DB037D
:10822000FBD470470C00004010B5154B1A6882B0A3
:108230007AB10021134A19601B68507900934FF0FE
:1082400080410123009CC1F8083310B911685371B3
:1082500088470D4B1A6882B100221A601B6801938F
:108260004FF080420221074B0198C2F808131B68A7
:10827000012002B0BDE81040184702B010BD00BF99
:10828000000100403838002004010040F0B55A4B8E
:10829000D3F824218DB0BAB10022C3F82421D3F839
:1082A00024210592059AD3F804216AB9534A022180
:1082B0009068C3F8080391609268C3F80423012210
:1082C0001A625A610DB0F0BD4B4C4C4DD4F80431DC
:1082D000002B2ED00023C4F8043105F10C070FCF7A
:1082E00007AED4F804C13F68CDF810C00FC695F8AA
:1082F0002E30049A376095F83020002B33D02B7B3A
:10830000012B71D0D4F84C150891022B6FD1D4F801
:108310003C15394B09910021C3F86011D3F8600175
:1083200002900298C3F85C11D3F85C310393039B6D
:1083300026E0C4F84831D4F848212B7B0192019AF9
:10834000002B38D105F10C070FCF07AE0FC695F8FB
:1083500030203B683360DAB9294BC4F80022AA60A8
:10836000C4F8083314E0C4F86031D4F86011029105
:108370000299C4F85C31D4F85C310393039B3AB999
:108380001D4B1F480021C3F80012A960C3F8080361
:108390001949D1F8C434C1F8C43499071DD5012353
:1083A0008DF818300AB985F82F20D5E9003106A8D4
:1083B00098470DB0F0BD4FF4007140F20222104B0F
:1083C000C4F80012AA60C4F80833AB68C4F80433D8
:1083D0000123A36023620DB0F0BD13F0040318BFA6
:1083E00002238DF81830DDE7D4F83C350893024BB2
:1083F000D3F84C158DE700BF003000404038002016
:1084000002029C012DE9F047002388B0CDE9023338
:10841000CE4A1668012E00F03B821E46CC4B1A68ED
:10842000012A00F02782CB4B1A68012A00F014823F
:10843000C94B1A68012A00F00182C84B1A68012A48
:1084400000F0EE81C64B1A68012A00F0DB81C54BB3
:108450001A68012A00F0C881C34B1A68012A00F08B
:10846000B581C24B1A68012A0FD100221A601B681D
:1084700001934FF0A042019BD2F81025BC4B029211
:10848000D3F81035039346F0004616F0FF0F1AD0CC
:10849000B84F00240125A30003F180432E4203F5C9
:1084A000C0434FEA45050BD0D3F8100557F82420F8
:1084B000D3F81015C0F30520C1F3014102B1904774
:1084C0000134082CE7D1002E02DB08B0BDE8F087AC
:1084D000A84CA74F4FF0FF33CDE9063394F9603035
:1084E0000DF1100800225D1CC8F8042004924FF022
:1084F000010600F0F4805FFA83FC2CF0C00008ABAA
:108500004FEAD00903EB090E0CF007031EF8082C04
:1085100006FA03F312EA030521D022184FEA9C1150
:1085200092F9302054F82220002A00F029810329F2
:1085300000F028811F2800F2F98005464FF0A04C7A
:108540000CEB850C1EF8185CDCF800E71D40CEF340
:10855000014E40F0DF80BEF1030F00F0BF8194F9BF
:108560006130581C32D0DBB223F0C00008AA4FEAB9
:10857000D00E02EB0E0C03F007011CF8082C06FAD3
:1085800001F912EA090F21D02218990992F9302035
:1085900054F82220002A00F0FB80032900F0FB8021
:1085A0001F2800F2E98003464FF0A04E0EEB830334
:1085B0001CF818ECD3F800C71EEA090FCCF3014CE5
:1085C00040F0B880BCF1030F00F0AE8194F9623046
:1085D000591C30D0DBB223F0C00008AA4FEAD00EFD
:1085E00002EB0E0C03F007011CF8082C06FA01F947
:1085F00012EA090F1FD02218990992F9302054F875
:108600002220002A00F0D880032900F0D8801F28FB
:108610007CD803464FF0A04E0EEB83031CF818ECF9
:10862000D3F800C71EEA090FCCF3014C64D1BCF1AA
:10863000030F00F0658194F963305A1C34D0DBB22B
:1086400023F0C00008AA4FEAD00E02EB0E0C03F094
:1086500007021CF8081C06FA02F2114224D004EBAF
:108660000009990999F9309054F82990B9F1000F4F
:1086700000F09880032900F098801F288BBFBE4629
:108680004FF0A04E03F01F0303460EEB83031CF8CC
:1086900018ECD3F800C71EEA020FCCF3014C20D12E
:1086A000BCF1030F00F00181002D3FF40EAF4FF03D
:1086B000A0430299D3F81035D7F81025994203D179
:1086C000039991423FF401AFDDE90401CDE90232A3
:1086D00094F960305D1CCDE906017FF40CAF0025F4
:1086E0003DE7BCF1020FDFD1032900F03481B9F17D
:1086F000000F40F0F180D7E7BCF1020F9BD10329B6
:1087000000F02681002A96D0904794E703F01F03DB
:10871000BE4681E7BEF1020FE1D1032900F02181BD
:108720000025002A3FF41BAF904718E70CF01F0507
:10873000BC4605E7BCF1020F7FF448AF032900F007
:108740000D81002A3FF442AF90473FE700610040AF
:1087500004610040086100400C610040106100406D
:1087600014610040186100401C6100407C610040C1
:10877000000300507438002003F01F03BE4615E7C5
:108780000329ACD118F809501D4308F80950D1E667
:1087900003297FF41BAF18F80EA04AEA090A08F86B
:1087A0000EA0FDE603297FF47FAF18F80EA04AEA79
:1087B000020A08F80EA060E703297FF43CAF18F81E
:1087C0000EA04AEA090A08F80EA020E7664AD2F885
:1087D000042317067FF545AE00221A601B6800933C
:1087E000009B46F080063CE65F4AD2F8042352061E
:1087F0007FF532AE00221A601B680093009B46F0A2
:10880000400629E6584AD2F8042391067FF51FAEA8
:1088100000221A601B680093009B46F0200616E6B3
:10882000514AD2F80423D0067FF50CAE00221A601C
:108830001B680093009B46F0100603E64A4AD2F8F4
:10884000042314077FF5F9AD00221A601B6800931A
:10885000009B46F00806F0E5434AD2F8042355078A
:108860007FF5E6AD00221A601B680093009B46F07E
:108870000406DDE53C4AD2F8042397077FF5D3AD23
:1088800000221A601B680093009B46F00206CAE5AE
:108890003549D1F8041311F0010104D013601368B5
:1088A0000093009BBAE50E46B8E503297FF41FAF9D
:1088B0004FF4003CD3F8002722F44032C3F80027DD
:1088C000D3F80027013542EA0C02EDB2C3F80027C5
:1088D000B9F1000F3FF4EBAEC847E5E603297FF49A
:1088E00020AF4FF40035DCF8003723F44033CCF8E8
:1088F0000037DCF800372B43CCF80037012510E7B0
:1089000003297FF4FFAE4FF4003ED3F800C72CF4E8
:10891000403CC3F800C7D3F800C701354EEA0C0C41
:10892000EDB2C3F800C7EDE603297FF40AAF4FF4B8
:10893000003ED3F800C72CF4403CC3F800C7D3F87E
:1089400000C701354EEA0C0CEDB2C3F800C7F8E6DB
:108950004FF4403ED9E74FF4403CABE74FF4403E84
:10896000E7E74FF44035BEE7006000404FF040239A
:10897000D3F8182102B970470021174AC3F818111B
:10898000D3F81811D37F82B0FF2B019101990DD03C
:10899000917F99B11F2B86BF03F01F030F484FF043
:1089A000A040012101FA03F3C0F80C3500235377EE
:1089B0001372D2E900310A4802B018471F2B86BF54
:1089C00003F01F0305484FF0A040012101FA03F313
:1089D000C0F80835EAE700BFE03800200003005087
:1089E000E8380020014B1B68184700BF04390020FD
:1089F00010B570B101280BD10D4C2369A0703BB1AB
:108A0000D3E900230120226198472369002BF7D185
:108A100010BD074CA36801226270002BF8D0D3E987
:108A200000230020A2609847A368002BF7D1EFE74E
:108A30000C39002070B910B5074CA3680122627090
:108A40003BB1D3E900230020A2609847A368002B24
:108A5000F7D110BD704700BF0C39002030B5012898
:108A600083B01CD015D3032811D1FFF7A5FB02A8B2
:108A700000231F4C00F8013D06F026FBE368013B94
:108A8000E360E56865B39DF8070006F043FB03B0BB
:108A900030BD184B0122C3F8802003B030BD02A8BE
:108AA0000023134C00F8013D06F00EFB237853B170
:108AB000E3689DF8070001330122E360A27006F02D
:108AC00029FB03B030BD0C486360A3602361E36001
:108AD000FFF764FB07F0B2FC30B101232370E7E736
:108AE000FFF796FBA570CEE7FFF766FBF5E700BF43
:108AF0000C39002000E100E0F189020038B50C4C8F
:108B0000237873B90B486360A3602361E360FFF7C8
:108B100045FB054607F092FC30B10123237028463F
:108B200038BD8525284638BDFFF746FBF5E700BF71
:108B30000C390020F189020030B5194CA37883B0BC
:108B4000054693B110B143680120984702A800235D
:108B500000F8013D06F0B8FAE3689DF8070001331C
:108B6000E36006F0D7FA03B030BD02A803F0FF02BD
:108B700000F8012D06F0A8FA65B1226942B19542CC
:108B800008D0134601E09D4204D01B68002BFAD1A7
:108B90002A602561E368002BDED1FFF721FBDBE7CC
:108BA0000C3900200748006880F3088862B661B677
:108BB000BFF34F8FBFF36F8F4FF4F07080F31188C6
:108BC00000DF00BF00600200064B19680868B0E8CB
:108BD000F04F80F30988BFF36F8F4FF0000080F3F0
:108BE0001188704720390020EFF30980BFF36F8FA1
:108BF000144B1A681EF0100F08BF20ED108A20E9F0
:108C0000F04F10604DF8043D4FF0C00080F3118824
:108C1000BFF34F8FBFF36F8F00F0ACFC4FF000003D
:108C200080F3118808BC19680868B0E8F04F1EF09E
:108C3000100F08BFB0EC108A80F30988BFF36F8F64
:108C4000704700BF2039002080B5184D184F194ECD
:108C5000DFF86480DFF864A04FF0805914E001F081
:108C600011FEFB68DC68201D00F05AFE3368013BF2
:108C700033602B68013B2B6001F00EFE206B01F08E
:108C800067FD204601F064FD2B68002BE7D1D8F882
:108C90000030012B06D9CAF8049040BFBFF34F8FB4
:108CA000BFF36F8FFFF700F9EEE700BF6C390020CC
:108CB000E0390020683900202C39002000ED00E068
:108CC0002DE9F84F4FEA82080646404689461F467E
:108CD0000B9D01F011FD002800F0C3808246582052
:108CE00001F00AFD0446002800F092804246C0F8D8
:108CF00030A0A52150460AF063F9236BA8F10408BF
:108D0000984428F0070809F1FF3309F1130104F131
:108D1000330201E08B4206D013F8010F02F8010F75
:108D200018780028F6D10A9B022B28BF02234FF0A7
:108D3000000B04F1040AE362A364504684F847B0D0
:108D4000C4F84CB0994600F0C1FD04F1180000F0E1
:108D5000BDFDC9F10303C4F850B0A361246184F8D8
:108D600054B064623A463146404601F04FFD2060FF
:108D700005B12C6001F086FD3B4A3C4F136801337E
:108D800013603B68002B3BD0DFF81481E36AD8F80E
:108D900000207AB3364ADFF80CC11668DCF800E030
:108DA000344801252E44166005FA03F203EB8303D1
:108DB00042EA0E0200EB83005146CCF8002000F09E
:108DC00089FD01F069FDD8F8003083B13A68E36AA3
:108DD000D26A9A420BD2284B4FF080525A6040BF61
:108DE000BFF34F8FBFF36F8F2846BDE8F88F28463B
:108DF000BDE8F88F3A68D26A9A4298BF3C60C9E7EA
:108E00003C601368012B0AD0E36ADFF89480C1E765
:108E1000504601F09DFC4FF0FF30BDE8F88F15483B
:108E2000164E174DDFF8788000F044FD154800F02D
:108E300041FD154800F03EFD304600F03BFD284660
:108E400000F038FD114800F035FD114800F032FD0A
:108E5000104800F02FFD104B104A16601D60E36AA9
:108E600098E74FF0FF30C3E7683900202039002031
:108E7000783900202C39002000ED00E080390020F6
:108E8000943900204039002054390020B4390020A2
:108E9000E0390020CC390020283900202439002076
:108EA000C83900207C39002070B504463E4E01F0E0
:108EB000E9FC002C4BD0251D284600F031FD30B9CF
:108EC000E26A3A4902EB82039B00CB584BB3A36A98
:108ED0001BB104F1180000F023FD29463448354D3C
:108EE00000F0F8FC94F85430012B04BF002384F800
:108EF000543001F0D1FC2B68E3B93368A34200D0B1
:108F000070BD2B682BBB2A492B4A09681268914215
:108F100047D02A4B1B68002B2CD0294B01221A600A
:108F200070BD28480121036801FA02F223EA020217
:108F30000260CCE701F0A6FC234B1A68126892B9D4
:108F4000224B4FF0FF321A6001F0A6FCD5E73468DF
:108F5000B1E71F4B4FF080525A6040BFBFF34F8FB5
:108F6000BFF36F8F70BD1A68184BD268D268526811
:108F70001A60E9E71249134A0B6013680B4AB3FA07
:108F800083F3C3F11F0303EB83039B00D018083363
:108F90004168496841601344994204BF496841608F
:108FA000CB68336070BD00BF203900202C39002011
:108FB000CC390020C83900206839002074390020DD
:108FC000F83900207C39002024390020AC390020F9
:108FD00000ED00E02DE9F041EFF31186C02383F3AB
:108FE00011881D4B42699A4205D0002486F31188EE
:108FF0002046BDE8F081846A184B9C42F5D0002CD5
:10900000F3D1174A1268054602BB164BC46A1B68A7
:10901000154FDB6A00F104089C42404634BF00242F
:10902000012400F07DFCEA6A10483D68012393406A
:1090300002EB82022B43414600EB82003B6000F0D2
:1090400049FC86F311882046BDE8F08100F1180143
:10905000184600F03FFCC9E7CC390020B4390020A5
:1090600074390020203900207C3900202C39002060
:109070002DE9F843F02001F03FFB002878D00546A9
:10908000582001F039FB0446002800F08F8005636A
:10909000F022A521284609F093FF206B574923466B
:1090A0004922EC3003F8342F20F0070604F1470082
:1090B000984205D011F8012F03F8012F002AF7D1AB
:1090C000002504F10408404684F84750E562C4E9ED
:1090D000125500F0FBFB04F1180000F0F7FB03232E
:1090E0002A4625653046A3614549246184F85450D9
:1090F000646201F08BFB434B20601C6001F0C2FBFB
:10910000414A424E1368013313603368002B46D046
:109110003F4FE36A3A686AB33E4ADFF82CC11568EC
:10912000DCF800E03C480135156001229A4003EB71
:10913000830342EA0E0200EB83004146CCF8002094
:1091400000F0C8FB01F0A8FB3B686BB13268E36A32
:10915000D26A9A4208D2314B4FF080525A6040BFD7
:10916000BFF34F8FBFF36F8F01F0F4F9012807D0E1
:10917000BDE8F8833268D26A9A4298BF3460CBE780
:10918000C02383F31188264B26494FF0FF34002279
:109190000C6038601A60BDE8F84301F04DBB3460E4
:1091A0001368012B07D0E36A194FB5E72846BDE8DD
:1091B000F84301F0CDBA1848DFF890901A4D144FDB
:1091C00000F078FB194800F075FB194800F072FBBD
:1091D000484600F06FFB284600F06CFB154800F095
:1091E00069FB154800F066FB144800F063FB144B64
:1091F000144AC2F800901D60E36A8DE72C630300F7
:10920000498C0200A839002068390020203900204C
:10921000C8390020783900202C39002000ED00E00A
:10922000F4390020AC390020943900204039002066
:1092300054390020B4390020E0390020CC39002016
:1092400028390020243900207C3900208039002072
:10925000024A136801331360704700BF743900205D
:10926000014B1868704700BFF4390020014B1868A3
:10927000704700BFF43900202DE9F04F454B1B68C3
:1092800083B0D3B9444B1E6801361E601EB3434BF6
:1092900001931B68B34236D9DFF81C81DFF81C91BB
:1092A0000024D9F80030DB6A03EB83039B0058F8F5
:1092B0000330022B28BF012404E0394A136801332C
:1092C00013600024374B1B68002B0CBF2046012085
:1092D00003B0BDE8F08F344D344B2968344A186828
:1092E000286019601368013313602B681B68002B1A
:1092F00044D12A4B01931A464FF0FF3313601346B3
:109300001B68B342C8D8284DDFF8AC80DFF8AC90BA
:10931000284F002429E02B68DB68D3F80CB0DBF879
:1093200004200BF1040A9642504630D300F0F8FABC
:10933000DBF828200BF118000AB100F0F1FADBF895
:109340002C003B680122824000EB80001A4351460A
:1093500008EB80003A6000F0BDFAD9F80010DBF8A5
:109360002C20CB6A9A4228BF01242B681B68002B53
:10937000D1D1019A4FF0FF33136092E72B68074A6F
:10938000DB680192DB685B681360134681E7019B31
:109390001A6086E774390020F4390020AC390020C7
:1093A00070390020F83900202439002028390020A5
:1093B000B03900207C3900202C39002020390020D1
:1093C0002DE9F84F01F05EFA384B1A68013A1A603D
:1093D0001C68002C5CD1364B1B68002B58D0DFF882
:1093E000E8A0DFF8E8B0334FDFF8E490DFF8E4807E
:1093F000DBF80030012623B3DBF80C30DC68251DD8
:1094000004F1180000F08CFA284600F089FAE06AAE
:109410003A6806FA00F300EB80001343294609EB93
:1094200080003B6000F056FAD8F80030E26ADB6A50
:109430009A42DDD3CAF80060DBF800300126002B29
:10944000DAD13CB11C4B1A6812683ABB1B4B4FF087
:10945000FF321A601A4D2C6844B10126FFF70CFF49
:1094600008B1CAF80060013CF8D12C60DAF800308D
:1094700073B1144B4FF080525A6040BFBFF34F8F0F
:10948000BFF36F8F012401F007FA2046BDE8F88F83
:10949000002401F001FA2046BDE8F88F1A68074B56
:1094A000D268D26852681A60D4E700BF74390020CD
:1094B000683900207C39002024390020AC39002094
:1094C0007039002000ED00E0F8390020B4390020A8
:1094D0002C3900202039002070B548B91D4B4FF0C1
:1094E00080525A6040BFBFF34F8FBFF36F8F70BD84
:1094F000194A1A4913681A4D0133136004460E685D
:109500002868043000F00CFA40B92B681549D86A75
:109510000B680122824023EA02030B602B68A41926
:109520005C600FD2104B18682968043100F0DEF936
:109530000E4B1A68944238BF1C60FFF741FF0028A9
:10954000CCD070BD0A4B18682968043100F0CEF900
:10955000F3E700BF00ED00E074390020F43900208B
:10956000203900207C39002024390020AC3900202B
:1095700028390020104B1B68CBB91049104A0B60EA
:109580001368104AB3FA83F3C3F11F0303EB830399
:109590009B00D018083341684968416013449942E0
:1095A00004BF49684160084BCA681A607047034BA2
:1095B00001221A60704700BF74390020F83900207A
:1095C0007C3900202C3900202039002070B51C4D3A
:1095D0002B680C4603F1180100F088F9194B1E683E
:1095E0002868043000F09CF940B92B681649D86A05
:1095F0000B680122824023EA02030B60631C17D030
:109600002B68A4195C600BD2104B186829680431D0
:1096100000F06CF90E4B1A68944238BF1C6070BDA4
:109620000C4B18682968BDE87040043100F05EB941
:10963000296809480431BDE8704000F04BB900BF0B
:1096400020390020F43900207C3900202439002002
:10965000AC39002028390020CC390020F8B5234D42
:109660002B680C4603F11801174600F033F9204B24
:109670001E682868043047B300F052F9F0B94FF083
:10968000FF342B681B49D86A0B680122824023EA09
:1096900002030B60631C0FD02B6834195C601CD272
:1096A000154B18682968043100F020F9134B1A682B
:1096B000944200D21C60F8BD002FEDD029681048FC
:1096C0000431BDE8F84000F005B900F029F90028A0
:1096D000D7D02B6834195C60E2D30A4B186829682C
:1096E000BDE8F840043100F001B900BF2039002086
:1096F000F43900207C39002024390020AC390020C6
:10970000CC39002028390020F8B5C368DC6804F1A2
:109710001805284600F004F9124B1B68EBB9261D0A
:10972000114D304600F0FCF8E26A2F680F48012323
:10973000934002EB82023B43314600EB82002B60F8
:1097400000F0C8F80A4BE26A1B68DB6A9A4283BFE2
:10975000084B012018600020F8BD2946064800F09B
:10976000B9F8EFE7743900207C3900202C3900204B
:1097700020390020F8390020B4390020034A044B76
:1097800012681B68C0E90023704700BFB039002091
:10979000F4390020F8B50D46044601F073F82B6843
:1097A0001649581C0A6813D0DFF854C0D4E9006089
:1097B000DCF80070BE4201D090421AD9121A9342CE
:1097C0000BD800232B60012501F066F82846F8BD70
:1097D000002501F061F82846F8BDDCF800009B1A6E
:1097E0000A682B60C4E90002002501F055F82846FC
:1097F000F8BD012501F050F82846F8BDF4390020E5
:10980000B0390020014B01221A607047F83900205E
:10981000054B1B6833B1054B1B68002B0CBF0220A6
:109820000020704701207047C8390020743900209B
:1098300050B1F8B5C36CC16A826C013B9142C364FC
:1098400000D01BB10020F8BD00207047071D044662
:10985000384600F065F8C0B11448154EA36CD6F830
:1098600000E0E3620125C3F1030C05FA03F203EB08
:10987000830342EA0E0200EB83003946C4F818C0A5
:10988000326000F027F82846F8BDE26A0748084E23
:1098900002EB82039B00C358002BDFD13368012108
:1098A00001FA02F223EA02023260D7E72C390020E3
:1098B0007C39002000F108034FF0FF310022816065
:1098C00002604360C0E90333704700BF00230361B7
:1098D000704700BF43684B609A688A609A6851601D
:1098E00099600861036801330360704730B40D6804
:1098F0006B1C11D000F1080200E01A4653681C6886
:10990000AC42FAD94B6099608A6051600861036883
:109910000133036030BC704702695368F2E700BF4F
:10992000D0E9012103699160D0E9011251605A68C0
:10993000824204BF82685A60002202611A68013ABA
:109940001A601868704700BF70B506460D4651B1E1
:1099500000FB01F0483000F0CFFE044658B300F1A0
:109960004803036005E0482000F0C6FE044610B33B
:109970002460C4E90F6500F085FFD4E90F13226865
:10998000A26001FB03F1CB1A134400200A44FF211B
:10999000A063E36084F84410626084F8451004F129
:1099A0001000FFF787FF04F12400FFF783FF00F0AA
:1099B00073FF204670BD0024204670BD2DE9F04F96
:1099C000044685B01D460192884600F05BFFA26BFD
:1099D000E36BA84F4FF000099A424E46C0F08B80CF
:1099E000022D00F006810198002800F03081B9F1C5
:1099F000000F00F0958000F04FFFFFF729FC00F00A
:109A000041FF94F84430FF2B08BF84F8446094F879
:109A10004530FF2B08BF84F8456000F03DFF01A9E9
:109A200002A8FFF7B7FE002840F0188100F02AFFD7
:109A3000A26BE36B9A4277D000F02EFF00F022FF7A
:109A400094F845304FFA83FABAF1000F1ADD636AD1
:109A5000C3B104F1240907E00AF1FF33DBB24FFA86
:109A600083FA7BB1636A6BB14846FFF74DFE00286D
:109A7000F2D0FFF7C7FE0AF1FF33DBB24FFA83FAE9
:109A8000002BEFD1FF2384F8453000F005FF00F0F4
:109A9000F9FE94F844304FFA83FABAF1000F1ADD58
:109AA0002369C3B104F1100907E00AF1FF33DBB207
:109AB0004FFA83FA7BB123696BB14846FFF724FE66
:109AC0000028F2D0FFF79EFE0AF1FF33DBB24FFA17
:109AD00083FA002BEFD1FF2384F8443000F0DCFE42
:109AE000FFF76EFC00F0CEFEA26BE36B9A424FF0E4
:109AF0000109BFF475AF226CA66B002A40F0FC8010
:109B000025680136002D00F01881A663636A002BDA
:109B100040F08C8000F0C0FE012005B0BDE8F08F61
:109B200002A8FFF72BFE66E704F1100900F0B4FE6F
:109B300048460199FFF74AFD00F0A4FE94F845A0BD
:109B40004FFA8AFABAF1000F1CDD636AD3B104F14F
:109B5000240B08E00AF1FF3A5FFA8AF34FFA83FA1E
:109B600083B1636A73B15846FFF7CEFD0028F1D088
:109B70000AF1FF3AFFF746FE5FFA8AF34FFA83FADB
:109B8000002BEED1FF2384F8453000F085FE00F075
:109B900079FE94F844304FFA83FABAF1000F06DCEC
:109BA00015E00AF1FF33DBB24FFA83FA7BB1236988
:109BB0006BB14846FFF7A8FD0028F2D0FFF722FE60
:109BC0000AF1FF33DBB24FFA83FA002BEFD1FF2308
:109BD00084F8443000F060FEFFF7F2FB002881D1EA
:109BE0004FF080537B6040BFBFF34F8FBFF36F8F49
:109BF00078E7226CA66B002A82D04146E06809F023
:109C0000D4F9236CE26821685B421A448A42E2601C
:109C100080F0898062681344E360022D00F0838045
:109C20000136A663636A002B3FF474AF04F124008D
:109C3000FFF76AFD00283FF46DAF0E4B4FF08052E6
:109C40005A6040BFBFF34F8FBFF36F8F62E7009042
:109C500000F022FE009805B0BDE8F08F00F012FE83
:109C600094F845506DB2002D18DD636AB3B104F16C
:109C7000240607E000ED00E0013DEBB25DB26BB100
:109C8000636A5BB13046FFF73FFD0028F4D0013D29
:109C9000FFF7B8FDEBB25DB2002BF1D1FF2384F8E2
:109CA000453000F0F9FD00F0EDFD94F844506DB240
:109CB000002D16DD2369A3B104F1100605E0013D76
:109CC000EBB25DB26BB123695BB13046FFF71CFDAF
:109CD0000028F4D0013DFFF795FDEBB25DB2002BFB
:109CE000F1D1FF2384F8443000F0D6FDFFF768FB84
:109CF000002005B0BDE8F08F41465DBBA06809F0CB
:109D000054F9A368216C62680B44934206F1010682
:109D1000A360FFF4FAAEA663636A2268A260002B18
:109D20003FF4F8AE82E7002E7FF4EFAE0123A36389
:109D3000636A002B3FF4EEAE78E76068FFF778FDCA
:109D4000A663636A6560002B7FF470AF00287FF420
:109D500074AFDFE6E06809F028F9236CE268216857
:109D60005B421A448A42E260BFF457AF52E700BF39
:109D70002DE9F0418C4682B004461746EFF3118678
:109D8000C02282F31188806BE26B904221D3022BB8
:109D900005D0002086F3118802B0BDE8F08194F868
:109DA0004550226CD4F838806DB252BB236808F15C
:109DB0000108002B4FD06B1CC4F8388037D0013518
:109DC0006DB284F84550012086F3118802B0BDE8D9
:109DD000F08194F84550226CD4F838806DB2002A96
:109DE000E4D073B9A06809F0E0F8A368216C626858
:109DF0000B44934208F10108A360DCD32368A360FD
:109E0000D9E76146E068019309F0CFF8206CE26879
:109E10002168019B404202448A42E26002D26268A9
:109E20001044E060022B10D008F10108C3E7636A18
:109E3000002BC8D004F12400FFF766FC0028C2D034
:109E4000002FC0D001203860A4E7B8F1000F08BF90
:109E50004FF00108AFE760680193FFF7E9FC019B51
:109E60006360A8E72DE9F047044684B08846019274
:109E700000F008FDD4F83890B9F1000F40F093805D
:109E8000019B002B00F00A8102A8FFF777FCB34F7B
:109E90004E4604F1240500F0FFFCFFF7D9F900F06D
:109EA000F1FC94F84430FF2B08BF84F8446094F828
:109EB0004530FF2B08BF84F8456000F0EDFC01A998
:109EC00002A8FFF767FC002840F0878000F0DAFC6A
:109ED000A36B002B40F0E88000F0DEFC01992846DF
:109EE000FFF774FB00F0CEFC94F845304FFA83F98D
:109EF000B9F1000F06DC15E009F1FF33DBB24FFAD0
:109F000083F97BB1636A6BB12846FFF7FDFB00283C
:109F1000F2D0FFF777FC09F1FF33DBB24FFA83F998
:109F2000002BEFD1FF2384F8453000F0B5FC00F0A2
:109F3000A9FC94F844304FFA83FABAF1000F1ADD05
:109F40002369C3B104F1100907E00AF1FF33DBB262
:109F50004FFA83FA7BB123696BB14846FFF7D4FB14
:109F60000028F2D0FFF74EFC0AF1FF33DBB24FFAC4
:109F700083FA002BEFD1FF2384F8443000F08CFCEF
:109F8000FFF71EFA00287ED14FF080537B6040BF60
:109F9000BFF34F8FBFF36F8F00F074FCD4F838908D
:109FA000B9F1000F76D0226C52B1E16863681144B8
:109FB0009942E16024BF2168E160404608F0F5FF66
:109FC00009F1FF33A3632369002B40F0C98000F03F
:109FD00063FC012004B0BDE8F08700F053FC94F866
:109FE00045304FFA83F9B9F1000F06DC15E009F1AD
:109FF000FF33DBB24FFA83F97BB1636A6BB128465A
:10A00000FFF782FB0028F2D0FFF7FCFB09F1FF33DA
:10A01000DBB24FFA83F9002BEFD1FF2384F84530F0
:10A0200000F03AFC00F02EFC94F844304FFA83FA2A
:10A03000BAF1000F1ADD2369C3B104F1100907E07A
:10A040000AF1FF33DBB24FFA83FA7BB123696BB1BC
:10A050004846FFF759FB0028F2D0FFF7D3FB0AF17F
:10A06000FF33DBB24FFA83FA002BEFD1FF2384F8E2
:10A07000443000F011FCFFF7A3F900F003FCA36BE0
:10A0800063B100F009FC00F0FDFBD4F83890B9F1A1
:10A09000000F88D1019B002B7FF4FDAE00F0FCFB8C
:10A0A000002004B0BDE8F08700F0F6FB00F0EAFB0A
:10A0B00094F845304FFA83F9B9F1000F06DC15E04A
:10A0C00009F1FF33DBB24FFA83F97BB1636A6BB1FD
:10A0D0002846FFF719FB0028F2D0FFF793FB09F1A0
:10A0E000FF33DBB24FFA83F9002BEFD1FF2384F863
:10A0F000453000F0D1FB00F0C5FB94F844304FFA36
:10A1000083FABAF1000F1ADD2369C3B104F1100913
:10A1100007E00AF1FF33DBB24FFA83FA7BB1236920
:10A120006BB14846FFF7F0FA0028F2D0FFF76AFB60
:10A130000AF1FF33DBB24FFA83FA002BEFD1FF2392
:10A1400084F8443000F0A8FBFFF73AF900F09AFBDE
:10A15000D4F83890B9F1000F9CD024E700ED00E06E
:10A1600004F11000FFF7D0FA00283FF430AF054BA0
:10A170004FF080525A6040BFBFF34F8FBFF36F8FD5
:10A1800025E700BF00ED00E0074B1A681AB19A6896
:10A1900002B17047012210B403EBC20443F832103D
:10A1A00060605DF8044B7047DC91002070B5054697
:10A1B0000C46164600F066FB95F84430FF2B04BFB2
:10A1C000002385F8443095F84530FF2B04BF002369
:10A1D00085F8453000F060FBAB6B2BB93246214669
:10A1E00005F12400FFF73AFA00F04CFB95F84540E2
:10A1F00064B2002C16DD6B6AA3B105F1240605E0FC
:10A20000013CE3B25CB26BB16B6A5BB13046FFF705
:10A210007BFA0028F4D0013CFFF7F4FAE3B25CB219
:10A22000002BF1D1FF2385F8453000F035FB00F01D
:10A2300029FB95F8444064B2002C16DD2B69A3B1CC
:10A2400005F1100605E0013CE3B25CB26BB12B698D
:10A250005BB13046FFF758FA0028F4D0013CFFF715
:10A26000D1FAE3B25CB2002BF1D1FF2385F8443080
:10A27000BDE8704000F010BB2DE9F04FAF4EDFF8A5
:10A28000CC82AF4D89B033681C68002C00F08C8004
:10A29000DB681C68FEF7DCFFFEF7E2FFD8F8003051
:10A2A000834207465BD88442C8F8000040F2C4806D
:10A2B0000022E11B2868FFF779FFFFF781F888B9D2
:10A2C000A04B4FF080525A6040BFBFF34F8FBFF397
:10A2D0006F8F07E0019B039920469847009B002B56
:10A2E00080F23681286800226946FFF7BBFD00280E
:10A2F000C9D0009B029C002BECDB636913B1201DCD
:10A30000FFF70EFBFEF7ACFFD8F80030984281460D
:10A3100041D3009BC8F80090092BE3D8012202FA30
:10A3200003F313F4047F40F0D38013F0C70F40F021
:10A33000A5809B06D6D5204600F00AFA2868D2E709
:10A34000DB68DC68D3F800A004F104094846FFF795
:10A35000E7FA636A20469847E369012B36D03368F1
:10A360001A68002AECD17849C8F800700A6832608F
:10A370000B60FFF725F8B5E7DB68DF68D3F800B0BE
:10A3800007F1040A5046FFF7CBFA7B6A3846984734
:10A39000FB69012B25D033681A68002AECD16A4981
:10A3A0000A6832600B60B4E7FEF752FFFEF758FF11
:10A3B000D8F8003098420746D1D3634BC8F80070F4
:10A3C0001B681A68B2FA82F2520972E7A369534411
:10A3D0009A45494610D2636024613068FFF786FAD7
:10A3E000BDE7BB695B449B45514615D27B603F612D
:10A3F0003068FFF77BFACEE72B68002BAFD0002345
:10A40000CDE9043A0694FFF703FA00231A4604A99B
:10A410002868FFF7D3FAA2E72B68002BBBD00023F4
:10A42000CDE9043B0697FFF7F3F900231A4604A988
:10A430002868FFF7C3FAAEE7FEF7C2FF3368DB68B0
:10A44000D3F80C9009F1040A5046FFF769FAD9F8DD
:10A450001C30012B04D0D9F824304846984741E7F6
:10A46000D9F81830C9F81090E218BA42C9F8042097
:10A470004AD951463068FFF739FAECE7019BA269E7
:10A48000246199182CBF012000204945616031D812
:10A49000A9EB03039A4226D8636A20469847E369EA
:10A4A000012B7FF41FAF019BA26928681344002889
:10A4B0003FF419AF0022CDE904230694FFF7A8F971
:10A4C00000231A4604A92868FFF778FA28680AE7E3
:10A4D000019B246103EB09024A45A36162600DD828
:10A4E000002B3FF4FFAE184B211D1868FFF7FEF953
:10A4F0002868F8E64B4501D90028CDD03068211DE9
:10A50000FFF7F4F92868EEE63F1BBB4210D82B6832
:10A51000002BA0D00023CDE90434CDF81890FFF72C
:10A5200077F900231A4604A92868FFF747FA92E74B
:10A53000054B51461868FFF7D9F98CE7FC39002024
:10A54000303A002000ED00E0003A00202C3A0020D4
:10A55000029CD2E6F0B5174C83B000F093F9256861
:10A560007DB100F099F9206848B1134B01930223A3
:10A5700000938022002311491148FEF7A1FB03B08C
:10A58000F0BD104F104E3846FFF794F93046FFF7F4
:10A5900091F90E4A0E4B176010212A4620201E60AA
:10A5A000FFF7D2F920600028DBD00A49FFF7ECFD65
:10A5B000D7E700BF303A0020343A00203C63030064
:10A5C00079A20200043A0020183A0020FC39002049
:10A5D000003A0020346303002DE9F04F804683B039
:10A5E00028200F4616461D4600F086F8044690B116
:10A5F000DFF8749000F046F9D9F800207AB100F045
:10A600004BF90C9BC4F80080C4E9067625626362AE
:10A61000201DFFF75BF9204603B0BDE8F08FDFF89F
:10A620004CB0DFF84CA001925846FFF743F9504672
:10A63000FFF740F909490A4BC1F800B0019AC3F885
:10A6400000A010212020FFF77FF9C9F800000028A2
:10A65000D5D00449FFF798FDD1E700BFFC390020B1
:10A66000003A002034630300303A0020043A00200E
:10A67000183A002030B5144D2C6885B0C4B10529B6
:10A68000CDE9001202900BDCFFF7C2F8022812D0CD
:10A69000002328681A466946FFF790F905B030BDD7
:10A6A0001A46204600236946FFF762FB05B030BD1D
:10A6B000204605B030BD2868089A00236946FFF798
:10A6C0007DF905B030BD00BF303A002010B504461A
:10A6D00000F0D8F86469003418BF012400F0DCF8F9
:10A6E000204610BD10B5044600F0CCF8246A00F0F6
:10A6F000D3F8204610BD00BF38B5430704461CBF41
:10A7000020F007040834FEF7A3FD0E4A136873B166
:10A710000D4A156844F6F7712C448C420CD8A542BA
:10A720000AD21D441460FEF74BFE284638BD074B85
:10A7300023F007031360EBE70025FEF741FE2846F0
:10A7400038BD00BF383A00203C8A0020443A00203F
:10A75000704700BF70B582B0EFF31186C02383F35A
:10A760001188154A154BD2F8044500251D601B6859
:10A770000193019BFEF774FD241A24F07F44012C01
:10A780000DD844B1FEF778FD054625B10C4B4FF0CE
:10A7900080525A6040BF86F3118802B070BDFFF747
:10A7A00037F80228EED1013CFEF766FD013C631C40
:10A7B00045EA0005F8D1E8E700100140001101402A
:10A7C00000ED00E038B50020FEF7B6F90A4B0B4863
:10A7D0000B4901222024C3F808450225C3F80423AD
:10A7E000E02402604FF400301A60C3F8445381F84B
:10A7F0001143086038BD00BF00100140081001403F
:10A8000000E100E0C02383F31188FEE730B46FF06D
:10A8100002034FF08075074C40F8081C40F8202CCC
:10A8200040F8045C40F80C4C40F8243C30BC443800
:10A83000704700BF05A802000F4C08B5E02384F85C
:10A840002230FFF7BFFF0D4B0D4A00211960D4F8ED
:10A85000883043F47003C4F88830536843F04043B1
:10A860005360236943F010032361FEF79BF9C02373
:10A8700083F31188FEE700BF00ED00E0408A00206E
:10A8800030EF00E0C02383F31188024A13680133DC
:10A8900013607047408A0020034A1368013B13602D
:10A8A0000BB983F311887047408A0020826842B157
:10A8B00010B5044643690168006998470023A36006
:10A8C00010BD70470EB400B582B0039929B102AA39
:10A8D00004AB42F8043D00F08BF802B05DF804EBE5
:10A8E00003B070472DE9F84F884690451746054656
:10A8F0001E46DDE90AB175D343464FF00109B3FBAB
:10A90000F7F39F4209F10109F9D9B14538BFB146C2
:10A9100011F0010AAA6802D1BBF1000F43D1012452
:10A9200002E0013E07FB04F4012EFAD8B8FBF4F173
:10A930008F42F7D92D4E05E0B4FBF7F4A4B1B8FB74
:10A94000F4F1AA68705C531CAB602B689854D5E98D
:10A9500001329A4204FB1188EED32846FFF7A6FF86
:10A96000B4FBF7F4002CEAD1BAF1000F15D0BBF11B
:10A97000000F12D0CB4510D92024AB682A68591C8F
:10A98000A960D454D5E901329A420BF1FF3B06D2BB
:10A99000BBF1000F01D0CB45EFD1BDE8F88F2846C1
:10A9A000FFF784FFF4E78B0717D42024CB45B6D9F3
:10A9B0002B68511CA9609C54D5E901329A420BF1D5
:10A9C000FF3B05D2BBF1000FA9D0CB45F0D1A6E7E4
:10A9D0002846FFF76BFFAA68F4E7002E0CBF30246F
:10A9E0002024E3E74FF001098FE700BF4463030031
:10A9F000002900F0F4812DE9F04F054685B092461C
:10AA00000C460B78DFF8A8B501E0237893B1013448
:10AA100083B1252B15D0AA682968501CA8608B54D7
:10AA2000D5E901329A42F0D32846FFF73FFF237859
:10AA3000002BECD12B7B002B40F0148105B0BDE83E
:10AA4000F08F2146002711F8012B2D2A00F0E1801C
:10AA5000302A00F0E2802B2A00F0D2802A2A00F06F
:10AA6000E080A2F13006F3B2092B03D9B8E1A3F1DB
:10AA700030060146084606EB860310F8012BA2F1CA
:10AA80003004092C02EB4303F1D92E2A00F0D580C3
:10AA90000023013101E011F8012B02F0FB006828CE
:10AAA0000C46F8D0253A532AAFD801A151F822F02C
:10AAB00071AC02000BAA02000BAA02000BAA020052
:10AAC0000BAA02000BAA02000BAA02000BAA0200AA
:10AAD0000BAA02000BAA02000BAA02000BAA02009A
:10AAE0000BAA02000BAA02000BAA02000BAA02008A
:10AAF0000BAA02000BAA02000BAA02000BAA02007A
:10AB00000BAA02000BAA02000BAA02000BAA020069
:10AB10000BAA02000BAA02000BAA02000BAA020059
:10AB20000BAA02000BAA02000BAA02000BAA020049
:10AB30000BAA02000BAA02000BAA02000BAA020039
:10AB40000BAA02000BAA02000BAA02000BAA020029
:10AB50000BAA02000BAA02000BAA02000BAA020019
:10AB60000BAA02000BAA02000BAA02000BAA020009
:10AB70000BAA02000BAA02000BAA02008BAC020077
:10AB80000BAA02000BAA02000BAA02000BAA0200E9
:10AB90000BAA02000BAA02000BAA02000BAA0200D9
:10ABA0000BAA02000BAA0200A5AC0200C7AC02006F
:10ABB0000BAA02000BAA02000BAA02000BAA0200B9
:10ABC000C7AC02000BAA02000BAA02000BAA0200EB
:10ABD0000BAA02000BAA02000BAA020017AD02008A
:10ABE0000BAA02000BAA02008BAD02000BAA020006
:10ABF000C5AD02000BAA02000BAA02008BAC02003A
:10AC000047F004070C46214611F8012B2D2A7FF44A
:10AC10001FAF47F001070C46F5E747F002070C4667
:10AC2000F1E7DAF800301A1DCAF8002062781E68D1
:10AC30002E2A04F102007FF42BAF4A78A2F13003F0
:10AC4000092B00F25081002303EB830302EB430343
:10AC500010F8012FA2F130010929A3F13003F3D933
:10AC6000014616E7284605B0BDE8F04FFFF71EBEC7
:10AC7000AB682A68591CA9604FF02501D154D5E969
:10AC800001329A42FFF4C1AECEE6DAF80020111D7F
:10AC9000CAF8001011682846CDE900671022FFF7B6
:10ACA00021FEB2E6DAF80020131DCAF80030AB68C6
:10ACB00029681278581CA860CA54D5E901329A4212
:10ACC000FFF4A3AEB0E6DAF80020111DCAF80010B8
:10ACD000D2F8008088EAE872A2EBE872092A4FF005
:10ACE000010107DDB148A0FB0202D208092A01F1E7
:10ACF0000101F7DC994238BF1946894607F0020284
:10AD0000002E71D12AB1002B00F04B81FA0700F11F
:10AD10008D8000268AE0DAF80020131DCAF8003082
:10AD2000AB6829681768581C3022A860CA54D5E956
:10AD30000123934280F02C812A68581C7821A86056
:10AD4000D154D5E90123934280F01D810F2F03D9FF
:10AD50003A4612090F2AFCD84FF0805603E0360914
:10AD60003FF453AEAB682968B7FBF6F2581CA860F5
:10AD70001BF80200C854D5E90131994206FB12774D
:10AD8000EDD32846FFF792FDE9E7DAF800301A1D07
:10AD9000CAF80020D3F80080FB077ED54746A7EB12
:10ADA000080917F8013B002B5DD0AA682968501CE0
:10ADB000A8608B54D5E901329A42F0D32846FFF7B8
:10ADC00075FDECE7DAF80020111DCAF800101168D3
:10ADD0002846CDE900670A22FFF784FD15E6704793
:10ADE00008460026214650E6B8F1000F01DB78073F
:10ADF00000D5013E02B1CBB1F90717D4002E88D09F
:10AE0000B14513D220220393A9682B68481CA8607F
:10AE10005A54D5E90131994206F1FF365DD2002E30
:10AE200000F0C180B145EFD1039B4E46B8F1000F51
:10AE3000C0F296807A070AD5A9684A1CAA602A68D7
:10AE40002B205054D5E90121914280F0968007F0E3
:10AE50000302022A5FD0CDE9006741460A22284654
:10AE6000FFF740FDD1E54E457FF6CFAD202705E049
:10AE70004E453FF4CAAD002E3FF4C7ADAB682A681B
:10AE8000591CA960D754D5E901329A4206F1FF3620
:10AE9000EED32846FFF70AFDEAE7B8F1000F24D009
:10AEA000404608F019FD0746BE4220D9FEB14FF0DA
:10AEB000200902E0BE421AD0CEB1AB682A68591C04
:10AEC000A96002F80390D5E901329A4206F1FF36F3
:10AED000F0D32846FFF7EAFCECE728460292FFF79A
:10AEE000E5FC029A9BE70146D2E54746DCE708F11C
:10AEF000FF3818F8013F002B3FF487ADAA68296896
:10AF0000501CA8608B54D5E901329A42F1D32846EF
:10AF1000FFF7CCFCEDE7002B9DD1002E3FD0B145D3
:10AF200099D2029323464C46B1461E46AA682B6826
:10AF3000501C4FF03001A8609954D5E901329A4273
:10AF400009F1FF3908D2B9F1000F26D04C45EDD1F7
:10AF50003446029B4E467EE72846FFF7A7FCF2E701
:10AF6000A9684A1CAA602A682D205054D5E90121FD
:10AF70009142C8F10008FFF46AAF28460293FFF738
:10AF800095FC029B63E72846FFF790FCAB68DDE683
:10AF90002846FFF78BFCAB68CEE6029B34460026C2
:10AFA00059E71E4642E7039BB3E600BFCDCCCCCCAD
:10AFB00044630300EAB100231360D0B10368C3B156
:10AFC00070B5C38813F0030511D104460846164630
:10AFD00007F0CEFDC0B214280FD0237983420AD9DE
:10AFE000E388226800FB03233360284670BD0720F6
:10AFF00070BD0E207047042070BD052070BD00BFDD
:10B0000040220021014807F0DBBF00BF448A002036
:10B010004FF6FF73984210B509D0FF2804460FD8A9
:10B020000146094804F054FA50B9204610BD4FF4C7
:10B030008071054804F070FA80B2B0F5807FF5D1D8
:10B040004FF6FF7010BD00BF448A002008B54FF6D0
:10B05000FF73984208D0FF2806D80146034804F041
:10B0600037FA08B9012008BD002008BD648A002015
:10B07000FF2800D9704710B501460446044804F083
:10B0800037FA21460348BDE8104004F031BA00BF4A
:10B09000448A0020648A0020FF2801D900207047DC
:10B0A0000146014804F02EBA448A00204FF6FF738F
:10B0B00098422DE9F04130D0013086B2FF2E27D8DA
:10B0C000174C03E09EB2B6F5807F21D03146204672
:10B0D00004F018FA731C0028F4D0DFF84880A8F1B7
:10B0E00020073146404604F00DFA98B1741CA4B212
:10B0F000B4F5807F0CD0A5B22146384604F002FAA0
:10B1000001342E46A5B20028EBD1B5F5807FF3D1EE
:10B110004FF6FF763046BDE8F0810026D0E700BF4D
:10B12000448A0020648A002038B54FF6FF739842A5
:10B1300016D0013084B2FF2C0ED80A4D03E09CB229
:10B14000B4F5807F08D02146284604F0DBF9631C63
:10B150000028F4D0204638BD4FF6FF74204638BD95
:10B160000024EAE7648A002070B4DDE9034570B189
:10B1700069B163B105FB04F6964208D83CB135B11C
:10B18000C0E90013C0E90245002070BC70470720E9
:10B1900070BC7047F8B5002840D003680646002B05
:10B1A0003CD04068002839D0B368002B36D0002549
:10B1B0000F46FF2429460EE0FF2C19BF2B1B01333D
:10B1C00001232C469F422AD00135B368EDB29D423F
:10B1D000294623D2706804F07BF9BFF35F8F002803
:10B1E000EAD0FF2C18D0A54216D9336883B1706815
:10B1F000E3B268B1FF2B0BD0BFF35F8F214604F0A1
:10B2000081F928B17068BFF35F8F214604F070F9AF
:10B210000134E3B2AB42E8D3FF24D5E7FF24204654
:10B22000F8BD00BFA8B102689AB142688AB1FF298F
:10B2300038B50D460BD00446BFF35F8F104604F0BF
:10B2400061F920B1E368206803FB050038BD0020E8
:10B2500038BD0020704700BF78B102686AB142680B
:10B260005AB1FF2938B50D4606D00446BFF35F8FAB
:10B27000104604F047F908B938BD70476068BFF35D
:10B280005F8F2946BDE8384004F032B97EDF704751
:10B290007FDF704785DF704786DF70472DE9F04F0D
:10B2A0009A4B05881978044689B02846002207F091
:10B2B00097FC637913F0040300F0868005F580772E
:10B2C000BFB238466B460122072101F0F5FB8046EC
:10B2D00080B3002707232846CDE90277CDF81080F8
:10B2E0008DF80830ADF80A50CDE90577079702F0E0
:10B2F00071FB02AEADF80C00304600F049FE6279F9
:10B3000023888DF8117012F0040F14BF012102215F
:10B3100002221846ADF80A308DF810108DF808207A
:10B3200002F058FBADF80C00304600F031FE09B0D9
:10B33000BDE8F08F284602F04DFB4FF6FF739842B0
:10B340008146064600F08380C24602AE38464A4631
:10B35000072101F0B3FC034600285DD0862847D0C2
:10B360000027072228460297C6E901778DF80820B2
:10B370000493C6E903777761ADF80A5002F02AFB1F
:10B38000ADF80C00304600F003FE627923888DF89A
:10B39000117012F0040F14BF01210221022218467D
:10B3A000ADF80A308DF810108DF8082002F012FB6D
:10B3B000ADF80C00304600F0EBFDBAF1000FB6D04E
:10B3C000484602F017FCB2E7022220888DF81130BF
:10B3D0008DF808208DF81020ADF80A0002F0FAFA76
:10B3E000ADF80C0002A800F0D3FD09B0BDE8F08F65
:10B3F0000023062228460293C6E90133C6E9033337
:10B400007361ADF80A508DF8082002F0E3FAADF848
:10B410000C00304600F0BCFD63792088ADF80A00CE
:10B4200013F0040F14BF01210221022201238DF821
:10B4300010108DF808208DF8113002F0CBFAADF81D
:10B440000C00304600F0A4FD09B0BDE8F08F0146C5
:10B45000019802F09FFAB042814682460CD101F079
:10B4600057F95045814636D04946284602F0B8FB88
:10B470004FF0010A02AE69E7DFF894B001462846B2
:10B4800002F0AEFB9BF80010284607F08DFB8246C9
:10B4900000287FF459AF02AE51461822304607F01B
:10B4A0008FFD042328468DF80830ADF80A5002F0CD
:10B4B00091FAADF80C00304600F06AFD9BF80010E0
:10B4C000284607F071FB00287FF440AF627923889B
:10B4D0008DF8110017E7072204232846CDE90288DA
:10B4E00004938DF80820ADF80A50CDE90588CDF811
:10B4F0001C8002F06FFA02AEADF80C00304600F08E
:10B5000047FD627923888DF81180FCE6912D00209B
:10B51000902D0020024B0A78197807F061BB00BF1C
:10B52000902D0020F8B5184C2378182B27D0174DF4
:10B530002B78182B1FD0164E3378182B17D0154F99
:10B54000387818280FD02378182B0AD02B78182B8E
:10B5500007D03378182B04D0182814BF00200320FC
:10B56000F8BD0320F8BD07F015FB3870EBE707F0D6
:10B5700011FB3070E3E707F00DFB2870DBE707F005
:10B5800009FB2070D3E700BF912D0020932D0020F0
:10B59000922D0020902D00202DE9F04190B00E4614
:10B5A0001746054607F0B2FA2022044600210DEBAB
:10B5B000020007F005FD012C10D054B1002E59D126
:10B5C000852108AB28460022FFF762FE10B0BDE8D7
:10B5D000F08143F2020010B0BDE8F081DFF8008195
:10B5E000002298F80010284607F0FAFA002E72D0D0
:10B5F000284602F0EFF94FF6FF7398423ED13378B8
:10B60000DB0748BF02AB10D40021344B0B970F93DC
:10B61000012CD6D108AB32462846FFF739FE10B0D0
:10B62000BDE8F0813278D207EED505F5807080B2A2
:10B630000122072101F040FA1128C7D0002846D185
:10B6400001465022039807F0BBFC039A234B147069
:10B6500003990B9701F1340001F118074A1C089077
:10B6600011312846CDE90C720F9302F0C9F980BB65
:10B670000146CDE7284602F0ADF9C0E798F8001082
:10B68000284607F091FA0028B9D102AB01461822EA
:10B690001846019307F094FC042228468DF80820F0
:10B6A000ADF80A5002F096F9019BADF80C0018466F
:10B6B00000F06EFC98F80010284607F075FA019B20
:10B6C0000028AFD13378D90705D485219DE7032021
:10B6D0007CE708207AE785219CE700BF848A002068
:10B6E000902D0020F0B589B00E461446054607F0AF
:10B6F0000DFA012852D002284BD1002E4FD0604BBA
:10B7000022461978284607F06BFA284602F062F9BB
:10B710004FF6FF73984201D0002C56D03146284690
:10B72000FFF7B4FD574B327819780428044643D00C
:10B7300012F00106B0FA80F218BF01264FEA521249
:10B74000284614BF3746022707F04AFA1CBB4E4B67
:10B7500001221978284607F043FA4C4B28461978FD
:10B76000324607F03DFACDE9054402940494284698
:10B770000123ADF80A50039407948DF810708DF8EA
:10B78000083002F027F9ADF80C0002A800F000FC28
:10B7900001E043F20204204609B0F0BD46B1314653
:10B7A0002846FFF773FD04280446F4D11124F2E77C
:10B7B0003446204609B0F0BD12F00102284639D0C7
:10B7C000002207F00DFA1124E5E76A46072101F08F
:10B7D0006FF990BB019B93F84420D20739D503F150
:10B7E000340603F14604214632462846FFF752FD4F
:10B7F000244BB0FA80F2044652091978284607F023
:10B80000EFF9002CC7D1204B22461978284607F0C3
:10B81000E7F91E4B28461978224607F0E1F9CDE9F1
:10B82000024428460123ADF80A50CDE90444CDE98D
:10B830000644A4E707F0D4F9B8E7124B05281978B5
:10B8400001D0112816D12846002207F0C9F9112489
:10B85000A1E703F12A04204603F1180602F0A8F933
:10B860000028C0D1074B02461978284607F0B8F9DE
:10B870000B2490E72246284607F0B2F903248AE712
:10B88000902D0020912D0020932D0020922D00203E
:10B890002DE9F0430388113B89B004460D2B70D885
:10B8A000DFE813F00E006F009300B5006F006F002B
:10B8B0006F006F00080135016F006F006F007200AC
:10B8C000037A8488BC4F3D2B204641F23D033978F2
:10B8D00014BF4FF488551D4607F066F9002850D074
:10B8E000B64B2046197807F05FF90346002800F0B0
:10B8F0009E81B34B2046197807F056F904F5807302
:10B9000000284FF0070198B20CBF4FF002084FF02B
:10B91000010801F083F902AEA8B1052813D0002375
:10B92000049007222046CDE90233CDE90533ADF876
:10B930000A4007938DF8082002F04CF8ADF80C008F
:10B94000304600F025FB0023C6E901330293C6E927
:10B95000033373611A4603233978ADF80A40204651
:10B960008DF81080ADF812508DF8083007F038F9D6
:10B97000BDF80A0002F02EF8ADF80C00304600F0D9
:10B9800007FB09B0BDE8F083037A8188C3F3400266
:10B99000C3F300040023049308468DF810401224DA
:10B9A00002938DF811200393CDE905330793ADF889
:10B9B0000A108DF8084002F00DF8ADF80C0002A84E
:10B9C00000F0E6FA09B0BDE8F083808807F09EF841
:10B9D000012800F0F78002AE34F8042F002305217F
:10B9E000104604340293B3607360ADF80A20C6E9D0
:10B9F000033373618DF80810049401F0EBFFADF888
:10BA00000C00304600F0C4FA09B0BDE8F08300F144
:10BA10001009484602F034F84FF6FF73984280460A
:10BA200000F039810146A08802F0DAF8A588624F5B
:10BA300028463978012207F0D3F8604B2846197858
:10BA4000002207F0CDF85E4B02AE1978284600229E
:10BA500007F0C6F800230122284602937360C6E966
:10BA60000233C6E904338DF80820ADF80A5001F01E
:10BA7000B1FFADF80C00304600F08AFA4FF6FF73C4
:10BA8000984573D040466A46072101F011F8002816
:10BA90006CD1019D95F84430DB0760D500231A4630
:10BAA00005F13401A088FFF7F7FB034600283FF4B7
:10BAB00068AF65E0057A002D79D0B0F804803E4F7C
:10BAC000437A39784046C3F3010407F06DF8002843
:10BAD0003FF457AF394B4046197807F065F8ADB2DF
