:02000004000FEB
:1080000030620020D1D90F009B8B0F00BF8B0F0077
:10801000978C0F005B940F0017950F000000000075
:1080200000000000000000000000000075D50F00F7
:10803000239A0F00000000001B9F0F00A7A70F004E
:1080400027AC0F0097AC0F00D3B70F00A7B90F00F4
:1080500087D00F0087D50F00C9D80F006BD90F004C
:1080600077D90F0045DA0F0047DA0F0049DA0F0021
:108070004BDA0F004DDA0F004FDA0F0051DA0F0024
:108080000DB40F0053DA0F0055DA0F0057DA0F0066
:1080900059DA0F005BDA0F00DF9C0F005DDA0F008A
:1080A0005FDA0F0061DA0F0063DA0F0065DA0F00A4
:1080B00067DA0F0069DA0F0000000000000000001E
:1080C0006BDA0F006DDA0F006FDA0F0071DA0F0054
:1080D00035B10F0073DA0F0075DA0F0077DA0F0091
:1080E00079DA0F007BDA0F0051D80F000000000092
:1080F000000000007DDA0F00000000007FDA0F00B2
:10810000000000000000000000000000000000006F
:10811000000000000000000000000000000000005F
:10812000000000000000000000000000000000004F
:10813000000000000000000000000000000000003F
:10814000000000000000000000000000000000002F
:10815000000000000000000000000000000000001F
:10816000000000000000000000000000000000000F
:1081700000000000000000000000000000000000FF
:1081800000000000000000000000000000000000EF
:1081900000000000000000000000000000000000DF
:1081A00000000000000000000000000000000000CF
:1081B00000000000000000000000000000000000BF
:1081C00000000000000000000000000000000000AF
:1081D000000000000000000000000000000000009F
:1081E000000000000000000000000000000000008F
:1081F000000000000000000000000000000000007F
:1082000010B543689C18446041B103E013F8010BBA
:1082100001F8010B1046421E0028F7D1012010BDC5
:1082200030B585B00446154669B920681E4A9042AB
:1082300009D000E0103D102D15D9102200F0C7F82C
:108240000028F7D10DE0A068A84238BF002008D36D
:1082500023682A462046984718B1A068451BA560A8
:10826000012005B030BD2A4600F0B1F8F9E710B59D
:108270000446A06840B1236801222046984718B1FF
:10828000A068401EA060012010BD00B585B0064B5F
:10829000009301910292002303936946102200F09B
:1082A00039FC05B000BD000001820F00F8B50D4695
:1082B00004466946FFF7DBFFE0B19DF800000106C8
:1082C00003D406462E600120F2BD072700F07F068A
:1082D00069462046FFF7CBFF60B19DF8000000F033
:1082E0007F00B84006439DF80000FF1D0106E9D558
:1082F000202FEDD30020F2BD2DE9F04182B00E46D3
:10830000002700240025804669464046FFF7AFFF5E
:1083100080B19DF8000000F07F0000213A4600F097
:108320003DFC04439DF800000D43FF1D010603D5ED
:10833000402FE9D3002002E0C6E900450120BDE856
:10834000F681F8B507461C460D46002016462070FB
:108350002870306069463846FFF7A8FF28B9B8682A
:1083600008B9012121700020F2BD009810B9012147
:108370002170F2BDC00830600120009901F00701B2
:108380002970F2BD10B582B0044631B101290ED07A
:1083900002290ED0052913D017E0012200F017F8AA
:1083A000A0B19DF800000106F7D4012016BD0822F7
:1083B00007E000F048FB48B1009A0021204601E0A8
:1083C00004220021FFF72CFF16BD002016BD6946D0
:1083D000204625E738B50D46044600F034FB80B151
:1083E00028462146102200F095FBA8680099884293
:1083F00001D2002032BDA9600098A168091AA160CD
:10840000012032BD2DE9FF41074614460846616848
:108410000FF2BC654A7802F00F0355F8238012F082
:10842000300609D0102E04D0202E07D0302E37D0A1
:108430004CE0626901201070226944E0022823D1D7
:10844000042B21DC666969463846FFF7C3FF012526
:1084500018B93CE03078401C3070029870B1616807
:1084600030784A79904209D20B79226910FB03F0E7
:1084700002446846C0470028ECD100250198786086
:10848000029818BB284622E060690E790378497982
:1084900022695E438B42324418D25B1C037011E0A8
:1084A0000878616902F00F02072A087009D1606834
:1084B0000179206900F084FB60682169806800F020
:1084C000FEF8226961683846C04700E0002004B029
:1084D000BDE8F0812DE9F041144688B025690646D3
:1084E000286818B93046FFF74DFF3DE0022911D149
:1084F00069463046FFF76EFFD8B161682B682A1DC8
:1085000068469847A8B102980028F6D10198706093
:10851000012029E0E84671B1012903D0052908D1DD
:10852000042700E008273A4669463046FFF778FE00
:1085300080B9002018E000277F1C0B2FF9D2012200
:1085400041463046FFF76CFE0028F2D018F8010BC8
:108550000106F1D43A46694603A8FFF796FE616822
:108560002B682A1D03A8984708B0BDE8F08110B514
:1085700053685C7814F0C00402D0402C03D005E0AE
:10858000BDE810403EE7BDE81040A3E7002010BD65
:1085900070B50D460446286886686A6831462046EC
:1085A00000F011FB6868206105F10C0060617078D3
:1085B00000F0C000802804BF291D216170BD2DE995
:1085C000F04387B006461869B76804688846914644
:1085D00000E0A468ECB1B06887421AD12068056851
:1085E0002DB14B46424621463046A8470EE08068F2
:1085F00001784145EDD121466846FFF7C9FF0120CA
:1086000020736A4649463046FFF7B1FF0028E0D1A3
:1086100000E0012007B0BDE8F08310B586B04268E5
:10862000537803F00F0108290ED100690468002C6B
:1086300043D00021217368462146FFF7A9FF684611
:10864000FFF7EBFFA468F2E713F0C00127D103F0B6
:108650003004102C0DD1436919705178936800696A
:1086600001F00F01072910D10146184600F027F844
:1086700023E003F0300120291CBF03F03003302B2E
:10868000EBD140690021017017E0117923B10A464E
:10869000194600F02FFA10E000F092FA0DE0802960
:1086A0000BD1016900220A6003F03001202919BFB3
:1086B00003F03003302B4069027006B010BD00B5E6
:1086C0000A4687B00146684600F07DFA38B1684630
:1086D000FFF7A3FF684600F087FA0028F7D107B03C
:1086E00000BD2DE9F0418AB002AB0024C3E900448B
:1086F000054604A800F067FA00274FF0FF360DF199
:108700000808A868002838D00DF1010301AA6946BD
:108710002846FFF716FE60B3019904A800F0A4FAFA
:10872000002840D10198B8421DD3059C0598417896
:1087300001F00F01082934D004A800F055FA05987B
:10874000A042F3D137460198B8420CD3AC689DF8EB
:108750000020014604AB2846FFF731FF002857D020
:10876000A8688442CDD19DF800102846FFF70AFE84
:108770003AE09DF8010000284AD005984578069C0B
:1087800004A800F031FA0028F7D115F0300F03D11A
:108790000599087800B1641C002C3BD000206109C9
:1087A0002BE00778CFE70598417811F0300F0DD115
:1087B000069840280AD2410958F82120012300F0E8
:1087C0001F0003FA00F0104348F82100EC682CB1B8
:1087D0009DF80020019904AB2846A0479DF80010A1
:1087E00004AA2846FFF7C3FE00288AD110E058F8F3
:1087F000202012F1010F0BD1401C8842F7D304F066
:108800001F0458F82100C4F12004E640B04201D012
:10881000002000E001200AB0BDE8F08170B50446F8
:108820000D46164631462846FFF749FF324629468F
:108830002046BDE8704054E730B583B00C46694629
:10884000FFF75AFD68B1DDE90023DDE900015B08AF
:108850004FEA3202C50744BFD243DB43C4E90023D9
:1088600001203EBD10B582B00C4604226946FFF7D8
:10887000D7FC78B19DF800009DF8011040EA012076
:108880009DF8021040EA01409DF8031040EA0160A3
:108890002060012016BD1CB50C4608226946FFF772
:1088A000BFFCF0B19DF800209DF801009DF8043058
:1088B00042EA00229DF8020042EA00429DF80300CD
:1088C00042EA00629DF8050043EA00239DF8060095
:1088D00043EA00439DF8070043EA0063C4E900232C
:1088E000012016BD30B583B000F052F818B32A79D4
:1088F000DDE90001082A08D1C4E90001D4E9002318
:108900008B4215D1824215D012E0C117042A03D13F
:1089100020600246D317F3E7022A03D12080B4F97E
:108920000020F7E7012A03D1207094F90020F1E735
:1089300000203EBD01203EBD30B583B000F028F8D8
:1089400028B3287908280AD1DDE90001C4E900012B
:10895000DDE90023994217D1904217D014E0042892
:1089600004D1DDE9000120600021F1E7022804D1F3
:10897000DDE9000120802088F6E7012804D1DDE947
:10898000000120702078EFE700203EBD01203EBDB1
:108990000D4614466946AFE430B583B00D46144623
:1089A0006946FFF749FF38B3287908280AD1DDE97D
:1089B0000001C4E90001DDE90023994219D1904288
:1089C00019D016E0042804D1DDE900012060C117A8
:1089D000F1E7022805D1DDE900012080B4F90000AB
:1089E000F5E7012805D1DDE90001207094F90000C8
:1089F000EDE700203EBD01203EBD114632E71146A5
:108A000049E770B582B00E460446154600F01BF8E3
:108A1000C0B10098B0F5807F0BD20099401C88420D
:108A200007D3717801F0C001802902D031798142E9
:108A300001D2002076BD00982870691C009A20465B
:108A4000FFF7EEFB76BD694630E470B582B00E46A6
:108A500005461446FFF7F7FFB0B100980099401C97
:108A6000884207D3717801F0C001802902D03179A2
:108A7000814201D2002076BD009A21462846FFF7A8
:108A8000CFFB009A0021A15476BDF0B50D4685B00C
:108A9000AF6800F017F800281ABFA8680028002067
:108AA0000ED0687800F030002028324639466846FB
:108AB00002D1FFF7B3FE01E0FFF713FE01996160F9
:108AC00005B0F0BD04461646694683E40000000088
:108AD000E5880F0039890F0099890F00FB890F0085
:108AE000FF890F00038A0F004B8A0F008B8A0F004B
:108AF0000000000062B38B0708D0521E11F8013B42
:108B000000F8013B00F024808B07F6D1830740F08A
:108B1000208000BF103A07D330B4B1E83810103AC3
:108B2000A0E83810F9D230BC530724BFB1E80810D0
:108B3000A0E8081044BF51F8043B40F8043BD207BA
:108B400024BF31F8022B20F8022B44BF0B780370AE
:108B50007047121F17D35B0009D151F8043B20F86E
:108B6000023B1B0C121F20F8023BF6D20BE051F81F
:108B7000043B00F8013B1B0A20F8023B1B0C121FB0
:108B800000F8013BF3D238BF121D521E24BF11F86A
:108B9000013B00F8013BF8D87047FEE7D2B2203A1B
:108BA00022BF00FA02F1002070475242D041D2F1B8
:108BB000200291404140D040904041407047FEE744
:108BC000002200F06DB801604160C2600021816048
:108BD00041688B781A44026191F903301A4442616A
:108BE000087800B101207047F8B543681A4611783B
:108BF00039B10C334360197829B9C2680168FFF7AD
:108C0000E2FF0020F2BD517814790D4605F03006E0
:108C1000302E02BF5F7807F03007302F06D19578ED
:108C200001696D422944002401610BE001F0F0016B
:108C3000202902D151794C4304E005F0C005802D74
:108C400008BF0424517811F0300F02D18168491C0B
:108C5000816001699A7821441144016193F90320EC
:108C6000114441610120F2BD70B504460D466668AD
:108C700060680178A94204D1407800F00F0008280C
:108C800007D12046FFF7B0FF6068B042F0D1002066
:108C900070BD012070BDFEE762F30F2262F31F4238
:108CA000401810F0030308D0C91A1FD3DB0748BFD0
:108CB00000F8012D28BF20F8022D130030B414460F
:108CC0001546103928BF20E93C00FAD8490728BFCB
:108CD00020E90C0048BF40F8042D890028BF20F887
:108CE000022D48BF00F8012D30BC7047C91818BFCD
:108CF00000F8012DCB0728BF00F8012D70470000B8
:108D00000870020A4A70020C000EC8708A700420B3
:108D1000704710B58CB005A80FF244611822FFF718
:108D2000F9FE1624ADF8004001A80FF2246100F00E
:108D300000FADFF8E035022018706946012058700B
:108D4000062098700320D87002201871592058719D
:108D5000FE20987103F109007DDFC8B9BDF800005D
:108D6000401C0921D871197205AABDF80810BDF878
:108D700000004118ADF8081003F1200001A972DFCE
:108D800030B993F8200074DF93F82000012173DFDD
:108D90000CB010BD32B584B0044668460FF2E05105
:108DA00000F0C7F9DFF86C05058E808FADF8005034
:108DB00004A9029103946946AEDF05B030BD70B5D9
:108DC000044608461546E11CFFF79AFFE11C0646DB
:108DD00001442846FFF794FF301880B270BDF0B50B
:108DE00085B004466846142100F034FB2178082938
:108DF0000DD1DFF82015488F421E088F4A870028C2
:108E000047D092B2002A44D148870320207060786E
:108E100021788DF8020060228DF800208DF8011075
:108E20000326607801280BD00B2807D100F01AFB2D
:108E30008DF803000426002000F010FB314625E0E9
:108E4000207803281BD0062802D0082817D01CE061
:108E5000A5686668E0680DF10301FFF751FF0DF1A9
:108E60000304074621183046FFF74AFF3E18B6B202
:108E7000A1192846FFF744FF8619F61C05E0A268F1
:108E800061686846FFF79BFFC61CF1B26846FFF7B2
:108E900081FF05B0F0BD0146DFF87C0400F023BB84
:108EA000F0B50E4687B00546F088A98888421ED1E5
:108EB000DFF86474384600F0F4FA040017D0328A00
:108EC00006F11201FFF716FE68460FF2EC41182278
:108ED000FFF720FE01950494308AADF8140068462F
:108EE00000F0EEFC18B12146384600F0FCFA07B05D
:108EF000F0BD70B5064688B0DFF818443088A58FFD
:108F0000012800F0938010281BD0112824D01328AA
:108F100061D0142800F0FD801A280BD01F2870D0D3
:108F2000212873D023284BD0502827D0512800F077
:108F30008180522800F0F380552825D056286ED025
:108F4000F5E0B088216EA08709B101208847A08F85
:108F50000FF2F43175DFEAE04FF6FF70A08794F866
:108F60005C00410704D4FFF7D4FE08B100F006FD11
:108F7000216E002901D002208847D8E0314604F153
:108F80002400FFF78DFFD2E0F188F72913DAC81E1D
:108F9000421000EB92729210B0EB82000CD0C91F0D
:108FA00089B2481E421000EB92700121801001EB43
:108FB0008001891D00E0F72189B22846B5DFB3E0C2
:108FC0000FF20C406946D0E90023CDE90023B088B8
:108FD000002290DFA8E00FF2004042F60521D0E920
:108FE0000023CDE90123CDF808D001AA2846ADDF42
:108FF00008B100F0C3FCA08F0023002285217FDF91
:1090000092E006F10801284675DF8DE00FF2D030BE
:109010000188ADF800106946B0888FDF84E0B07930
:10902000002812D11321284676DF7DE00021284652
:1090300066DF79E0B079002879D0022802BF308954
:10904000218E884204BFB07B012870D101A80FF2A5
:10905000583100F06EF8308AADF80C0006F11401BA
:10906000708AADF80E0004910FF20C30A18ED0E999
:109070000023CDE90523CDF818D005AA2846ADDF99
:1090800058B9684600F0C6FC38B940F2FD10ADF89A
:10909000080001A9A08FB0DF49E00020ADF808006A
:1090A00001A9A08FB0DF002841D168460FF2E0216E
:1090B0001822FFF72FFD307D8DF8000004F1240108
:1090C0009DF80000019101280DD0022804D0062847
:1090D00004BF707D049018E0707DB17D40EA0120EE
:1090E0002087608711E08D4800F0ABFC208F6087FF
:1090F000707D0490F17DB07D327E40EA0120717E6A
:1091000040EA024040EA01600590684600F0D8FB62
:109110000DE0B08800230022002186DF04E0B08843
:10912000002300220021B1DF08B100F027FC08B0C5
:1091300070BD1022FFF7EEBC10B594B0044675491F
:1091400001224FF6FF708DF8022088874FF6596391
:10915000ADF80030224669460120A8DF00284BD137
:1091600008A80FF2C811FFF7E4FFA11C08A862DFEE
:10917000002841D10CA80FF26C211C22FFF7CAFC79
:109180000FF27C20016801911422A0780FF2742163
:109190008DF8060008680FF27021029003A8FFF70F
:1091A000B9FC01A8039002A90491231D208803AAF9
:1091B0000CA9AADF00BB0CA80FF260211C22FFF74C
:1091C000A9FC0FF27420016801911422A0780FF21B
:1091D0006C218DF8060008680FF26421029003A844
:1091E000FFF798FC01A8039002A9049104F10C0375
:1091F000208803AA0CA9AADF14B010BD10B5454CF5
:1092000094F85C10CA0784B058D42066424800F035
:1092100031F90020009000F042FC00284FD1404876
:1092200013DF00284BD100F0D0FC002847D168465E
:1092300000F06AFD002842D16946012000F06BFD74
:1092400000283CD1684600F0C1FD002837D100F06D
:1092500018FE38B104F1400000F009FEE06D40F066
:109260000200E06511218DF8001001A86DDF30BB10
:109270009DF80500401C8DF8050001A86CDFF0B9D1
:1092800094F85C00810747BF04F14401A26D0FF21E
:109290009401072292B268467CDF80B90FF2A800E1
:1092A0007ADF60B904F12400FFF746FF38B9FFF711
:1092B00030FD20B9E06D40F00100E065002004B011
:1092C00010BD10B5134AD36D0021DC071FD5134C18
:1092D000A0421CD0908F4FF6FF71884211D043F00E
:1092E0000403D365132176DF010010D1C8240FF2E7
:1092F00050014FF47A4041F001018847641EF6D1D5
:1093000002E092F8200074DF00F08FFC014608466E
:1093100010BD0000E45700209CD90F001CDA0F009C
:1093200000800F00446675546172670050EADA30BD
:109330008883B89F604F15F30000C98E00000000BD
:109340000338FDD8704700000C000C0000005802E4
:10935000E4570020090000000000000000000000A9
:1093600001000000000000002800000000000000D4
:1093700000000000000100000200000000000000EA
:1093800000000100000000000000000000000000DC
:109390000000000000000000DF8D0F000000000052
:1093A00000000000000000000200000000000100BA
:1093B00000000000000000000800000000000000A5
:1093C000DF8D0F00978E0F000000000000000000EE
:1093D000000000000000000002000000000000008B
:1093E0000000000004000000000000000000000079
:1093F000000000000000000000000000000000006D
:109400000200000000110300000000000000000046
:1094100000000000F4000000000000001800000040
:10942000000000000000000000000000000000003C
:109430000000000000000000010000000011130007
:109440000000000000000000000000001700000005
:1094500000000000002200F047BDFEE7044908704C
:109460000B2070470249087800220A7070470000FC
:10947000FF8F002010B508B90E2010BD03684168A9
:1094800082681960521A03E00B685C1C0C601A7049
:1094900013465A1EDBB20168002BF5D1002008717B
:1094A00010BD38B5044600258DF80050684600F020
:1094B0003BFD21686268086882420ED2421E0A6043
:1094C0001578208AE3684543A068821A1D4408790C
:1094D000D3B2984238BF184608719DF8000000F0DA
:1094E00041FD284632BD38B50C46002105468DF8B1
:1094F0000010684600F018FD286801684A1C0260E8
:10950000E868241A288AB4FBF0F008709DF800007F
:1095100000F028FD31BDFEE7DFF8F013CA68062031
:1095200010470B2803DB0B38C0B2FFF797BF70471B
:10953000F8B50C464FF4405101224D68DFF8D033A6
:109540009D42DFF8D0532E6A08BF0222012E08BFC9
:10955000521C01276770007C48B902202071E8681E
:10956000A060DFF8B403E060C0F57E2021E00128B0
:1095700004BF4E689E420CD1002020710878152847
:10958000ACBF48690020A0604FF48050E06088685C
:109590000FE0D2B2904207D22771A868A06000F015
:1095A00022FDE060A86904E0FF2020710020A06097
:1095B000E0602061F1BDDFF85C13CA6B4260096CAA
:1095C0008160704738B505460C462878DFF83C23A3
:1095D000012808D0032833D004281DD006282CD019
:1095E000082809D031BDD16803208847686900F098
:1095F000C4FDFFF796FF1EE0A98A286900F0D8FD98
:10960000FFF78FFF60702046FFF7D5FFE968D9B1FB
:109610002869BDE83440084702F10801101D00F038
:1096200032FEFFF77EFF012860700DD1002001F0AF
:1096300004F848B10A20607031BD4FF48070E060DA
:109640002046BDE83240B6E731BDF8B507460D46C5
:1096500000F0CDFD08B9082009E0BA8AAD4E336D9F
:10966000706D716C9B181B1A994202D203206870AE
:10967000F1BDA648346B4068FB683969201800F0DA
:10968000FBFF20B13869F968BDE8F4400847306B4A
:10969000B98A4018306306F14802306DB98A401823
:1096A0003065B98A386900F0FDFFB064A860306D9C
:1096B0006860F1BD10B5044686B0002001F03BF8AB
:1096C00028B1964A1821204601F08AF81BE0684626
:1096D0000FF25C211822FFF71DFA8C488D4A816831
:1096E000136D8B420CD1406800F091FE8DF80100A3
:1096F000FFF717FF00F009F8894800F09EFF02E02D
:10970000012000F002F806B010BD8DF8010061687C
:10971000A268684610472DE9F04106460D463078AC
:109720007A4F7C4C01284FF0010808D0032836D02E
:10973000042839D006284FD008282CD053E000F058
:1097400056FD002836D0706918B301051FBF616D42
:109750004118BA6891421CD1B0F5805F88BF0420DF
:1097600029D8626DB9688218914223D360640022BF
:10977000E06CA064606D2065206371697868236D7A
:1097800001F6FF71090B181800F07FFF58B3052090
:1097900011E003200FE03046FFF757FF23E0A06CF5
:1097A000A860206D68601EE0206D626D616C821A99
:1097B000914202D00820687015E0002161644FF0EA
:1097C0000008A16CE164606500213046FFF772FF7C
:1097D000F9680420884706E0A06CA860206D6860E6
:1097E0004FF48050E8604046BDE8F08170B586B027
:1097F000054668460FF25011444E1822FFF78AF9C9
:1098000029788DF80010012428780C2853D8DFE837
:1098100000F0072A442A2A522A222A1E0A19260060
:109820008DF804403AE03F48016801914168029197
:10983000C168890204910069800203903A48016876
:1098400005912BE069462846FFF772FE26E0287C4A
:109850008DF8040022E0288AADF804001EE0F168CB
:10986000072088471AE0062812BF012828693070AF
:109870003078012807D002280AD169462846FFF728
:109880004AFF044609E069462846FFF79BFE04E0CC
:109890000020307005208DF8010054B16968AA6875
:1098A000684690479DF80100012802D0F168052024
:1098B000884706B070BD02208DF80100EEE795E7FD
:1098C000816809B907207047184A182100F088BF3D
:1098D00038B5040001D1072032BD012000F0C4FEDC
:1098E00098B900F027FC00F082FC084D40B105F16A
:1098F0000801281D00F0C7FC012801D0032032BD5B
:10990000EC600020FFF7AAFD002032BD485800207F
:10991000DBE5B1518C86002000800F00B5960F006A
:1099200019950F000001001010000010BF980F00E3
:109930000400000000000000000000000000000023
:109940000000000000000000000100000000000016
:109950000000000000000000000000000000000007
:10996000BFF34F8F244925480A6802F4E06202439E
:109970000A60BFF34F8F00BFFDE7F1E7F0E780B566
:1099800028B1012811D0052818BF072814D10120BB
:1099900000F0CCFF002000F0B0FF012000F0ADFF90
:1099A000BDE80240022000F0ADBF00F0ABFFBDE813
:1099B0000240022000F0A1BF01BD80B500224FF49B
:1099C0008051002000F0E4FF08B1FFF7D7FF0C48FA
:1099D0000022C0F57E2100F0DBFF08B1FFF7CEFFCB
:1099E000084801F075F808B1FFF7C8FF01F0E4F886
:1099F000002002BD000000000CED00E00400FA05AC
:109A000000800F007F990F0001460878497840EAEE
:109A10000120704780B5FFF7F7FFFFE700F0010076
:109A200002BDFEE7F8B500F01CF8B6EBD50F07D283
:109A300057F8361020468847002808BF761CF4D017
:109A4000F2BDF8B500F00DF8B6EBD50F08D207EB74
:109A5000C60120464A689047002808BF761CF3D00C
:109A6000F2BD04460348044D044F451B0020002668
:109A70007047000024DA0F001CDA0F001CDA0F0018
:109A800030B585B004460D4668461021FFF7E2FC6C
:109A9000AD0801940295684618DF05B030BD00B5E9
:109AA00085B068460FF21C011022FFF733F86846B4
:109AB00018DF05B000BD4FF000514FF48050086032
:109AC00000207047020000000000000000000000BD
:109AD000000000002028014604DA7148C84000F068
:109AE00001007047402808DA0122A1F1200012FA93
:109AF00000F018BF0120C0B270470120704710B5B8
:109B000084B004460FF2D811684601F07AF802E0FA
:109B1000684601F07AF8029A3AB151681268204614
:109B200090470028F4D1112000E0002004B010BDBF
:109B300010B584B004460FF2B411684601F061F824
:109B400006E05168126820469047684601F05DF8CB
:109B5000029A002AF5D11FBD80B51620FFF7BAFF83
:109B600028B942F20100BDE80240FFF707BF4D48A7
:109B700000784009082803D2EC21C140C80702D46C
:109B800042F20200EFE74849886820B10A6842F4CF
:109B900080020A6001BD454913E080B51620FFF739
:109BA00099FF28B9BDE8024042F20100FFF7E6BE86
:109BB0003D49886820B10A6822F480020A6001BD2C
:109BC0003B494FF48000086001BD30B5394D28781D
:109BD00083B008B108203EBD0121A970FFF78FFFB7
:109BE000112820D00020FFF7A3FF0FF21810016802
:109BF000019100228DF80020684600F095F92E4969
:109C000001A810DF0446401E8041C00F00F034F868
:109C10000CB120463EBD0020A8706870FFF79CFF85
:109C20000120FFF785FF00203EBD38B5214D287883
:109C300008B9082032BD0121A9700120FFF75FFF9C
:109C4000112817D00220FFF773FF00208DF80000C5
:109C5000684600F069F911DF0446002000F00CF8B6
:109C60000CB1204632BD0020A870FFF796FF0320FC
:109C7000FFF75EFF002032BD28709DF8000000F065
:109C800071B90C48817809B908207047007800281C
:109C900018BFFFF7CABF98E7064800787047000072
:109CA000FC06FFBD16E400E0D08F002000E100E0DC
:109CB00080E100E0F88F00207B990F00E0B50FF203
:109CC0003801684600F09DFF05E04868096888474C
:109CD000684600F09AFF02990029F6D107BDEDE72A
:109CE000F8D70F0008D80F000800000008D80F00B0
:109CF00018D80F000800000018D80F0028D80F004F
:109D0000080000000100000708B90E20704746490E
:109D10000160002070473EB50B00044601D10E20C3
:109D20003EBD41481860002168460022002580E8B9
:109D30002600012006218DF800408DF80200ADF8C4
:109D4000041069461A68202069DF00F039F8012004
:109D50008DF80100ADF8021069461A68402069DFED
:109D600000F02EF8F7208DF80040ADF802006946AB
:109D70001A68232069DF684600210022002480E859
:109D8000160001208DF8000069461A6869DF00F0AE
:109D900011F84FF4B060009069461A68A12069DF9D
:109DA00000F008F88DF8001069461A68A02069DFF5
:109DB00000203EBD68460021002280E81600704762
:109DC00068460021002280E82600704760DF10B955
:109DD000164A012111707047144900B50878ADF595
:109DE000017D88B903E0052818BFFFF7C7FD0DF511
:109DF000017D00BD5168126804A8904701A800F0D9
:109E000004FF039A002AF5D14FF4FA70ADF8000070
:109E1000694604A861DF0028E5D10FF2140101A80A
:109E200000F0EFFEEDE70000B857002000900020A2
:109E30000CD90F002CD90F000800000038B5040021
:109E400001D10E2032BD234DD5F89C0110F1010F38
:109E500001D0082032BD00221821201D00F022FC74
:109E600020600722214605F5CE7029DF32BD80B57E
:109E700008B90E2002BD1C221749FEF73BFE002048
:109E800002BD10B5134C0022182104F5D07000F06B
:109E900009FCD4F89C11814201D1012010BD0020A1
:109EA00010BD10B50D4C04F5AE70016811F1010F35
:109EB00004BF026C12F1010F09D04FF47F2000F0B3
:109EC000B3FE572221464FF47F2000F0C1FE002050
:109ED00010BD000000F00F009CF10F008C860020E8
:109EE00062F30F2262F31F4200B500BF13009646D3
:109EF0009446103928BFA0E80C50FAD85FEA417C9C
:109F000028BF0CC048BF40F8042BC90728BF20F861
:109F1000022B48BF00F8012B00BDFEE7EFF31080D5
:109F200072B6704762B6704738B50446FFF7F6FF61
:109F3000164A0146906870B9012393601448154B86
:109F40001D68054015601860586850604FF0FF307C
:109F50005860002000E00120207011B9BDE83140B8
:109F6000E0E731BD10B5094CA16869B160B9FFF7F0
:109F7000D5FF094922680A6062684A600021A16031
:109F800010B9BDE81040CDE710BD0000D08F002013
:109F9000FC06FFBD80E100E000E100E000210022BE
:109FA000002380E80E00484900200863704743F210
:109FB0000400464A0168914207D1406800F6FF71EB
:109FC000401EC0F30B00081A70470EE080B5FFF783
:109FD000EEFF3D4A9169081800F6FF71401EC0F37C
:109FE0000B00081A02BDE2E700BF4FF48050704733
:109FF00010B5354C216A01290DD100281CBFE0693C
:10A0000000280AD0FFF7D3FFA169002200F04AFB25
:10A01000E169884201D0002010BD012010BD2DE96A
:10A02000F0470026284D0446894692469846002768
:10A0300000211EB1022E18D009D319E0FFF7C6FF88
:10A040005FEA0A010ED0296A01290BD10BE0FFF764
:10A05000AEFFB8F1000F01BF43F204010A681B4BC9
:10A060009A4200D10127394603E04FF4805000E0C6
:10A070000020174AA2F54052101AA04202D2012233
:10A08000012004E000225FEA090018BF0120084215
:10A0900005D0022E03DA761CF6B2022EC7DD0AB115
:10A0A00004200EE01EB105F11800FFF777FF002035
:10A0B00028610120686105F12400FFF76FFF6C62E1
:10A0C0000020BDE8F08700008C860020DBE5B15160
:10A0D00000800F005968DFF8F0338A689A4207D190
:10A0E0004268DFF8E813531C4B618068401E8861AA
:10A0F00070471FB5DFF8D803DFF8D043826B00F15B
:10A100005C016846FEF7C1F8204669461022FEF75A
:10A1100001FDDFF8C003DFF8C023DFF8C013E06003
:10A1200000206061A0612046FEF778FB00B10120AD
:10A1300004B010BD10B5DFF89843A06B90B030B1FB
:10A14000FFF7D7FF18B1606A10B1012000E00020CE
:10A15000DFF87843207400F09FFD2022DFF88013A1
:10A16000684600F0CFFD40236A4604F59E71DFF893
:10A17000740300F0FFFD10B010BD70B5044601255A
:10A180000CB9032512E040F20110844228BF0425D7
:10A190000CD2DFF83813DFF838630020087430631E
:10A1A000202106F13800FFF755F9B463284670BD49
:10A1B000F8B5DFF81C7305460E46F86BB96B012441
:10A1C0008219914238BF03240FD3384432462946BE
:10A1D0005C30FEF78FFCF86B3018F86307F1400233
:10A1E0003146284600F05EFA38642046F2BDB74892
:10A1F000007C7047FEB52020144602900CB9132055
:10A20000FEBD09B11620FEBD02A8B04DB649AB692E
:10A210006A69019005F5E276009605F1C00000F04C
:10A2200013FE002804BF2278402A01D00A20FEBD78
:10A2300005F5C277611C3846FEF75CFC20213846E4
:10A2400000F06CFD4020019000973246029B05F51E
:10A250009E7105F11C0000F00BFE08B10520FEBD4B
:10A260000120FEBD38B50846144601230022002116
:10A27000FFF7D5FE012508B1042502E0FFF7A6FE91
:10A280002060284632BD2DE9F843914F80460D46A7
:10A29000F86BB96B0124884218BF082463D1DFF83A
:10A2A0002C9299F8100030B1FFF790FEC8F800002A
:10A2B000786A286057E0FFF71CFF002852D0864BD1
:10A2C00093F89C00002804BF197800294AD0002187
:10A2D000C8F800101F1D0022296028B193F838111A
:10A2E00003F1A00703F2391207F159063078FFF79E
:10A2F00081FF0446012C08D1381D00F00CFE0446F5
:10A30000012C08BF89F8100001D0012C0CD1317844
:10A310000F24002007F15C0279B9137B012B12D1C5
:10A32000106908B128600124012C1CD1296842461B
:10A33000381DFFF797FF044615E0CB0703D5737868
:10A34000012B08BF10688907EBD511790129E8D1E5
:10A350009168664AC2F57E228A4228BF0818E0D278
:10A360000424E1E705242046BDE8F283F8B500297E
:10A3700004461546564E43D003F500525C4952F848
:10A38000047FA06D8F422BD103F50057083700F5ED
:10A39000F852401E3F68FF32C0F30B00101A87428C
:10A3A0001ED34FF4405042688A4217D101781529D4
:10A3B000A3BF40694F49B0FBF1F0002003F5005105
:10A3C0000A78152A07DB03F500534A4A53F8141F8D
:10A3D000B1FBF2F100E00021884208D0280001D151
:10A3E0000020F2BD06F11800FFF7D8FD01E02800BB
:10A3F00001D0AC2000E0A520F062A06D706301E008
:10A40000AA20F0620DB16068F0600120F2BD2DE974
:10A41000F0430D4630492E4F044691F89C0001262A
:10A4200000288BB014BF01F1A40801F10808202016
:10A430000290202208F16F0103A800F059FC02A944
:10A440002248019100F5F279CDF800902B46224682
:10A450002549C03000F0F8FC28B9202203A948465D
:10A4600000F0BCFDB0B1172607F12400FFF796FD00
:10A47000202107F13800FEF7EDFFFF22F42107F15C
:10A480005C00FFF72DFD00203863BC6430460BB044
:10A49000BDE8F08398F8551049B9FE620020386293
:10A4A000D8F80400B860B86CB8627D62E0E74A088A
:10A4B000234602F0010201F001014046FFF756FF7A
:10A4C0000028F0D10526CFE784CE0F00048C0020B1
:10A4D0008C860020D5A00F00088E002050CF0F00E2
:10A4E00094D60F00F0D90F0084D90F0000800F0020
:10A4F000DBE5B15140420F0000225821001D00F061
:10A50000D1B810B50446206810F1010F07D02046DD
:10A51000FFF7F2FF2168884201D1012010BD002021
:10A5200010BD13460A1A10B519184A4B1C6820446E
:10A5300000F054FD401E8041C00F10BD2DE9F041D8
:10A5400000F092F838BB4FF47F252846FFF7D9FF7B
:10A55000404F414C06463868FFF7D3FF4FF4DC7894
:10A56000DEB118B32A4658210420FFF7DAFF064669
:10A570002A464FF4AE715C20FFF7D3FF002E18BFC0
:10A58000002813D1396842462046FEF7B3FA00206E
:10A5900000F03AF880B103200EE00028F2D14146E5
:10A5A0002046FEF757FF01206060F0E7424629464B
:10A5B0002046FEF7AFFA0020BDE8F081F8B5164658
:10A5C00004460D461F464FF4DC7200F007FD28B923
:10A5D00030001CBF0020B0470020F2BD0022012146
:10A5E000204600F052F868B94FF4DC72294638462C
:10A5F000FEF780FA33464FF4DC723946204600F00D
:10A600003BF800B10320F2BD38B50446124D284690
:10A61000FFF772FF05F5DC732246294601B028607A
:10A620004FF47F20BDE83040C8E702460948031DCB
:10A630000068C3E74FF47F21F7E738B505460020EF
:10A64000FFF7E2FF040003D103492846FFF7EDFFBF
:10A65000204632BD585800208C86002041690029D0
:10A660001CBFC06808477047002814BF0A490B493F
:10A6700000220B4800F032B880B5009313460A461A
:10A680000146074800F02FF802BD13460A4601466E
:10A69000034800F03DB80000ECD80F00CCD80F0004
:10A6A000185A002030B50346002A0EBF4FF0FF3085
:10A6B0001068C04300240BE01A5D50400822C50713
:10A6C00054BF0025044D521E85EA5000F7D1641C8A
:10A6D0008C42F1D3C04330BD2083B8ED01601146F8
:10A6E0000268136818472DE9F04182B01646984673
:10A6F000089F04460D46424600F048F80097204661
:10A7000024682946E56843463246A847BDE8F681F5
:10A71000F8B504461646606802680D461F46724347
:10A72000204600F033F820462468294625693B4638
:10A730003246A847F2BD38B500281CBF0168002981
:10A7400017D100240E4D00E0641C0E480E49401A3B
:10A750001422B0FBF2F294420FD214216143681824
:10A7600069580029F0D0C96988470028ECD0012039
:10A7700032BDC969BDE834400847002032BD000041
:10A78000185A00202C5A0020185A0020C3689942F9
:10A7900007D300695118491E88428041C043C00F49
:10A7A000704700207047FEE73B4A9388984234BFC9
:10A7B000401C0020C0B2704710B512F003030DD149
:10A7C000354B9A604C1CE40402EB1442DA60002220
:10A7D0005A701A7058809980002010BD072010BD53
:10A7E0002DE9F0472C4F04467888884282B088468D
:10A7F000154635D300218DF800106846FFF794FB0D
:10A8000097F800A07878FFF7CFFF4FF6FF79504513
:10A810004E4604D07E787878FFF7C6FF78709DF8B2
:10A820000000FFF79FFB4E4518D0B86840F836503F
:10A8300000EBC605002C18BF5FEA08000AD0788834
:10A84000FB684643424621469819FEF753F9A5F89E
:10A85000048001E00020A880002002E0042000E045
:10A860000920BDE8F68738B50B4C0FE02278A368C5
:10A87000658803EBC20055438188E06853F83220B5
:10A88000284490472078FFF78FFF20702078617868
:10A890008142EBD131BD0000C08F002070B51F2870
:10A8A000049D059C41EA420192BF4FF0A04600F092
:10A8B0001F001B4E41EA830141EA052106EB80009F
:10A8C00041EA0441C0F8001770BD10B5154A164B97
:10A8D000012449B91F2892BF191D00F01F00111D46
:10A8E00004FA00F0086010BD1F2894BF1A4600F05B
:10A8F0001F0004FA00F0106010BD0FF28002105C1F
:10A900000021E2E70FF27402105C0121DDE710B5CF
:10A9100000242046FFF7F6FF641C042CF9D310BD79
:10A92000000300500808005008050050F0B5044628
:10A93000E00783B010D500250FF2400600270197ED
:10A9400000970023705D01220121FFF7A7FF6D1C16
:10A95000042DF4D3FFF7DBFFA0070ED500240FF280
:10A96000200500200190002100910323285D002292
:10A97000FFF794FF641C042CF3D3F7BD0D0E0F10EA
:10A980000B0C181900B580F308888E46104700BDDF
:10A9900070B50B0502D12A4B984201D3072070BD38
:10A9A000002A0CBF02220622264B1C68072C14D852
:10A9B000254D05EB0416641C30607160B2601C60AC
:10A9C00005EB041353F8104D844201BF5C688C42C0
:10A9D0009B689342E8D1002070BD042070BD30B563
:10A9E00004461A4889B00022C0F57F21FFF7D0FF46
:10A9F00054F8045B2468EFF30580002181F3148888
:10AA000081F3108881F3118881F31388C00508BF92
:10AA100022460ED068460FF238012022FEF77AF85F
:10AA2000203D0694202269462846FEF763F86FF021
:10AA300006024FF0FF312846FFF7A4FF09B030BDF2
:10AA400001F00F00E88F002000E8014000800F00B7
:10AA500000000000000000000000000000000000F6
:10AA600000000000FFFFFFFF0000000000000001E9
:10AA70004849012008707047BFF34F8F4649474847
:10AA80000A6802F4E06202430A60BFF34F8F00BF1E
:10AA9000FDE74049002008704148FFF7CBBDF8E7CB
:10AAA00010B50446C01E012805D9C01E012898BF54
:10AAB000FFF7EFFF04E03B494FF4701000F06FFB2D
:10AAC0003448416819B12046BDE81040084710BD20
:10AAD00070B5304E70600020FFF730FD002842D185
:10AAE00000F028FC304C18B102283ED040D33AE0A8
:10AAF0002E490A680120D3034FF4701503D54FF493
:10AB00008030086007E0616811F0A90F04D0606828
:10AB100000F0560060600020FFF76AFA18B1206864
:10AB200010F0B10F16D000F07AFC06F108022021D7
:10AB30001820FFF741FE08B1FEF720FF206810F053
:10AB4000B10F03D0206800F04E0020600020C04606
:10AB500088B108E0FFF7A5F928B930701448FFF76D
:10AB600069FD00F029F8032070BD4FF4A025DAE755
:10AB7000FFF78FFFF7E70B49284600F010FB0D4861
:10AB800000F093FC0028EED100F066FCFFF76BFEAE
:10AB900041DFF9E7648200200CED00E00400FA05D3
:10ABA00079AA0F009FAA0F001C0500400004004076
:10ABB00071AA0F00A1AA0F0080B507494FF0FF301E
:10ABC000086006490860FEF776FFBDE802404FF4D2
:10ABD0008050FFF704BF00BF80E100E080E200E0AA
:10ABE00005E00A684B689A4209D108314160026861
:10ABF000416853689942F4D10021816070478260B6
:10AC00007047016009684160EAE7816851B10368F3
:10AC10009A685118426881605368994202D102F1E2
:10AC20000801F0E77047FEE7164902220A60BFF309
:10AC30006F8FBFF34F8F4860134A10680028FCD015
:10AC400000230B60FFE7BFF36F8FBFF34F8F704799
:10AC500070B50C4C0123236000F018F800250A4E53
:10AC600007E051F8253040F825303368002BFCD040
:10AC70006D1C9542F5D30020206000F007F870BDF0
:10AC80000000000004E5014000E40140BFF36F8FC5
:10AC9000BFF34F8F7047FEE7F8B50B480B4C0C4DD8
:10ACA0000C4F041B01202870002600E0761CB6EB38
:10ACB000D40F05D257F8360080470028F6D0F2BDF1
:10ACC000022028700020F2BD1CDA0F0014DA0F00F9
:10ACD000FE8F002014DA0F000144491E05E00278BF
:10ACE0000B7800F8013B01F801298142F7D2704747
:10ACF0000244521E03E011F8013B02F8013982427E
:10AD0000F9D2704770B504460D461646FFF7F0FFBE
:10AD10003246A919A019BDE87040E9E738B50446E4
:10AD20000D46FFF7D9FF29466019BDE83440D3E747
:10AD300000B910E001B911E000220A60486000206B
:10AD4000704700B907E00068884202D048F24050DE
:10AD500070470020704748F21050704748F2135077
:10AD6000704700B9F7E7914202D048F2115070479E
:10AD700000207047F8B505460E4614461F46FFF7FB
:10AD8000D7FFA8B914B948F21050F2BDA87987428C
:10AD900002D048F21150F2BD064810B948F20350F3
:10ADA000F2BD2146304600F095FB08B902493160FA
:10ADB000F2BD0000D5B40F007052464D10B504002E
:10ADC00000D11CE001B91DE061600968884710B935
:10ADD0001C482060002010BD10B500B90FE00368CA
:10ADE000184CA34202D048F2025010BD01B909E04C
:10ADF0000AB9002010BD43685C68A04710BD48F246
:10AE0000015010BD48F2105010BD38B510B948F2CD
:10AE1000015032BD03680B4CA34202D048F20250ED
:10AE200032BD11B948F2135032BD43681468DD6871
:10AE3000AC4202D248F2145032BD9B6801B0BDE86A
:10AE4000304018476E52464870B5044615461E46B7
:10AE5000FFF7B4FF58B9324629462046FFF7BCFF3A
:10AE600028B9059A04992046BDE87040CDE770BD29
:10AE70002DE9F84307460D46164699461A492846D5
:10AE8000FFF75FFF00245FEA000829D16868427974
:10AE9000099908985200FFF764FF5FEA00081FD184
:10AEA00016B948F210501CE0104810B948F203508F
:10AEB00017E047B9A42000F0B1FB040008BF48F236
:10AEC00015500ED02746089800904B46324629462A
:10AED000384600F0FBFB804614B1204600F0ACFB86
:10AEE0004046BDE8F28300007052464DCDB60F00DB
:10AEF00070B502460020002300E05B1CDCB28C42EF
:10AF000008D243F20C05DBB252F823402E88B4423B
:10AF1000F3D1012070BDF8B5044604F154060125B3
:10AF20003078002853D07078002818BF012803D04B
:10AF3000022818BF03284AD1727E032A02D1217A3F
:10AF400011B944E0142543E0E168342918BF112504
:10AF50003ED143F204021F4F1368217CBB4224D12F
:10AF600000291CBF6269002A11D004F11400FFF708
:10AF7000BFFF10B37178207838B3002918BF0129BA
:10AF800015481CD0C068616888421CD220E048B9CE
:10AF90000129EFDD60690028ECD104F11400FFF70E
:10AFA000A7FF0AE00128E5D107E000291CBF61697D
:10AFB000002902D120780028DCD1122508E0616840
:10AFC0008068814204D2102502E0012900D00F25BB
:10AFD0002846F2BDDBE5B1518C860020030000203D
:10AFE00013F0030F09D0521E22BF13F8010B11F802
:10AFF00001CBB0EB0C00F3D0704711F0030F14D16C
:10B00000121F22BF53F8040B51F804CB6045F7D050
:10B01000121D0AD200BA9CFA8CFCB0EB0C0038BFAF
:10B020006FF0000088BF01207047521E22BF13F846
:10B03000010B11F801CBB0EB0C00F6D0521C08BF8D
:10B0400010467047000000000000000000000000F3
:10B0500081B00022425040580090009901B07047E2
:10B0600038B55B4C207830BB5A490868C00302D41D
:10B070005949012008604FF48071584D00F037F8AD
:10B080004FF4A07100F033F84FF4A27100F02FF8E4
:10B090005349544AA0200870102111600120524ADF
:10B0A00011600021514A1160A860286002205049B7
:10B0B00008600121217031BD38B50446474D05EBCC
:10B0C00084024FF4F860C2F840150FF2541141F0B9
:10B0D00001018847A20002F5A07211B200F007F842
:10B0E0004FF4803000FA04F44148046031BD284632
:10B0F000AEE76FF07F420B46914288BF13463D4A50
:10B100001268D218C91A22F07F4203D096293CBF98
:10B110009631963A41601146007BCDE770B5044602
:10B120000D461646FFF79CFF266029462046BDE8DF
:10B130007040DEE7F8B53048284D00682F4E30B13A
:10B14000306A401C30624FF48271FFF7D0FF002458
:10B15000A00000F5A07000B22858E0B1A00000F5F2
:10B16000A07001B2284606EB0417FFF771FF397B88
:10B17000234A4FF4803088401060796819B138460E
:10B18000FFF7B7FF07E0B96811B13846FFF7B1FF25
:10B19000386800B18047641C012CD9D9F1BD38B59D
:10B1A0000A461849164D0B68197B4FF480348C40C1
:10B1B0002C6020B101461846BDE83840AEE731BDED
:10B1C0000A4611490B68986001461846A6E7000038
:10B1D000FB8F00201804004008000040004002409F
:10B1E00024E400E084E200E004E100E008450240DD
:10B1F000044302400445024004410240B857002085
:10B2000008430240DC570020E05700200000000007
:10B21000000000000000000000000000000000002E
:10B220000338FDD8704700002DE9F0478046894675
:10B23000C14514461D4608BF002031D004F6FF76F4
:10B2400000F0EDF8A9EB0807360BB5EB173F88BF08
:10B250003D0B002024B3B54227BFB2462746AA467D
:10B260002F03002251464046FFF70FFAC0B9781E5F
:10B27000FA1C00F00300121A002349464046FFF76B
:10B28000FBF968B95348016BE41BB844B9447F1813
:10B2900007630020FFF7D1F90028A6EB0A06D9D0F2
:10B2A000BDE8F087F8B5FEF79FFE4A4A946C536BF1
:10B2B000116B494F5A1A02F6FF75521EC2F30B0268
:10B2C000AA1A04F50055081855F8046FBE4201D0BB
:10B2D0000320F2BD994201D10020F2BD08230919D3
:10B2E000FFF7A2FF18B9BDE8F240FFF7A6B9F2BD1B
:10B2F00038B53848C16A456A846CAC2903D1406BC3
:10B3000004192D1A03E014B9FEF760FE04462A461C
:10B3100021463248FFF762FE38B100F09DF8294619
:10B320002046BDE83440FEF7ABBB32BD2C490120BE
:10B3300008707047F8B5274DE86A0024012806D048
:10B34000A52834D0AA2836D0AC2837D03DE06E6A84
:10B35000AF6CFEF72CFE296B0818721ACF198742C2
:10B3600008BF002208233946FFF75EFF60B9FEF7E9
:10B370001EFE00223146FFF795F9A96A884203D1E3
:10B3800001212962E861AE6105F12400FEF706FEA5
:10B390001349002008701348FFF74FF9B8B9012589
:10B3A000B4B10120FEF724FE90B1022510E0FFF7B2
:10B3B00079FF0124E8E7FFF79BFFE5E7FFF772FF5E
:10B3C0000028F6D1FFF794FFF3E70020F2BD032534
:10B3D0002846F2BD8C860020DBE5B15100800F00CD
:10B3E000FC8F00202DB30F001F49086860B10020BA
:10B3F0001E490968C140CA0703D51D4A1D4942F8C4
:10B400002010401C0728F3DB7047EDE71A4881B095
:10B410000021016000680090009901B0704738B5C4
:10B42000164C2178B9B9104A106890B114490D68CA
:10B43000A5F548609628B4BF9625A5F54865FFF7A1
:10B44000D3FF10492846FFF7BBFE0F494FF4803069
:10B4500008600121217031BD03490868002818BF28
:10B46000FFF7C2BF7047000000040140080501401B
:10B47000000601403546526E00010140FD8F00205C
:10B48000040501400BB40F0000E100E010B50446D4
:10B49000062C04BF0020FEF7D4FA0C49096819B144
:10B4A0002046BDE81040084710BD10B50749084CBC
:10B4B00008600020FFF7EAFF2046FEF7B3FA20B944
:10B4C0002046BDE81040FEF703BA10BDEC8F002007
:10B4D0008DB40F0038B504460D46202204F1080053
:10B4E000FDF708FB202205F1200104F12800FFE709
:10B4F000FDF700FB002032BD43090B60A0EB4310B9
:10B500001060704700B583B06A4601A9FFF7F4FFE9
:10B510000199514800EB810100984A68012383405A
:10B520001A434A6007BDF0B5024600200FF24813E7
:10B530000FF260140FF224154AB155F820609642BC
:10B5400005D354F8206053F82070BE4207D154F858
:10B550002060B14203D3401C0728EDD30020F0BD8A
:10B5600080B501460020FFF7DEFF0FF2F00151F831
:10B57000200002BD2DE9F043374D83B00646287800
:10B580000F4610B948F2081046E0002E14BF002FF5
:10B5900048F20E1040D0386808B1212802D348F292
:10B5A000071039E00121FFF7BEFF01460FF2C80086
:10B5B0000FF2FC0250F8210052F8214048F2041921
:10B5C00001E04444012030BBFFF7CAFF80466A46D1
:10B5D00001A90020FFF790FF281D019950F82100D4
:10B5E0000099C840C007ECD501AA69460020FFF7C2
:10B5F00083FF281D009950F82120019801238340E2
:10B60000281D9A4340F821202819083030604FF057
:10B610000009C7F800804846BDE8FE8300B583B046
:10B6200000210091019001A96846FFF7A3FF08B12E
:10B630000021009100980EBD074A1178002918BF1B
:10B64000002807D00832824204BF0020FFF75ABF0B
:10B65000002085E770470000848F00202000000054
:10B660004000000020000000000100000001000078
:10B6700028050000740D000000000000000000001C
:10B6800000000000010000000100000001000000B7
:10B6900001000000000000000000000001000000A8
:10B6A0000100000001000000010000000100000096
:10B6B000000000000000000000000000200000006A
:10B6C0002000000020000000200000002DE9F041D3
:10B6D000044682B01548164E20600D4690461F461F
:10B6E0000121304600F028F8BFF35F8FD0B900F099
:10B6F0004BF8089A0097434605F10801204600F0F0
:10B7000055F8044600F044F8BFF35F8F0020306026
:10B7100034B1084884420CBF48F2425048F21650F7
:10B72000BDE8F68148F20450FAE700BFDD55AABB38
:10B73000E48F00208408F00010B5024652E8000FA4
:10B740000C4642E8004393F0000FF7D110BD000013
:10B7500010B5024652E8000F40EA010442E80043F7
:10B7600093F0000FF6D110BD10B5024652E8004F1D
:10B7700004EA010042E8000393F0000FF6D110BD87
:10B780000121E5E70021EFE70549064A012002E033
:10B790000349054A002008604FF48061116070473A
:10B7A00000A5025004E100E084E100E02DE9F04151
:10B7B000069F044615461E4600F00CF838B93B4675
:10B7C000324629462046BDE8F04100F029B8BDE8E0
:10B7D000F081FEE738B50D460446B0B1A022002145
:10B7E000043000F0D1F895B12946082204F1640034
:10B7F00000F0CCF8082205F1200104F1840000F0EB
:10B80000C5F8044B2360002038BD034838BD034809
:10B8100038BD00BFDD55AABB7108F0008308F000F9
:10B820002DE9F74305460E469946114600F0BCF84F
:10B830000446002840F08480002E00F08580002916
:10B8400000F08480B9F1200F40F0828005F14404BB
:10B85000082205F10408204600F098F805F12407B5
:10B8600008223146404600F091F806F120010822F6
:10B87000384600F08BF802A94FF4807041F8049D1F
:10B8800000F0A2F8002865D1334A4FF480731360AA
:10B89000012193600823314A00F09AF801210846FB
:10B8A00005232F4A00F094F80823424601211C206A
:10B8B00000F08EF808233A460121032000F088F8B2
:10B8C000224608230121022000F082F80823254A9D
:10B8D00001211A2000F07CF80523234A01211B20B6
:10B8E00000F076F80823214A0121142000F070F8B6
:10B8F00008231F4A0121152000F06AF8082305F1EA
:10B9000064020121162000F063F8082305F1840287
:10B910000121172000F05CF80823164A01210B20B2
:10B9200000F056F800F0B0F80446019800F0EEF987
:10B93000114B002C18BF1C46A421284600F0F8F932
:10B94000204603B0BDE8F0830C4CF9E70C4CF7E758
:10B950000C4CF5E7084CEFE790B0025084D40F0090
:10B96000FCD40F0044D40F00E8D40F00A8D40F007B
:10B97000C8D40F0064D40F008408F0007608F000EB
:10B980008008F0008108F00000F0D6B901EB8202D7
:10B9900004388A4201D10020704752F8043D1BBA96
:10B9A00040F8043FF5E7FEE730B10268034B044876
:10B9B0009A4208BF0020704702487047DD55AABB75
:10B9C0008208F0007108F0000A46002100F0BEB9BC
:10B9D000F0B5294D85B02C462E680096009EF607DE
:10B9E000FAD500F1A05000F52C40800005682068D1
:10B9F00001900198C707FAD52048214F056002EB56
:10BA00008306B24229D15A1C1D4E22F001020027A2
:10BA1000934227D323680293029BDE07FAD5194B82
:10BA20000B449B001B681F335B099A4213D22168A9
:10BA300003910399C907FAD5154400219B1A104AAE
:10BA400005600846994210D35A1C0D4922F00102A4
:10BA5000002093420CD305B0F0BD52F804EBC7F8B8
:10BA600000E0CEE737600133D2E710600131E9E74B
:10BA700008600133EDE700BFB4B00250D4B002500B
:10BA8000D8B0025024AC00142DE9F041814B1D6860
:10BA900098682033A0B01E461A680192019AD70711
:10BAA000FAD57D4B7D4A1A6032680292029AD40719
:10BAB000FAD57B4A1A607B4A1446116803910399B0
:10BAC000C907FAD5784A1168C1F34021376804974D
:10BAD000049FFF07FAD5754F1F6027680597059FDC
:10BAE000FF07FAD51768002900F0CF80B90540F1AB
:10BAF000CC80316806910699CF07FAD56C49196058
:10BB0000216807910799C907FAD51168C1F3402147
:10BB100037680897089FFF07FAD5664F1F602768A8
:10BB20000997099FFF07FAD51268002900F0AF8036
:10BB3000910540F1AC8032680A920A9AD207FAD590
:10BB4000564A1A6032680B920B9AD707FAD55A4AAE
:10BB50001A6031680C910C99CC07FAD557491960D5
:10BB600031680D910D99C907FAD5554919603168A9
:10BB70000E910E99CF07FAD55249196031680F918D
:10BB80000F99CC07FAD550491960504B1E461968D9
:10BB900010911099C907FAD53F4C4D4B236033687B
:10BBA0001193119BDB07FAD54A4B2360336812933C
:10BBB000129BDF07FAD5484B23603A4B9846196829
:10BBC00013911399C907FAD5324F3860336814932B
:10BBD000149BDB07FAD5226033681593159BD807B1
:10BBE000FAD53E4B236033681693169BD907FAD5D6
:10BBF0003B4B236033681793179BDA07FAD5394B11
:10BC0000236033681893189BDB07FAD5364B236003
:10BC100033681993199BD807FAD5344B23603368DE
:10BC20001A931A9BD907FAD5314B236033681B93BB
:10BC30001B9BDA07FAD52F4B236000F0C1F808BB35
:10BC4000D8F800301C931C9BDB07F9D53D603368A6
:10BC50001D931D9BD907FAD5274B236033681E938C
:10BC60001E9BDA07FAD5254B2360D8F800301F93C6
:10BC70001F9BDB07F9D50C4B1B6813F4805F204B2F
:10BC800008BF184620B0BDE8F0811E48FAE71E48FC
:10BC9000F8E700BF90B0025080B00250001002518F
:10BCA000C01F7229B4B0025088B00250C0CF012921
:10BCB000C01F0E29C03F002940010249003184A85D
:10BCC00000001649400108A180440888B0B0025025
:10BCD000C044708880077A41C0077E4100006A49ED
:10BCE0008006164940006E49000200210082202192
:10BCF000408220218082242140A161A100C861519D
:10BD00000308F1000108F1000208F10008B540B194
:10BD1000202801464FF0070228BF2021002000F014
:10BD200041F9024B00221A6008BD00BF1CB8025046
:10BD30000A46002100F000B810B5044610460A4635
:10BD400001462046FCF7A8FF204610BD38B5A0F1FB
:10BD50002003B3F5426F05462CD88F2826D800F172
:10BD6000470300F16604DB064FEA541400D00134A7
:10BD700064013F34A409013411B1A1421AD30C4625
:10BD8000E3004FF48050B0FBF3F0202828BF2020C0
:10BD900002B11060084B01221A60214600F09CF9A4
:10BDA0002846214600F0BCF9002038BD00F11F04F0
:10BDB0006409DDE7014838BD1CB802502221F000BB
:10BDC0002DE9F04192B0012303930493624B1D4689
:10BDD0001A680592059AD207FAD5604C604B236029
:10BDE000604B19461A680692069AD707FAD55E4B39
:10BDF0001A68D60400F1A8802A680792079AD0072B
:10BE0000FAD55A4A22600A680892089AD207FAD5E7
:10BE10001E68C6F30036002E40F09880122000F015
:10BE20009DF90746132000F099F987428CBF122034
:10BE3000132000F093F9471E00F0D6F903AB01AAD6
:10BE40003946122000F05EFA04AB804602AA394659
:10BE5000132000F057FA00EB4800022832D00328E4
:10BE60003ED0012874D12B680993099BDB07FAD5D2
:10BE70003F4B23602B680A930A9BD807FAD53D4BAA
:10BE800023602B680F930F9BD907FAD53A4B236099
:10BE90002B681093109BDA07FAD5384B23602B6878
:10BEA0001193119BDB07FAD5354B2360013F25D554
:10BEB000102319221821002000F060FA304612B039
:10BEC000BDE8F0812B680B930B9BD907FAD52D4B5E
:10BED00023602B680C930C9BDA07FAD52A4BCFE72B
:10BEE0002B680D930D9BDB07FAD5284B23602B683D
:10BEF0000E930E9BD807FAD5254BC1E703AB01AAD9
:10BF00003946122000F0FEF904AB044602AA394675
:10BF1000132000F0F7F910EB440402D100F086FA88
:10BF2000C4E700F059FB022C08D0032C09D0012CE7
:10BF300010D11721162000F00BFCB7E715211420B3
:10BF4000F9E70F210E20F6E7124EB7E7124EB5E7DC
:10BF5000124EB3E7124EB1E7B0B0025080B00250BB
:10BF600000084A51B4B0025088B0025000084E5147
:10BF700000065A4940065E49000442410014424905
:10BF800040042E49000652494006564900063A49E7
:10BF900040063E490608F1000708F1000408F100D8
:10BFA0000508F100F0B5464B89B01D461C680194A8
:10BFB000019CE407FAD5434BDFF810C1DFF810E12C
:10BFC00013449B000A181B681E2A88BFC0F11E017B
:10BFD0001F330A185B095A43B2F5806F88BF4FF4CC
:10BFE00080614FF0000484BFB1FBF3F1091A00F146
:10BFF000A05000F52C402746A14233DC2A68049269
:10C00000049AD207FAD5304A126829680591059931
:10C01000CF07FAD52D482E4C0260002216469A42D0
:10C0200002F1010140D12A4C134621F00101002602
:10C030008B423CD32B680693069BDE07FAD5254B33
:10C040001B682C680794079CE407FAD5036000235B
:10C050001F481C469A422DD11D4A00208B422CD3EA
:10C0600009B0F0BD2A680292029AD207FAD50219E5
:10C07000920012682E680396039EF607FAD5CCF854
:10C08000002000229A4202F1010206D11E4622F04F
:10C090000102964204D30134AEE7CEF80070F1E716
:10C0A000CEF800700136F4E726600A46B7E726604E
:10C0B0000133BDE704600133CCE710600133CDE705
:10C0C000B4B0025024AC00147CB00250D4B0025082
:10C0D000D8B0025078B0025030B500220C4C490064
:10C0E0001346023840F6FC75904202F10102CABFC5
:10C0F000236025605B181E2A04F10404F4D1054A6C
:10C1000019441360044B054A19609A6030BD00BFA2
:10C1100000B0025078B002507CB0025020F80F00FE
:10C120000C4B18603F3020F03F00890140305860D0
:10C130009960D9601961596199611C330648196089
:10C1400082B002680192019AD207FAD5196002B052
:10C15000704700BF90B00250B4B0025030B51E4BD3
:10C1600085B01A46196800910099CC07FAD500F1FC
:10C17000A05000F52C408000016813680193019BDA
:10C18000D807FAD5154B164C1868164D1F302023CA
:10C1900090FBF3F00138002810DA00230130400151
:10C1A00053B1A0F120014FF00042134204D10138F5
:10C1B00081424FEA5202F8D105B030BD13680393B3
:10C1C000039BDB07FAD5431823602B680293029B7D
:10C1D000002BE3D10138DEE7B4B00250ACB002501E
:10C1E000E4B00250DCB0025000B5374B8FB01946B6
:10C1F0001A680092009AD207FAD5344B344A1A6072
:10C200000A680192019AD007FAD5324A1A600A6880
:10C210000292029AD207FAD52F4A1A600A6803924C
:10C22000039AD007FAD52D4A1A600A680492049A34
:10C23000D207FAD52A4A1A600A680592059AD007E9
:10C24000FAD5284A1A600A680692069AD207FAD5E1
:10C25000254A1A600A680792079AD007FAD5234A36
:10C260001A600A680892089AD207FAD5204A1A601A
:10C270000A680992099AD007FAD51E4A1A600A6814
:10C280000A920A9AD207FAD51B4A1A6008680B90DC
:10C290000B98C007FAD51A600A680C920C9AD0075E
:10C2A000FAD5164A1A600A680D920D9AD207FAD585
:10C2B000134A1A600E210D230F22002000F05EF8B1
:10C2C0000FB05DF804FB00BFB0B0025080B0025068
:10C2D0008043012940633921807001298020542145
:10C2E00000D13490C0403490C0302029C0530D900C
:10C2F00000413890832308C880E310210041382191
:10C30000CF4308C87FB51C681CB901F01F041F2C5F
:10C3100027D1174C254626680196019EF607FAD5C7
:10C3200000F1A05000F52C40800000682C680394B8
:10C33000039CE407FAD50F4C00EB611020600E4817
:10C3400001F01F04006802901F2C18BFC943029817
:10C350000FBF106001F01F0100FA01F11160002110
:10C36000196010684300C00F136004B070BD00BFB7
:10C37000B4B00250E4B00250DCB0025070B52648B0
:10C3800088B0054604680094009CE607FAD5234867
:10C39000234C0460234C44EA83432C680194019CA1
:10C3A000E407FAD50360930143EA824242F0104465
:10C3B00044F4C0442B680293029BDE07FAD5046064
:10C3C0002B680393039BDB07FAD5174B03608B01A4
:10C3D00043EA814141F0104343F4C0432E68049680
:10C3E000049EF607FAD503602B680593059BDE07CC
:10C3F000FAD5046041F058412B680693069BDC0790
:10C40000FAD5016042F058422B680793079BDB077F
:10C41000FAD5026008B070BDB0B0025080B00250D2
:10C42000C0210229807100988061189010B5544B8A
:10C4300098B019461A680192019AD207FAD5514B61
:10C44000514A1A600A680292029AD407FAD54F4AF2
:10C450001A600A680392039AD007FAD54C4818600C
:10C460000A680492049AD207FAD54A4A1A600A68FE
:10C470000592059AD407FAD5474A1A600A680692C7
:10C48000069AD207FAD5454A1A600A680792079AAF
:10C49000D407FAD5424A1A600A680892089AD20765
:10C4A000FAD5404A1A600A680992099AD407FAD55F
:10C4B0003D4A1A600A680A920A9AD207FAD53B4A9C
:10C4C0001A600A680B920B9AD407FAD5384A1A6098
:10C4D0000A680C920C9AD207FAD5364A1A600A6892
:10C4E0000D920D9AD407FAD5334A1A600A680E9253
:10C4F0000E9AD207FAD5314A1A600A680F920F9A3B
:10C50000D407FAD52E4A1A600A681092109AD207F8
:10C51000FAD52C4A1A601A4B19461C681194119CC2
:10C52000E407FAD5174B1860086812901298C407F0
:10C53000FAD51A600A681392139AD007FAD5124AEC
:10C540001A600A681492149AD207FAD51E4A1A6021
:10C550000A681592159AD407FAD51C4A1A600A6817
:10C560001692169AD007FAD5194A1A600A681792D5
:10C57000179AD207FAD5174A1A6018B010BD00BF33
:10C58000B0B0025080B00250009365210004319099
:10C59000409665900083612100C3302100C3649000
:10C5A0000081619000461021008111210041442149
:10C5B00000C320290C4610C80086312100C3602129
:10C5C00040C12829409665210013319040962529C5
:10C5D000594614C84004324910B5494B94B0194625
:10C5E0001A680092009AD207FAD5464B464A1A605A
:10C5F0000A680192019AD407FAD5444A1A600A6877
:10C600000292029AD007FAD5414818600A6803924C
:10C61000039AD207FAD53F4A1A600A680492049A2C
:10C62000D407FAD53C4A1A600A680592059AD207DF
:10C63000FAD53A4A1A600A680692069AD407FAD5D9
:10C64000374A1A600A680792079AD207FAD5354A1C
:10C650001A600A680892089AD407FAD5324A1A6012
:10C660000A680992099AD207FAD5304A1A600A680C
:10C670000A920A9AD407FAD52D4A1A600A680B92D0
:10C680000B9AD207FAD52B4A1A600A680C920C9AB8
:10C69000D407FAD5284A1A600A680D920D9AD20773
:10C6A000FAD5264A1A600A680E920E9AD407FAD56D
:10C6B000234A1A600A680F920F9AD207FAD5214AC4
:10C6C0001A600F4B19461C681094109CE407FAD5A9
:10C6D0000C4B1860086811901198C407FAD51A60BD
:10C6E0000A681292129AD007FAD5174A1A600A6895
:10C6F0001392139AD207FAD5144A1A6014B010BDD7
:10C70000B0B0025080B002508090652100040990C2
:10C71000409665908080612180200821802064906F
:10C7200000816190004610210081112100414421C7
:10C7300080202029024610C800860921802060211F
:10C74000402128294096652140962529594614C83C
:10C7500010B5504B96B01C461A680192019AD20748
:10C76000FAD54D4B4D4A1A6022680292029AD207BE
:10C77000FAD54B4A1A604B4A42EA8040226803923B
:10C78000039AD207FAD5186022680492049AD00757
:10C79000FAD5454A1A60A2F5800242EA8141226830
:10C7A0000592059AD207FAD5196022680692069A70
:10C7B000D007FAD53D4A1A6022680792079AD10736
:10C7C000FAD53B4A1A6022680892089AD207FAD52D
:10C7D000384A1A6022680992099AD007FAD5364A6F
:10C7E0001A6022680A920A9AD107FAD5334A1A6067
:10C7F00022680B920B9AD207FAD5314A1A60226846
:10C800000C920C9AD007FAD52E4A1A6022680D9223
:10C810000D9AD107FAD52C4A1A6022680E920E9A08
:10C82000D207FAD5294A1A6022680F920F9AD007C8
:10C83000FAD5274A1A60216810911099C907FAD5CC
:10C840001A60144B1A46196811911199C807FAD544
:10C85000114B20491960116812911299C907FAD534
:10C860001D491960116813911399CC07FAD50B492A
:10C870001960116814911499C807FAD517491960FD
:10C88000116815911599C907FAD5154A1A6016B09D
:10C8900010BD00BFB0B0025080B0025040044190C3
:10C8A00000862929D81001C840144190401421293C
:10C8B000401465210034409000310C90C0400C9031
:10C8C000C030202940960D9000416090031645C865
:10C8D0000086112100416021594644C8401445900A
:10C8E00040142D9030B5044687B00D462168886805
:10C8F000F8B168461821FCF7ADFD0195A0680590D8
:10C90000207910B1012808D00FE001208DF8000037
:10C9100021690291E068039005E002218DF8001082
:10C92000E0680003029060690490684621688A68A4
:10C93000904707B030BD944800F5017100F5FA70DA
:10C9400000F0C0B910B5904C207A48B904F50171D7
:10C9500004F5FA7000F08AF9606108B9606010BDF2
:10C96000022063692072187910B1012811D022E0E9
:10C9700098695A69121A142A09D29208012A98BF92
:10C980000122D9681B694118C01829DF05E005227A
:10C99000F7E7D8681969081828DF10B1112807D0FF
:10C9A00009E0207C88B9BDE810400021022091E018
:10C9B0000120207210BD60690321FFF793FF002062
:10C9C00020726060BDE81040B5E710BD10B56E4C38
:10C9D000201DFEF7D5FE002804BF607C002802D190
:10C9E000BDE81040AEE710BD10B50FF2A411664CC3
:10C9F00041602046FEF7C4FE58B9FDF74DF920749A
:10CA00001C234FF4EE7204F1180104F5FA7000F0E3
:10CA1000C5F8002010BD10B55B4C14212046FCF772
:10CA200019FD04F5FA7000F0CDF8002010BD2DE9D5
:10CA3000F84300F03CF8040008BF042012D01C2189
:10CA4000FCF7BEF800202071256069460898A060B8
:10CA50002661E760C4F81480484600F0F7F8FFF755
:10CA6000B5FF0020BDE8F28380B510461A46FCF7FA
:10CA700041F8002002BD2DE9F84300F018F8040049
:10CA800008BF042011D01C21FCF79AF80120207166
:10CA90002560360BC4F80880E66067616946484641
:10CAA00000F0D4F8FFF792FF0020BDE8F2830546BE
:10CAB0000E46DFF8D890174698466946484600F07B
:10CAC000A3B808467047002070472F48007A00B18D
:10CAD0000120704738B5022818BF03283DD12A4CE1
:10CAE000217A002939D002292ED16269022802D088
:10CAF00003281BD028E00021E160117959B10129F8
:10CB000022D111695069491C814211611CD1002058
:10CB10002072002113E0916953695D1A142D88BFBA
:10CB200014256918994291610ED1F0E7E068401C24
:10CB30000928E06008D30020E06020720D21104633
:10CB4000FFF7D0FEFFF7F7FE607C10B9BDE831407B
:10CB5000F8E6BDE83140FDF794B831BD0A4801213F
:10CB60004174007A401E8041C00F70470128064979
:10CB700003D100204874012003E0032803D10020E2
:10CB800048740874DEE67047FC890020F08B0020B2
:10CB900000100000040000000100000010B509B9F9
:10CBA0000E2010BD92FBF3F403FB14240CB10920FA
:10CBB00010BD01608281002141608160C38100203D
:10CBC00010BD000081B050E8022FC188B2EB324F97
:10CBD0004FF0000317BF92B241EA014142EA01411E
:10CBE00004E04268B2EB324F08BF012340E8021272
:10CBF000002AE8D18DF800309DF80000002814BF0D
:10CC00000020112001B070473CB550E8015FAAB286
:10CC1000C3891A4483899A4228BFD21A03899A4247
:10CC200002BFBFF32F8F002407E0C2EA050240E8ED
:10CC30000123002BE9D14FF0010400F03AF81AB1BA
:10CC400000680988084436BD002036BD0A88498836
:10CC50008A4209D150E8011FC1EA014140E80112AE
:10CC6000002AF7D101207047002070473CB550E8FA
:10CC7000025F1FFAA5F2C3889A4202BFBFF32F8F4B
:10CC800000240DE0C3891A4483899A4228BFD21A2E
:10CC9000C5EA024240E80223002BE8D14FF001042C
:10CCA00000F007F81AB100684988084436BD002032
:10CCB00036BD01958DF80040019A0A609DF800206C
:10CCC000704700000A8849888A4209D150E8021F4B
:10CCD000C1EA214140E80212002AF7D10120704741
:10CCE0000020704730B54C480021016041600020B1
:10CCF0004A4908604A494B480A6802604A684260EB
:10CD00008A688260CA68C2600A6902614A694261CF
:10CD10008A690262CA6942620A6A82624A6AC262B5
:10CD20008A6A0263CA6A42630A6B02644A6B42649B
:10CD30008A6B8264CA6BC264096C01653A490A68ED
:10CD4000082A04BF4868002802D1384B384A1A60C4
:10CD50000B68082B04BF4868002802D1354BFB2222
:10CD60001A600B68082B04BF4868002809D13248B4
:10CD7000324B02681C78120904F00F0444EA0212D4
:10CD800002600A68082A04BF4868002803D12C4AB8
:10CD90004FF4007111602B480268D1072A4A44BF42
:10CDA0006FF001010160D06F40F47000D067BFF3F5
:10CDB0004F8FBFF36F8F254B186800285CBF5868F2
:10CDC000002821D5224C234D01202060296800290C
:10CDD000FCD01220186028680028FCD0122159606D
:10CDE00029680029FCD00020206028680028FCD099
:10CDF000BFF34F8F1168184801F4E06101431160DF
:10CE0000BFF34F8F00BFFDE701490248086030BD06
:10CE1000145A00200090D0030C0100403805004057
:10CE20000404001020C50040300100108C56004062
:10CE30004881030018F50040E40E0040580200103D
:10CE400040960240000400400CED00E0001200108B
:10CE500004E5014000E401400400FA050000000080
:10CE600001010000010000000000000002050000B8
:10CE70002100000000000000000000000000000091
:10CE800000000000011104FC04000000000000008C
:10CE9000021104FC0400000000000000032104FC57
:10CEA0000410000000000000041101FF0100000058
:10CEB00000000000051102FE040000000000000058
:10CEC000061104FC0400000000000000071104FC2F
:10CED0000400000000000000081701FF220000000D
:10CEE00060CE0F00091001FF010000005CCE0F00B2
:10CEF000000000000000000000000000011101FF20
:10CF00000100000000000000021702FE9400000073
:10CF100084CE0F00000000000000000000000000B0
:10CF20000107000098000000FCCE0F000201000085
:10CF300001000000000000000305000041000000A7
:10CF400000000000000000000000000000000000E1
:10CF5000011704FC98000000FCCE0F00021704FC2F
:10CF6000DC00000020CF0F000000000000000000E7
:10CF70000000000080B501212E48FEF7DDFBBFF365
:10CF80005F8F401E8041C00F02BDBFF35F8F2949F4
:10CF9000002008607047A0B12749401A06D0401E03
:10CFA0000AD0401E05D00D3806D008E048F20150E6
:10CFB000704748F20250704748F20350704748F2F9
:10CFC0001650704780B5083000F05EF8BDE80240AA
:10CFD000E1E72DE9F843064689461546FFF7CAFF03
:10CFE00010B948F2045022E0FEF7CEFBDFF84C8087
:10CFF000B5F5805F8CBF4FF480572F463A464946BF
:10D000004046FBF777FD3A46414606F1080000F03E
:10D0100055F80446ED1BB9440CB9002DE8D1FEF7D4
:10D02000B7FBFFF7B2FF2046BDE8F243B3E7BDE828
:10D03000F2830000E48F00200002F0006472002000
:10D0400070B516460446306820280D4602D248F2D4
:10D05000145070BDFFF78EFF10B948F2045070BD38
:10D06000FEF792FB294604F1080000F07FF8044621
:10D07000FEF78EFBFFF789FF2046FFF78CFF08B90C
:10D080002021316070BDFEE738B5044668B1051D4A
:10D0900028467021FEF74CFE28462022044900F065
:10D0A00095F8044B2360002038BD034838BD00BF0D
:10D0B0002CD90F00DD55AABB0002F000294B2DE949
:10D0C000F04304460E4615460FCB85B06F468DE8FB
:10D0D0000F002DB94FF00009484605B0BDE8F083B8
:10D0E000204600F075F881460028F5D1231D0193F4
:10D0F000636AA3BB236F8BB1C3F14008A84528BF67
:10D10000A84604F1300031461844424600F05EF86B
:10D11000236F434446442367A5EB0805226F402A4A
:10D1200006D104F13001384600F062F8002323678D
:10D1300005F03F0835F03F0505D031462A46384610
:10D1400000F056F82E44B8F1000FC3D042463146E5
:10D1500004F1300000F03AF8C4F87080BCE7DFF862
:10D160000890B9E7C0D90F000C02F0002DE9FF418B
:10D17000144B04460E460FCB8DE80F00204600F0FE
:10D1800027F88046B0B9CEB1636A251D01953BB939
:10D1900001236362226F04F13001684600F028F831
:10D1A0002B46043E243453F8042B12BAA34246F80B
:10D1B000042FF8D1404604B0BDE8F081DFF80880C4
:10D1C000F8E700BFC0D90F000502F00000F088B8F2
:10D1D00030B10268034B04489A4208BF00207047F0
:10D1E00002487047DD55AABB0202F0000002F000C1
:10D1F0002DE9F74F314B44688046924699461A68AC
:10D20000002AFCD12E4B9B461A68002AFCD14FF015
:10D21000FF30019100F06AF8802000F06DF8294D90
:10D22000294A2A4F2A4E012307202B60A2F59E721D
:10D23000C2F83C011360636A3B60A36A3360D8F8AC
:10D24000003042F8043CD8F808302046984701994D
:10D25000D9F80030002BFBD1BAF1000F20D11D4BC3
:10D2600004221A60D9F80030002BFBD1DBF800A0B3
:10D27000BAF1000FFAD1D8F80C30204698473B6835
:10D2800063623368A362144BC3F800A0C3F844A1DF
:10D29000D9F80030002BFBD12B6003B0BDE8F08F34
:10D2A000236A012B04BF0C4A13600C4B4020196009
:10D2B000C3F804A000F026F8D4E700BF10B902506C
:10D2C00020BC025018B8025000B90250CCB702502E
:10D2D000D0B70250C8B7025084B6025028BC0250E2
:10D2E00010B50446FBF706FC204610BD014B186044
:10D2F000704700BF08BA0250014B1860704700BF6A
:10D3000004BA0250094BC2431A60043B82B01B6846
:10D310000193074B019A104204D0064A1060186826
:10D3200002B0704720BF1A680192F3E704BA0250B6
:10D33000F48F002008BA02502DE9F041074686B06C
:10D34000BE68884614461D4676B168461821FCF72B
:10D3500081F80C9804908DF80080029503940D9844
:10D3600005906846B968884706B0BDE8F0810FF2BD
:10D37000C80141600020704780B52E48FEF702FAD0
:10D38000002002BD80B510461A46FBF7B3FB002013
:10D3900002BD2DE9FC410446DFF898800D46164693
:10D3A0001F464046FEF7ECF908B1112011E0BA081B
:10D3B00031462846FDF74CFC4046FEF7E3F9089855
:10D3C000019000972B46324601212046FFF7B4FF1B
:10D3D0000020BDE8F6812DE9F0430446DFF85490C3
:10D3E00083B0884616461F464846FEF7C9F9002511
:10D3F00030B1112012E008EB0530FDF715FC6D1C73
:10D40000B542F8D14846FEF7BDF90197009643466C
:10D41000002202212046FFF78FFF0020BDE8FE8397
:10D4200008467047002070470248006800B101209C
:10D43000C0B27047F08F0020001000000400000010
:10D4400001000000FFFFFFFFFFFFFFFFFFFFFFFFE7
:10D4500000000000000000000000000001000000CB
:10D46000FFFFFFFFFCFFFFFFFFFFFFFFFFFFFFFFCF
:10D4700000000000000000000000000001000000AB
:10D48000FFFFFFFF512563FCC2CAB9F3849E17A7B3
:10D49000ADFAE6BCFFFFFFFFFFFFFFFF000000004B
:10D4A000FFFFFFFF0000000096C298D84539A1F4A5
:10D4B000A033EB2D817D0377F240A463E5E6BCF851
:10D4C00047422CE1F2D1176BF551BF376840B6CB1C
:10D4D000CE5E316B5733CE2B169E0F7C4AEBE78E18
:10D4E0009B7F1AFEE242E34FFFFFFFFF7F00000039
:10D4F000800000000000000000000000FFFFFFFFB0
:10D500007F0000008000000000000000000000001C
:10D5100070B5044614491548091A0C22B1FBF2F102
:10D52000A26912F8020C4FF0FF3200B92269002301
:10D530008B420ED20C260E4D5E4335442E68864239
:10D5400005D112F1010F1CBF6E68964204D05B1C1E
:10D55000EEE70120206070BDE368A2686168206882
:10D56000AD68A847F6E7000014DA0F0008DA0F00EC
:10D5700008DA0F001EF0040F0CBFEFF30880EFF382
:10D580000980C5E77047FEE708B90E2070470FF223
:10D59000150101600FF2410141600121017200207B
:10D5A0007047000010B50C4611210CB90E2010BDBB
:10D5B0002278042A0AD8DFE802F00D030B0D0D00D3
:10D5C000FCF73CFC010004BF02202070084610BD9F
:10D5D000112010BD082010BD0246082009B90E20F8
:10D5E00070470B78022B08D1022A03D0032A04D1FA
:10D5F00011207047032200200A7070470C4B1B68F3
:10D60000C3610C4B1B6883610B4B1B6843610B4B65
:10D610001B6803610A4B1B68C3600A4B1B6883606D
:10D62000094B1B684360094B1B680360704700BFD0
:10D630005CB6025058B6025054B6025050B6025072
:10D640004CB6025048B6025044B6025040B60250A2
:10D650001FB50FF234040EE0052818BFFCF78EF951
:10D660001FBD516800981268904701A8FDF7CDFAD8
:10D67000039A002AF5D168464BDF0028ECD12146F9
:10D6800001A8FDF7BEFAF3E7B0D90F00C0D90F002B
:10D69000080000005CAB73B6ECD0CD2AF5E26A3628
:10D6A000B7E5F0AA4A8152E8BBEDC2AB37B2F4ED60
:10D6B00062359BE7D26D7B29717A4FC330459D6EF1
:10D6C000E585CD603FF934F1C9D4454065832B1B16
:10D6D000CFF7589410B50D4900200860BFF35F8F55
:10D6E00001210B4C216000F015F80146002020605C
:10D6F000032021B1052903D148F2035010BD0020B9
:10D7000010BD03490020086070470000E48F00202E
:10D7100000A50250084B1B681B0EF02B08D1074BCD
:10D720001A68074B9A4205D1064B002018607047D3
:10D73000052070470620704728B9025024BA0250CD
:10D740000000E0200CBA025019E050F8042BD30777
:10D7500044BFA9F101039A18091F0023042942F8C4
:10D76000043BF9D25FEA817C134604D54FF0000CEC
:10D77000A2F800C09B1CC90744BF0021197050F8D3
:10D78000041B0029E1D170470C4BC2691A60826901
:10D7900043F8042C426943F8082C026943F80C2C26
:10D7A000C26843F8102C826843F8142C426843F88E
:10D7B000182C026843F81C2C704700BF5CB602505E
:10D7C00030B5016884684218416802EB5103C9070B
:10D7D0000BD54C4409E012F9011B12F8015B00293A
:10D7E00004F8015B05D5491CF9D19A42F3D10C30FC
:10D7F00030BD491EF1D5F8E72CDA0F0034DA0F00FE
:10D8000000000000000000003CDA0F0044DA0F00C6
:10D810000000000000000000E0D90F00F0D90F0068
:10D82000000000000000000010B5074979441831DD
:10D83000064C7C44163404E00A68081D11448847ED
:10D840000146A142F8D110BD500000007C0000004C
:10D85000054B4FF0FF321A6053F8042C034B1A604B
:10D860001A68034B1A60704704BA0250F48F002004
:10D8700008BA02504EF68851CEF20001086840F412
:10D8800070000860BFF34F8FBFF36F8F4FF00070D1
:10D89000E1EE100A70470000B1FEFFFFD42D00003A
:10D8A000306200200000000019FFFFFFD4010000DB
:10D8B00058000000B857002009FFFFFFF0010000EA
:10D8C0001C000000185A0020FEE700006FD30F0074
:10D8D00079D30F0085D30F0093D30F00D7D30F0058
:10D8E00021D40F0025D40F0029D40F00E9C90F005F
:10D8F00017CA0F0069CA0F002FCA0F0077CA0F009E
:10D90000C3CA0F00C7CA0F00CBCA0F000000000037
:10D9100000000000000000000000000024DA0F00FA
:10D920002CDA0F00000000000000000067E6096A22
:10D9300085AE67BB72F36E3C3AF54FA57F520E5130
:10D940008C68059BABD9831F19CDE05B0120C046D5
:10D95000002801D0FFF768FF0020AFF30080FCF73C
:10D960002CF800F000F800F001B8FEE70746384652
:10D9700000F002F8FBE7FEE720210903263118201A
:10D98000ABBEF9E7C5CF0F00D3CF0F0041D00F00DA
:10D99000200000000000000000000000DC8F0020DC
:10D9A000AC8F0020BD8F002030620020F40000000A
:10D9B00034DA0F003CDA0F00000000000000000025
:10D9C000020000000000000089D70F00FDD50F0005
:10D9D0000148804701480047E5CC0F00FDD90F0002
:10D9E000D99D0F000000000051D60F00000000007C
:10D9F000480000000020400000000000AFF300805D
:10DA0000FFF738FFFFF7A2FF00000000030000004F
:10DA100089D50F00D5D60F0003D70F00FD910F0059
:10DA2000C3920F00F38E0F00000000005DCB0F00CB
:10DA300000000000D5CA0F00000000006DCB0F00F1
:10DA400000000000FEE7FEE7FEE7FEE7FEE7FEE778
:10DA5000FEE7FEE7FEE7FEE7FEE7FEE7FEE7FEE79E
:10DA6000FEE7FEE7FEE7FEE7FEE7FEE7FEE7FEE78E
:10DA7000FEE7FEE7FEE7FEE7FEE7FEE7FEE7FEE77E
:10DA8000E4000001F90007B8570020C8570020E063
:10DA90000000FFE500FEFFDA000001F00001E00FEA
:10DAA000810081008100C3000290D003F800055D71
:0ADAB000A60F000010FC000110009A
:020000041000EA
:0810140000800F0000E00F0056
:04000005000FD9FD12
:00000001FF
